:040000008031112812
:100008007E1480310030860000308700270093116D
:1000180001302100EE007E100900803113282100F4
:100028008731FE278031EE008731FF278031EF00CE
:10003800EB01EC01ED015A308400013085001630E7
:10004800A03100208031A0308400013085003C3090
:10005800A03100208031203084000230850020301B
:10006800A031002080317E1020009431F92C02301C
:100078002100CF0022005C08003C2100CE00031CB8
:10008800CF034C08803AD0004F08803A5002031D35
:100098004F284E084B02031C522853288C28220054
:1000A8005C08003E2100CE00023003180330CF0068
:1000B8004F08803AD0004C08803A5002031D662849
:1000C8004B084E02031C69286A288C2821004A0A1A
:1000D80086000130870050300106031974287528FE
:1000E80084284A0A860001308700010803197D2800
:1000F8007E2884284D03031D822884289931A42949
:100108004A088600013087004B3081009931522916
:1001180001302100CF0022005C089A3C2100CE006B
:10012800031CCF034C08803AD0004F08803A500295
:10013800031DA0284E084B02031CA328A428DB2873
:1001480022005C089A3E2100CE00013003180230DC
:10015800CF004F08803AD0004C08803A5002031D67
:10016800B7284B084E02031CBA28BB28DB282100FD
:100178004A0A8600013087004B3001060319C5285A
:10018800C628D4284A0A86000130870001080319C6
:10019800CE28CF28D4284D03031DD328D42882285D
:1001A8004A08860001308700463081008A280130DD
:1001B8002100CF0022005C08333C2100CE00031C44
:1001C800CF034C08803AD0004F08803A5002031DF4
:1001D800EF284E084B02031CF228F3282A29220094
:1001E8005C08333E2100CE00013003180230CF00F6
:1001F8004F08803AD0004C08803A5002031D062967
:100208004B084E02031C09290A292A2921004A0AF7
:100218008600013087004630010603191429152984
:1002280023294A0A860001308700010803191D297D
:100238001E2923294D03031D2229232982284A0820
:10024800860001308700413081008A280030210073
:10025800CF0022005C08CD3C2100CE00031CCF0358
:100268004C08803AD0004F08803A5002031D3E29BE
:100278004E084B02031C41294229792922005C08B7
:10028800CD3E2100CE00003003180130CF004F08CA
:10029800803AD0004C08803A5002031D55294B087B
:1002A8004E02031C58295929792921004A0A860037
:1002B8000130870041300106031963296429722936
:1002C8004A0A860001308700010803196C296D2944
:1002D80072294D03031D7129722982284A08860054
:1002E800013087003C3081008A2800302100CF008F
:1002F80022005C08663C2100CE00031CCF034C089A
:10030800803AD0004F08803A5002031D8D294E08CC
:100318004B02031C90299129C82922005C08663EDB
:100328002100CE00003003180130CF004F08803A7A
:10033800D0004C08803A5002031DA4294B084E02F5
:10034800031CA729A829C82921004A0A86000130C8
:1003580087003C3001060319B229B329C1294A0A8A
:1003680086000130870001080319BB29BC29C1296F
:100378004D03031DC029C12982284A08860001307F
:100388008700373081008A2800302100CF00220002
:100398005C081E3C2100CE00031CCF034C08803AA9
:1003A800D0004F08803A5002031DDC294E084B024A
:1003B800031CDF29E029F42921004C08803A803CFD
:1003C800031DE9294B0822005C02031CEC29ED29D6
:1003D800F42921004A088600013087003230810064
:1003E8002100EF016F08031DFA29FB29FC2F0330B8
:1003F800CF0022005C08FF3C2100CE00031CCF0385
:100408004C08803AD0004F08803A5002031D0E2A4B
:100418004E084B02031C112A122A1A2A21004A08E4
:1004280086000130870032308100FC2F0330210024
:10043800CF0022005C089A3C2100CE00031CCF03A9
:100448004C08803AD0004F08803A5002031D2E2AEB
:100458004E084B02031C312A322A692A22005C0802
:100468009A3E2100CE00033003180430CF004F0815
:10047800803AD0004C08803A5002031D452A4B08A8
:100488004E02031C482A492A692A21004A0A860082
:1004980001308700323001060319532A542A622A90
:1004A8004A0A860001308700010803195C2A5D2A80
:1004B800622A4D03031D612A622A82284A0886009F
:1004C800013087002D308100FC2F03302100CF0040
:1004D80022005C08333C2100CE00031CCF034C08EB
:1004E800803AD0004F08803A5002031D7D2A4E08FA
:1004F8004B02031C802A812AB82A22005C08333E5A
:100508002100CE00033003180430CF004F08803A92
:10051800D0004C08803A5002031D942A4B084E0222
:10052800031C972A982AB82A21004A0A8600013013
:1005380087002D3001060319A22AA32AB12A4A0AE4
:1005480086000130870001080319AB2AAC2AB12ABA
:100558004D03031DB02AB12A82284A0886000130BB
:10056800870028308100FC2F02302100CF002200B4
:100578005C08CD3C2100CE00031CCF034C08803A18
:10058800D0004F08803A5002031DCC2A4E084B0277
:10059800031CCF2AD02A072B22005C08CD3E21005D
:1005A800CE00023003180330CF004F08803AD00045
:1005B8004C08803A5002031DE32A4B084E02031CE4
:1005C800E62AE72A072B21004A0A8600013087001D
:1005D800283001060319F12AF22A002B4A0A86005C
:1005E8000130870001080319FA2AFB2A002B4D0362
:1005F800031DFF2A002B82284A0886000130870045
:1006080023308100FC2F02302100CF0022005C083B
:10061800663C2100CE00031CCF034C08803AD00072
:100628004F08803A5002031D1B2B4E084B02031C37
:100638001E2B1F2B562B22005C08663E2100CE0085
:10064800023003180330CF004F08803AD0004C081E
:10065800803A5002031D322B4B084E02031C352BE7
:10066800362B562B21004A0A86000130870023309A
:1006780001060319402B412B4F2B4A0A86000130F3
:10068800870001080319492B4A2B4F2B4D03031DE3
:100698004E2B4F2B82284A088600013087001E30D7
:1006A8008100FC2F02302100CF0022005C08003CB2
:1006B8002100CE00031CCF034C08803AD0004F081D
:1006C800803A5002031D6A2B4E084B02031C6D2B07
:1006D8006E2BA52B22005C08003E2100CE000230C4
:1006E80003180330CF004F08803AD0004C08803AF6
:1006F8005002031D812B4B084E02031C842B852BB3
:10070800A52B21004A0A8600013087001E30010609
:1007180003198F2B902B9E2B4A0A860001308700E5
:1007280001080319982B992B9E2B4D03031D9D2B14
:100738009E2B82284A0886000130870019308100E4
:10074800FC2F01302100CF0022005C089A3C2100D8
:10075800CE00031CCF034C08803AD0004F08803AE3
:100768005002031DB92B4E084B02031CBC2BBD2B9A
:10077800F42B22005C089A3E2100CE0001300318B9
:100788000230CF004F08803AD0004C08803A50021F
:10079800031DD02B4B084E02031CD32BD42BF42B58
:1007A80021004A0A86000130870019300106031922
:1007B800DE2BDF2BED2B4A0A86000130870001086B
:1007C8000319E72BE82BED2B4D03031DEC2BED2B29
:1007D80082284A0886000130870014308100FC2FE7
:1007E80001302100CF0022005C08333C2100CE00FC
:1007F800031CCF034C08803AD0004F08803A5002BF
:10080800031D082C4E084B02031C0B2C0C2C432CEC
:1008180022005C08333E2100CE000130031802306C
:10082800CF004F08803AD0004C08803A5002031D90
:100838001F2C4B084E02031C222C232C432C210076
:100848004A0A8600013087001430010603192D2C4E
:100858002E2C3C2C4A0A8600013087000108031917
:10086800362C372C3C2C4D03031D3B2C3C2C82286A
:100878004A088600013087000F308100FC2F0030C5
:100888002100CF0022005C08CD3C2100CE00031CD3
:10089800CF034C08803AD0004F08803A5002031D1D
:1008A800572C4E084B02031C5A2C5B2C922C22000E
:1008B8005C08CD3E2100CE00003003180130CF0087
:1008C8004F08803AD0004C08803A5002031D6E2C25
:1008D8004B084E02031C712C722C922C21004A0AE0
:1008E8008600013087000F30010603197C2C7D2C0F
:1008F8008B2C4A0A86000130870001080319852CD1
:10090800862C8B2C4D03031D8A2C8B2C82284A089D
:100918008600013087000A308100FC2F003021005A
:10092800CF0022005C08663C2100CE00031CCF03E8
:100938004C08803AD0004F08803A5002031DA62C7C
:100948004E084B02031CA92CAA2CE12C22005C089F
:10095800663E2100CE00003003180130CF004F085A
:10096800803AD0004C08803A5002031DBD2C4B0839
:100978004E02031CC02CC12CE12C21004A0A86001F
:10098800013087000A3001060319CB2CCC2CDA2C55
:100998004A0A86000130870001080319D42CD52C97
:1009A800DA2C4D03031DD92CDA2C82284A0886003C
:1009B8000130870005308100FC2F00302100CF0076
:1009C80022005C081E3C2100CE00031CCF034C080B
:1009D800803AD0004F08803A5002031DF52C4E088B
:1009E8004B02031CF82CF92C822821004C08803A71
:1009F800803C031D022D4B0822005C02031C052DC0
:100A0800062D822821004A088600013087008101CE
:100A1800FC2F490886000130870097300106031D26
:100A2800162D172D0A2E0330CF0022005C08FE3C3D
:100A38002100CE00031CCF034C08803AD0004F0899
:100A4800803A5002031D2A2D4E084B02031C2D2DFF
:100A58002E2D352D21004A0886000130870081019E
:100A6800FC2F02302100CF0022005C08603C2100EE
:100A7800CE00031CCF034C08803AD0004F08803AC0
:100A88005002031D492D4E084B02031C4C2D4D2DC1
:100A9800842D22005C08603E2100CE00023003183D
:100AA8000330CF004F08803AD0004C08803A5002FB
:100AB800031D602D4B084E02031C632D642D842DED
:100AC80021004A0A860001308700463001060319D2
:100AD8006E2D6F2D7D2D4A0A860001308700010892
:100AE8000319772D782D7D2D4D03031D7C2D7D2D2C
:100AF800FC2F4A0886000130870023308100FC2F34
:100B080001302100CF0022005C08483C2100CE00C3
:100B1800031CCF034C08803AD0004F08803A50029B
:100B2800031D982D4E084B02031C9B2D9C2DD32D85
:100B380022005C08483E2100CE0001300318023034
:100B4800CF004F08803AD0004C08803A5002031D6D
:100B5800AF2D4B084E02031CB22DB32DD32D21000F
:100B68004A0A860001308700643001060319BD2D4A
:100B7800BE2DCC2D4A0A86000130870001080319D2
:100B8800C62DC72DCC2D4D03031DCB2DCC2DFC2FF1
:100B98004A0886000130870046308100FC2F00306B
:100BA8002100CF0022005C089C3C2100CE00031CE1
:100BB800CF034C08803AD0004F08803A5002031DFA
:100BC800E72D4E084B02031CEA2DEB2D822822004C
:100BD8005C089C3E2100CE00003003180130CF0095
:100BE8004F08803AD0004C08803A5002031DFE2D71
:100BF8004B084E02031C012E022E822821004A08AF
:100C080086000130870064308100FC2F4908860087
:100C18000130870057300106031D132E142E562F5E
:100C28000330CF0022005C08FE3C2100CE00031CEC
:100C3800CF034C08803AD0004F08803A5002031D79
:100C4800272E4E084B02031C2A2E2B2E322E210053
:100C58004A088600013087008101FC2F02302100FC
:100C6800CF0022005C08FD3C2100CE00031CCF030E
:100C78004C08803AD0004F08803A5002031D462E97
:100C88004E084B02031C492E4A2E812E22005C0876
:100C9800FD3E2100CE00023003180330CF004F087C
:100CA800803AD0004C08803A5002031D5D2E4B0854
:100CB8004E02031C602E612E812E21004A0A8600F6
:100CC800013087003230010603196B2E6C2E7A2E04
:100CD8004A0A86000130870001080319742E752E10
:100CE8007A2E4D03031D792E7A2EFC2F4A08860092
:100CF8000130870019308100FC2F01302100CF001E
:100D080022005C08FB3C2100CE00031CCF034C08EA
:100D1800803AD0004F08803A5002031D952E4E08A5
:100D28004B02031C982E992ED02E22005C08FB3E05
:100D38002100CE00013003180230CF004F08803A5E
:100D4800D0004C08803A5002031DAC2E4B084E02CE
:100D5800031CAF2EB02ED02E21004A0A8600013087
:100D680087004B3001060319BA2EBB2EC92E4A0A3A
:100D780086000130870001080319C32EC42EC92E2E
:100D88004D03031DC82EC92EFC2F4A0886000130CA
:100D9800870032308100FC2F01302100CF00220073
:100DA8005C08273C2100CE00031CCF034C08803A86
:100DB800D0004F08803A5002031DE42E4E084B0223
:100DC800031CE72EE82E1F2F22005C08273E210077
:100DD800CE00013003180230CF004F08803AD0000F
:100DE8004C08803A5002031DFB2E4B084E02031C90
:100DF800FE2EFF2E1F2F21004A0A86000130870091
:100E0800643001060319092F0A2F182F4A0A860091
:100E18000130870001080319122F132F182F4D03D3
:100E2800031D172F182FFC2F4A0886000130870052
:100E38004B308100FC2F00302100CF0022005C08DD
:100E4800953C2100CE00031CCF034C08803AD0000B
:100E58004F08803A5002031D332F4E084B02031CE3
:100E6800362F372F822822005C08953E2100CE00BD
:100E7800003003180130CF004F08803AD0004C08EA
:100E8800803A5002031D4A2F4B084E02031C4D2F77
:100E98004E2F822821004A088600013087006430DE
:100EA8008100FC2F4908860001308700993001062F
:100EB800031D5F2F602FE22F0330CF0022005C0854
:100EC800FE3C2100CE00031CCF034C08803AD00022
:100ED8004F08803A5002031D732F4E084B02031C23
:100EE800762F772F7E2F21004A0886000130870051
:100EF8008101FC2F01302100CF0022005C08A33CB7
:100F08002100CE00031CCF034C08803AD0004F08C4
:100F1800803A5002031D922F4E084B02031C952F56
:100F2800962FCD2F22005C08A33E2100CE00013071
:100F380003180230CF004F08803AD0004C08803A9E
:100F48005002031DA92F4B084E02031CAC2FAD2FD6
:100F5800CD2F21004A0A860001308700643001063F
:100F68000319B72FB82FC62F4A0A86000130870009
:100F780001080319C02FC12FC62F4D03031DC52F0C
:100F8800C62FFC2F4A0886000130870019308100DF
:100F9800FC2F21004C08803A803C031DD62F4B08BB
:100FA80022005C02031CD92FDA2F822821004A086C
:100FB80086000130870064308100FC2F49088600D4
:100FC8000130870094300106031DEB2FEC2F822897
:100FD800CC1FEF2FF02FF62F4A088600013087002C
:100FE800810182284A088600013087004B08810069
:100FF80000300800013401342000911E042805281F
:1010080000282200E90123009D1C0B280C280E282B
:101018001D121D161908080000307005F800003070
:101028007105F90080307205FA007F307305FB0006
:101038007B087A0479047804031D232824282C28A3
:101048000030F3000030F2000030F1000030F00012
:1010580000307405F80000307505F9008030760519
:10106800FA007F307705FB007B087A04790478045E
:10107800031D3F28402848280030F7000030F600BC
:101088000030F5000030F400F31F4B284C2864288A
:101098000030F8000030F9000030FA008030FB0022
:1010A8007008F8027108F93B7208FA3B7308FB3BB9
:1010B8007B08F3007A08F2007908F1007808F0005C
:1010C800F71F6728682880280030F8000030F900EA
:1010D8000030FA008030FB007408F8027508F93B0C
:1010E8007608FA3B7708FB3B7B08F7007A08F6009E
:1010F8007908F5007808F4008030F3068030F706A8
:1011080077087302031D922876087202031D92283D
:1011180075087102031D9228740870020318952837
:1011280096289828031099280314080020002308FB
:101138008039AD002335B300A21FA328A428A52811
:10114800331433080319A928AA28B928330A031D18
:10115800AE28AF28B7280030A3000030A200003026
:10116800A1000030A000A217C1280030A300003061
:10117800A2000030A1000030A00027088039AD0689
:101188002735B200A61FC928CA28CB28321432082E
:101198000319CF28D028DF28320A031DD428D528E0
:1011A800DD280030A7000030A6000030A500003080
:1011B800A400A617E7280030A7000030A6000030DA
:1011C800A5000030A40032080319EB28EC28F12808
:1011D8003308031DF028F128FA280030A300003056
:1011E800A2000030A1000030A000D42A2008F0009E
:1011F8002608A2310B22883171082000B900700836
:10120800B8003808A800A901AA01AB012B08B10051
:101218002A08B0002908AF002808AE003908A8003D
:10122800A901AA01AB012B08B7002A08B6002908B2
:10123800B5002808B4002108F0002508A2310B22C7
:10124800883171082000B9007008B8003808A80073
:10125800A901AA01AB012808AE072908AF3D2A0851
:10126800B03D2B08B13D3908A800A901AA01AB017E
:101278002808B4072908B53D2A08B63D2B08B73D0C
:101288002208F0002408A2310B22883171082000BE
:10129800B9007008B8003808A800A901AA01AB0174
:1012A8002808AE072908AF3D2A08B03D2B08B13DF4
:1012B8003908A800A901AA01AB012808B407290820
:1012C800B53D2A08B63D2B08B73D0830AE35AF0D01
:1012D800B00DB10D890B6A292108F0002408A2314C
:1012E8000B22883171082000B9007008B80038084E
:1012F800AE073908AF3D0030B03DB13D2008F000E1
:101308002508A2310B22883171082000B900700825
:10131800B8003808AE073908AF3D0030B03DB13DE0
:101328000830AE35AF0DB00DB10D890B95292008E9
:10133800F0002408A2310B22883171082000B9007E
:101348007008B8003808AE073908AF3D0030B03D26
:10135800B13D2108F0002608A2310B22883171081E
:101368002000B9007008B8003808B4073908B53D3E
:101378000030B63DB73D2208F0002508A2310B2207
:10138800883171082000B9007008B8003808B4071F
:101398003908B53D0030B63DB73D2208F0002608B3
:1013A800A2310B22883171082000B9007008B800FA
:1013B8003808A8003908A900AA01AB010830A835E7
:1013C800A90DAA0DAB0D890BE3292808B407290834
:1013D800B53D2A08B63D2B08B73D2E08A8002F08B2
:1013E800A9003008AA003108AB001830AB36AA0CA7
:1013F800A90CA80C890BFA292808B4072908B53DB7
:101408002A08B63D2B08B73D0830AE35AF0DB00DF4
:10141800B10D890B092A33083207A800A901A90DC3
:101428002808823EB800FF30293DB900322A013031
:10143800B435B50DB60DB70D890B1C2AB11F252A79
:10144800262A272A34140130AE35AF0DB00DB10D60
:10145800890B282AFF30B807FF30B93DB61F352A57
:10146800362A1B2AB201B11F3A2A3B2A572AFF30D3
:101478002E05A800FF302F05A900FF303005AA006F
:101488007F303105AB002B082A04290428040319EE
:101498004E2A4F2A522A0130B200572A341C552AA4
:1014A800562A572A4F2A320803195B2A5C2A822AAD
:1014B8000130B4070030B53DB63DB73D371C652A4D
:1014C800662A822A3408A8003508A9003608AA0026
:1014D8003708AB000130AC00AB37AA0CA90CA80C3C
:1014E800AC0B702A2B08B7002A08B6002908B500EB
:1014F8002808B4000130B8070030B93D3908803AEF
:10150800A80080302802031D8B2AFF303802031CF4
:101518008E2A8F2A992A7F302000B7008030B600A3
:101528000030B5000030B400CA2A20003908803ADB
:10153800A80080302802031DA32A013038020318AE
:10154800A62AA72AB22A00302000B7000030B60029
:101558000030B5000030B400AD01CA2A20003808B8
:10156800B300FF30B405FF30B5057F30B605003055
:10157800B705331CC02AC12AC22AB6173308A800E7
:101588000130A836890BC52A2808B7002D08B704EA
:101598003708A3003608A2003508A1003408A000C7
:1015A800080021005C08023E8600013087000230F6
:1015B80001060319E02AE12AF42A5C08033E8600A2
:1015C80001308700023001060319EB2AEC2AF42ABD
:1015D8000030C900B030CA00A03173208A31FF2F13
:1015E8005C08043E8600013087004130010603197B
:1015F800FE2AFF2A0A2B5C08043E86000130870079
:1016080061300106031D092B0A2B0D2B2200C9018D
:101618006D2C5C08043E86000130870042300106CC
:101628000319172B182B232B5C08043E8600013066
:10163800870062300106031D222B232B272B013044
:101648002200C9006D2C5C08043E8600013087002A
:10165800433001060319312B322B3D2B5C08043E25
:1016680086000130870063300106031D3C2B3D2BAB
:10167800412B02302200C9006D2C5C08043E860014
:10168800013087005330010603194B2B4C2B572B85
:101698005C08043E86000130870073300106031D94
:1016A800562B572B652C07305D06031D5C2B5D2BD5
:1016B800BA2B0230C900A830CA0022005B08A0007B
:1016C800A10120082100CB00220021082100CC0024
:1016D80022005A08A200A30122082100CD002200FE
:1016E80023082100CE0022005C08A400A5012408DC
:1016F8002100CF00220025082100D00022005D082B
:101708002100D100D201D11BD20322005E08A6001D
:10171800A70126082100D300220027082100D400B1
:1017280022006008A800A9015F08AA00AB012A08E6
:10173800AB00AA0128082A042100D50022002908A4
:101748002B042100D60022006108AD00AE012D084F
:101758002100D70022002E082100D8001E30D90011
:101768000030DA00A03173208A315C2C0D305D0620
:10177800031DBF2BC02B542C5C08053E860001308E
:10178800870001082200DC0021005C08063E860074
:101798000130870001082200DD0021005C08073EB7
:1017A80086000130870001082200DE0021005C0865
:1017B800083E86000130870001082200DF00210072
:1017C8005C08093E86000130870001082200E0001D
:1017D80021005C080A3E8600013087000108031DCD
:1017E800F62BF82B0130F92B00302200E1000030F5
:1017F800C7007030C8000030F0007030F1005C089D
:10180800F200A031EC208A3101302200C7070030F5
:10181800C83D4808F1004708F0005D08F200A03113
:10182800EC208A3101302200C7070030C83D480843
:10183800F1004708F0005E08F200A031EC208A3180
:1018480001302200C7070030C83D4808F1004708AA
:10185800F0005F08F200A031EC208A31013022004C
:10186800C7070030C83D4808F1004708F000600885
:10187800F200A031EC208A3101302200C707003085
:10188800C83D4808F1004708F0006108F200A0319F
:10189800EC208A3101302200C7070030C83D5C2C9B
:1018A8000030C900B030CA00A03173208A31FF2F40
:1018B8000A302100C900B030CA00A03173208A3133
:1018C800FF2F0030C900B030CA00A03173208A3120
:1018D800FF2F073021005D06031D732C742C0A2D81
:1018E8002530C900A830CA005C08043E86000130D3
:1018F800870001082200A000A10120082100CB00D8
:10190800220021082100CC0022004908A20003304F
:10191800A235890B8C2C220821005E072200A30027
:101928002308073E8600013087000108A400A501AE
:1019380024082100CD00220025082100CE00220025
:101948004908A6000330A635890BA72C21005E089C
:10195800220026078600013087000108A700A80199
:1019680027082100CF00220028082100D0002200EB
:101978004908A9000330A935890BBF2C2908210083
:101988005E072200AA002A0A860001308700403F2D
:101998002100D100413FD20022004908AB000330AA
:1019A800AB35890BD42C2B0821005E072200AC0034
:1019B8002C08033E8600013087000108AD00AE0107
:1019C8002D082100D30022002E082100D400220077
:1019D8004908AF000330AF35890BEF2C2F082100E1
:1019E8005E072200B0003008053E860001308700FF
:1019F8000108B100B20131082100D50022003208E7
:101A08002100D600A03173208A31F72F0B305D06F4
:101A1800031D0F2D102DEF2F22004908A0000330C1
:101A2800A035890B142D200821005E072200A10093
:101A38002108073E86000130870021005C08053E2A
:101A48008400013085000008031D2B2D2D2D013049
:101A58002E2D003081005C08063E84000130850090
:101A680000082200A00021005C08073E8400013025
:101A7800850022004908A1000330A135890B412DBA
:101A8800210821005E072200A200220A86000130F8
:101A980087000008C03F2008C13F4908A000033064
:101AA800A035890B542D200821005E072200A100D3
:101AB800210A8600013087001600BA3AA2001600F3
:101AC800273AA2040319692D6A2D0E2E4908A00091
:101AD8000330A035890B6D2D200821005E072200F8
:101AE800A100210A8600013087001600B63AA2003C
:101AF8001600273AA2040319822D832D0E2E4908B9
:101B0800A0000330A035890B862D200821005E0730
:101B18002200A100210A8600013087001600E13A60
:101B2800A2001600273AA20403199B2D9C2D052E0E
:101B38004908A0000330A035890B9F2D20082100FB
:101B48005E072200A100210A8600013087001600E6
:101B5800043AA2001600283AA2040319B42DB52DA0
:101B6800FC2D4908A0000330A035890BB82D2008AA
:101B780021005E072200A100210A860001308700AB
:101B88001600443AA2001600413AA2040319CD2DCA
:101B9800CE2DF32D4908A0000330A035890BD12D97
:101BA800200821005E072200A100210A86000130DA
:101BB80087001600493AA2001600283AA204031921
:101BC800E62DE72DEA2DBB01BC01EE2D5730BB00F9
:101BD8000030BC003C08BA003B08B900F72D99302A
:101BE800B9000030BA003A08B8003908B700002E2A
:101BF8009730B7000030B8003808B6003708B5008D
:101C0800092E9630B5000030B6003608B400350805
:101C1800B300122E9530B3000030B4004908A0007C
:101C28000330A035890B152E21005E0822002007FD
:101C3800860001308700330881004908A00003307E
:101C4800A035890B242E200821005E072200A10060
:101C58002108053E8600013087004908A2000330AC
:101C6800A235890B342E220821005E072200A3002A
:101C78002308053E8400013085000F300005A400CC
:101C880021005C08083E84000130850000080F39F7
:101C98002200A5000430A535890B4F2E2508240401
:101CA80081004908A0000330A035890B582E200870
:101CB80021005E072200A100210A8600013087006A
:101CC8001600BA3AA2001600273AA20403196D2E8C
:101CD8006E2E122F4908A0000330A035890B712EF3
:101CE800200821005E072200A100210A8600013099
:101CF80087001600B63AA2001600273AA204031974
:101D0800862E872E122F4908A0000330A035890B94
:101D18008A2E200821005E072200A100210A8600E1
:101D2800013087001600E13AA2001600273AA20403
:101D380003199F2EA02E092F4908A0000330A035B3
:101D4800890BA32E200821005E072200A100210A8A
:101D58008600013087001600043AA2001600283ACF
:101D6800A2040319B82EB92E002F4908A000033089
:101D7800A035890BBC2E200821005E072200A10097
:101D8800210A8600013087001600443AA200160096
:101D9800413AA2040319D12ED22EF72E4908A000E9
:101DA8000330A035890BD52E200821005E072200BC
:101DB800A100210A8600013087001600493AA200D6
:101DC8001600283AA2040319EA2EEB2EEE2EC501BE
:101DD800C601F22E1930C5000030C6004608C400FE
:101DE8004508C300FB2E2330C3000030C40044085C
:101DF800C2004308C100042F2330C1000030C200D4
:101E08004208C0004108BF000D2F1430BF00003049
:101E1800C0004008BE003F08BD00162F1430BD00AA
:101E28000030BE004908A0000330A035890B192FE7
:101E3800200821005E072200A1002108033E860039
:101E4800013087003D0881004908A000A101A00ECB
:101E5800A10EF030A10520080F39A104F030A0052B
:101E68002008103EC7007030213DC8004808F10026
:101E78004708F0004908A0000330A035890B412F1E
:101E8800200821005E072200A100210886000130F9
:101E980087000130473FF200A031EC208A31013041
:101EA8002200C7070030C83D4808F1004708F00085
:101EB8004908A0000330A035890B5F2F21005E0878
:101EC800220020078600013087000108F200A031B7
:101ED800EC208A3101302200C7070030C83D48088D
:101EE800F1004708F0004908A0000330A035890B2D
:101EF8007A2F200821005E072200A100210A86000F
:101F080001308700403FA200413FA3002308F200B0
:101F1800A031EC208A3101302200C7070030C83DCB
:101F28004808F1004708F0004908A0000330A03530
:101F3800890B9B2F200821005E072200A1002108A1
:101F48008600013087000130413FF200A031EC20CB
:101F58008A3101302200C7070030C83D4808F10027
:101F68004708F0004908A0000330A035890BB92FB5
:101F7800200821005E072200A10021088600013008
:101F880087000130433FF200A031EC208A31013054
:101F98002200C7070030C83D4808F1004708F00094
:101FA8004908A0000330A035890BD72F200821004D
:101FB8005E072200A1002108860001308700013059
:101FC800453FF200A031EC208A3101302200C707DA
:101FD8000030C83DF72F0030C900B030CA00A0312A
:101FE80073208A31FF2F0A302100C900B030CA009F
:101FF800A03173208A3108000030FB000030FA005D
:102008000030F9000030F800701C0B280C28142848
:102018007408F8077508F93D7608FA3D7708FB3D1E
:102028000130F435F50DF60DF70D890B1528013043
:10203800F336F20CF10CF00C890B1C2873087204AF
:1020480071047004031D29282A2808287B08F30036
:102058007A08F2007908F1007808F00008000030EA
:102068002000A7000030A6000030A5000030A40022
:102078000130A300E830A2004830A1000030A000E1
:102088007A08B0007B08B1007C08B2007D08B30074
:102098000030B31BFF30B400B500B600B7001330F2
:1020A8002000B035B10DB20DB30DB40DB50DB60DA0
:1020B800B70D890B542820003708AF003608AE004A
:1020C8003508AD003408AC003308AB003208AA006C
:1020D8003108A9003008A800A631DF269031200079
:1020E8002008B8002108B9002208BA002308BB005C
:1020F8002408BC002508BD002608BE002708BF002C
:102108003830860000308700403FB000413FB100C2
:10211800423FB200433FB300443FB400453FB500DF
:10212800463FB600473FB70010302000B736B60C20
:10213800B50CB40CB30CB20CB10CB00C890B9928CB
:1021480020003008F5000630AF317E279031383056
:10215800860000308700403F2000B000413FB100BA
:10216800423FB200433FB300443FB400453FB5008F
:10217800463FB600473FB70008302000B736B60CD8
:10218800B50CB40CB30CB20CB10CB00C890BC12853
:1021980020003008F5000730AF317E27903120004D
:1021A8003808F5000830AF317E279031080020004C
:1021B8003D088039CA003D35CC00BC1FE428E5281D
:1021C800E6284C144C080319EA28EB28FB284C0A8B
:1021D800031DEF28F028F8280030BD000030BC00AF
:1021E8000030BB000030BA00BC17BD010329003025
:1021F800BD000030BC000030BB000030BA00410810
:102208008039CB004B084A0603190B290C290D29E4
:102218004A174135CB00C01F1229132914294B1422
:102228004B0803191829192929294B0A031D1D29A7
:102238001E2926290030C1000030C0000030BF0030
:102248000030BE00C017C10131290030C100003084
:10225800C0000030BF000030BE004C084B0203181D
:10226800362937295B294A1F3A293B293D298030DD
:10227800CA064C08CD004B08CC004D08CB003A08E4
:10228800CD003E08BA004D08BE003B08CD003F080F
:10229800BB004D08BF003C08CD004008BC004D08FD
:1022A800C0003D08CD004108BD004D08C100CD016A
:1022B8004B08C200C3014308C5004C084202C400D1
:1022C800031CC5034508803AC60080304602031D3A
:1022D8006F291A304402031C72297329A929200086
:1022E8003D083C043B043A04031D7B297D29013049
:1022F8007E290030CD000030BD000030BC00003029
:10230800BB000030BA004B08CC00B0294D1C8D2909
:102318008E2998294D08C2000130C236890B9129AF
:1023280042080138CD009A290310CD0C3A1C9D298A
:102338009E299F29CD170130C200BD37BC0CBB0CAC
:10234800BA0CC20BA1290130CC0720004B084C0263
:10235800031CAF29B0298A294A1BB329B429EE29BD
:102368004C08031DB829B929C2290030BD00003026
:10237800BC000030BB000030BA00E62A3E08BA07AD
:102388003F08BB3D4008BC3D4108BD3D3D1CCD2933
:10239800CE29782A4D1CD129D229DC294D08C20022
:1023A8000130C236890BD52942080138CD00DE2913
:1023B8000310CD0C3A1CE129E229E329CD1701309D
:1023C800C200BD37BC0CBB0CBA0CC20BE5290130EE
:1023D800CC07782A3D08803AC2004108803A420278
:1023E800031D002A40083C02031D002A3F083B0247
:1023F800031D002A3E083A020318032A042A392A30
:10240800FF30C200FF30C300FF30C400FF30C500FA
:102418003A083E02C6003B083F3BC7003C08403B29
:10242800C8003D08413BC9004608C2074708C33DEC
:102438004808C43D4908C53D4508BD004408BC00DE
:102448004308BB004208BA008030CA064D03FF3A71
:10245800CD004D08031D312A322A412A0130BA071E
:102468000030BB3DBC3DBD3D412A3E08BA023F0895
:10247800BB3B4008BC3B4108BD3B3D083C043B041A
:102488003A04031D482A492A742A4D08031D4D2A77
:102498004E2A742A0030BD000030BC000030BB005A
:1024A8000030BA00E62A0130BA35BB0DBC0DBD0DAF
:1024B800890B582ACD1F612A622A632A3A144D1CB7
:1024C800662A672A6B2A03144D0DCD006D2A031066
:1024D800CD0D4C080319712A722A742A0130CC02D6
:1024E800BC1F772A782A572ACB01CD1F7C2A7D2A40
:1024F8008B2A4D087F390319822A832A862A0130BC
:10250800CB008B2A3A1C892A8A2A8B2A832A4B08D1
:1025180003198F2A902AB92A0130BA070030BB3D27
:10252800BC3DBD3D3D1C992A9A2AB92A3A08C200E9
:102538003B08C3003C08C4003D08C5000130C60084
:10254800C537C40CC30CC20CC60BA42A4508BD0071
:102558004408BC004308BB004208BA004C0A0319EF
:10256800B62AB72AB92A0130CC074C0A0319BD2A62
:10257800BE2AC32A4C08031DC22AC32AD12A003006
:10258800BD000030BC000030BB000030BA004C0871
:10259800031DCF2AD02AD12ACA014C1CD42AD52AF5
:1025A800D72ABC17D92A7F30BC054C08C200013095
:1025B800C236890BDC2A4208BD00CA1FE42AE52A74
:1025C800E62ABD1708002100C8000030BE00003010
:1025D800BD000030BC000030BB000030C700003038
:1025E800C6000030C5000030C400112B6F08031965
:1025F800FE2AFF2A022B15309D001F2B31309D002B
:102608001F2B39309D001F2B09309D001F2BFF30D9
:102618002000E800FF30E900F82C4808003A0319C8
:10262800FA2A013A0319022B033A0319052B093A2E
:102638000319082B0B2B20000C1282302000EA0013
:10264800DD30890B252BEA0B252B00322100C10137
:102658009D149D18302B312B2D2B1C082000EA00CF
:10266800EB016A082100BF0020006B082100C000B0
:102678001B082000EA00EB0121003F082000ED00C4
:10268800EC016A086C04EE006B086D04EF006E083C
:102698002100BF0020006F082100C0003F08BB07D1
:1026A8004008BC3D0030BD3DBE3D0130C1071E3075
:1026B8004102031C602B612B2C2B1D1020000C16D3
:1026C8000030F3000030F2000030F1001E30F0005E
:1026D80021003E08F7003D08F6003C08F5003B08DD
:1026E800F400A5317325923171082100C3007008E8
:1026F800C20048080319812B822B872B4803031D2E
:10270800862B872BAF2B4208F0004308F100F2011B
:10271800F301003098317420923173082000D900F9
:102728007208D8007108D7007008D6009C312C2494
:10273800923120005908E1005808E0005708DF00EE
:102748005608DE0098310520923120005F08E90024
:102758005E08E800F82C02304806031DB42BB52BA0
:10276800512CBF302000BD00D930BC009930BB00CF
:102778009A30BA003D30A3009F30A2006130A1001A
:10278800D330A00021004208F0004308F100F20114
:10279800F301003098317420923173082000A700AB
:1027A8007208A6007108A5007008A40088319A2054
:1027B800923120002308C1002208C0002108BF0070
:1027C8002008BE009031DB20923120003D08210016
:1027D800BA0020003C082100B90020003B08210075
:1027E800B80020003A082100B70022005D08200048
:1027F800EA00EB01EA1BEB036A08F0006B08F10042
:10280800890D893B8909F200F30001309831742061
:10281800923173082000BD007208BC007108BB002B
:102828007008BA0021003A082000C10021003908C8
:102838002000C000210038082000BF002100370810
:102848002000BE009031DB20923120003D0821009D
:10285800C70020003C082100C60020003B082100DA
:10286800C50020003A082100C4004708F3004608C4
:10287800F2004508F1004408F0000030F70000308D
:10288800F6000030F5000030F40088311020923155
:1028980003184F2C502CD42C0B2B0B304806031D3F
:1028A800562C572CD42CC4302000BD000B30BC0053
:1028B8004630BB006630BA003F30A3008930A20022
:1028C800A330A1006E30A00021004208F0004308A8
:1028D800F100F201F301003098317420923173084D
:1028E8002000A7007208A6007108A5007008A400BF
:1028F80088319A20923120002308C1002208C000A4
:102908002108BF002008BE009031DB209231200052
:102918003D082100C70020003C082100C600200017
:102928003B082100C50020003A082100C4004708E0
:10293800F3004608F2004508F1004408F0000030B2
:10294800F7000030F6000030F5000030F400883160
:10295800102092310318B12CB22CB62C2000E801BB
:10296800E901F82C4230F300C830F2000030F100E1
:102978000030F00021004708F7004608F600450837
:10298800F5004408F4008831102092310318CD2C4A
:10299800CE2CD42C64302000E8000030E900F82C5C
:1029A800210047082000D900210046082000D8004F
:1029B800210045082000D700210044082000D60047
:1029C8009C312C24923120005908E1005808E0007D
:1029D8005708DF005608DE009831052092312000A4
:1029E8005F08E9005E08E80008000130F000803068
:1029F800F100AF31E52794310F392100E2000030B2
:102A0800F0008030F100AF31E52794312100E30078
:102A18000430E335890B0D2D630862042200DB00C6
:102A28000330F0008030F100AF31E52794310F39E1
:102A38002100E2000230F0008030F100AF31E527DC
:102A480094312100E3000430E335890B282D630815
:102A580062042200DA00A0310620943125302100DA
:102A6800970022005A0A031D3A2D3B2D442D5B0A7C
:102A7800031D3F2D402D442D00309E3104269431F6
:102A8800D630F0000030F100F2000630F3000030DC
:102A9800F400A0319E209431BE30F0000030F100E7
:102AA800F2001830F3000030F400A0319E20943179
:102AB80000302100E8007030E9000030F00070308C
:102AC800F100AF31E52794312200DC00013021000C
:102AD800E8070030E93D6908F1006808F000AF3107
:102AE800E52794312200DD0001302100E80700309D
:102AF800E93D6908F1006808F000AF31E527943135
:102B08002200DE0001302100E8070030E93D6908B5
:102B1800F1006808F000AF31E52794312200DF00AA
:102B280001302100E8070030E93D6908F100680834
:102B3800F000AF31E52794312200E0000130210098
:102B4800E8070030E93D6908F1006808F000AF3196
:102B5800E5279431003A031DB22DB42D0130B52D6F
:102B680000302200E10001302100E8070030E93D93
:102B7800EA016A08E200E301E20EE30EF030E30541
:102B880062080F39E304F030E2056208103EE800FD
:102B98007030633DE9006A08E2000330E235890BD2
:102BA800D22D6208C53E8600013087006908F10011
:102BB8006808F000AF31E5279431003A031DE52D90
:102BC800E72D0130E82D0030810001302100E807B1
:102BD8000030E93D6A08E2000330E235890BF12D47
:102BE8006208BE3E8600013087006908F100680867
:102BF800F000AF31E5279431810001302100E8076A
:102C08000030E93D6908F1006808F000AF31E527B8
:102C180094312100E200E3016208E300E2016A085E
:102C2800E5000330E535890B162E6508BF3E8600A2
:102C3800013087006208C03F6308C13F0130E807E0
:102C48000030E93D6908F1006808F000AF31E52778
:102C580094312100E200E3016A08E4000330E4351E
:102C6800890B332E6408BF3E860001308700620856
:102C780081044131630881040130E8070030E93DEF
:102C88006A08E2000330E235890B472E6208C13E2C
:102C98008600013087006908F1006808F000AF314C
:102CA800E5279431810401302100E8070030E93D2F
:102CB8006A08E2000330E235890B5F2E6208C33EE2
:102CC8008600013087006908F1006808F000AF311C
:102CD800E5279431810001302100E8070030E93D03
:102CE8000130EA0703306A02031C7B2E7C2EBD2DBF
:102CF800A131672194318030220060062530031904
:102D08005F06031D882E892E8D2E673023009B00B9
:102D1800A82EC0306006123003195F06031D952ED9
:102D2800962E9A2ECF3023009B00A82E6030600686
:102D3800093003195F06031DA22EA32EA82EA0306A
:102D480023009B0001309C00A2312E229431003ACE
:102D58000319AF2EB02EB62EBE302100DF00A731EA
:102D6800612794310030A4312624943122005E0872
:102D7800A131C7219431A03139209431A2317F2269
:102D8800943182302100E200DD30890BC92EE20B3C
:102D9800C92E00328B170B17A0314B2094310B3002
:102DA8009231E7229431200068082100E600EA0108
:102DB8006A08E2000330E235890BDF2E6208C53E5F
:102DC8008600013087000108031DEB2EEC2EED2E46
:102DD800E82FE7016A080319F22EF32EF82E6A038A
:102DE800031DF72EF82E4D2F6A08E2000330E23556
:102DF800890BFB2E6208BE3EC9006A35D63ECA0062
:102E08006A089231E7229431200069082100CC0039
:102E1800200068082100CB006E08CD0099311821E8
:102E280094312100E700E71B1A2F1B2FA72F6A35C3
:102E3800D73E8600013087006A35D63E84000130CF
:102E480085000008010603192A2F2B2FA72F210020
:102E58006A08E2000330E235890B2F2F6208C23E70
:102E68008600013087006A35D63E8400013085002F
:102E7800000881006A35D73E8600013087006A3530
:102E8800D63E840001308500000881000130ED0045
:102E9800A72F02306A06031D522F532FA72F6A0847
:102EA800E2000330E235890B562F6208BE3EC900A6
:102EB8006A35D63ECA006A089231E722943120006A
:102EC80069082100CC00200068082100CB006E08AA
:102ED800CD009931182194312100E700E71B752FA7
:102EE800762FA72F6A35D73E8600013087006A35CE
:102EF800D63E84000130850001080002F600F70183
:102F0800031CF703801F892FF703811F8C2FF70AF3
:102F1800A0311620943121006A08E2000330E2351E
:102F2800890B932F6208C13E86000130870077081D
:102F3800803A803C031DA22F760801020318A52FB2
:102F4800A62FA72F2B2F21006A08E2000330E235B5
:102F5800890BAB2F6208BE3EF0006608F1006708D7
:102F6800F200A6318226943121006D030319BD2F8A
:102F7800BE2FC32F6E03031DC22FC32FE82FED01F1
:102F88006A08E2000330E235890BC72F6208BE3EAB
:102F98002000B600210066082000B700A131E92111
:102FA8009431220061080319DA2FDB2FE82F200063
:102FB8008C1468302100E200E430890BE12FE20B29
:102FC800E12F000020008C1001302100EA070330B7
:102FD8006A02031CF02FF12FDC2EEE01ED01320006
:102FE80018139813033023009700AF31F127943159
:082FF8006300D02E8031112886
:1030040024009512080003102000600D610DE700F4
:103014006708031D0E280F2818280030E10000302F
:10302400E0000030DF000030DE0073285E08E200BC
:103034005F08E3006008E4006108E5001F30E5363E
:10304400E40CE30CE20C890B21286208E600E0178B
:10305400FF30DE05FF30DF05FF30E0050030E1051D
:103064009630E702E71F372838284E286708803A49
:10307400973E03183E283F2840280F280130E136A8
:10308400E00CDF0CDE0C890B41280130E707031D3F
:103094004C284D284028632820306702031C5328FD
:1030A40054285E280F280130DE35DF0DE00DE10DD8
:1030B400890B56280130E7026708031D622863283C
:1030C400552866080319672868287328DE09DF096C
:1030D400E009E109DE0A0319DF0A0319E00A03190A
:1030E400E10A0800F8007808031979287A288E285C
:1030F400F31F7D287E288E287009FA007109FB00D1
:103104007209FC007309FD00FA0A0319FB0A03198A
:10311400FC0A0319FD0A96287308FD007208FC00D6
:103124007108FB007008FA007308720471047004DB
:10313400031D9D289E28A7280030F3000030F200CC
:103144000030F1000030F00017299630F900B32860
:103154000130F9070130FD36FC0CFB0CFA0C890B2D
:10316400AD28FE307D05031DB828B928AA28C92832
:103174000130F9070130FA070030FB3DFC3DFD3D0D
:103184000130FD36FC0CFB0CFA0C890BC328FF3014
:103194007D05031DCE28CF28BA28D9280130F9028D
:1031A4000130FA35FB0DFC0DFD0D890BD328FC1BFA
:1031B400DC28DD28E328023079020318E228E3281A
:1031C400D0287918E628E728EF28FF30FA05FF30E1
:1031D400FB057F30FC05FF30FD050310F90C790871
:1031E400F400F501F601F7011830F435F50DF60D8C
:1031F400F70D890BF7287408FA047508FB047608A0
:10320400FC047708FD047808031909290A290F2901
:10321400F31F0D290E290F29FD177D08F3007C08E3
:10322400F2007B08F1007A08F00008002100490848
:1032340086000130870095300106031922292329CD
:103244002E29490886000130870096300106031DA7
:103254002C292E2985310D2D6F0803193229342983
:103264008131F6290330CF0022005C08FF3C2100A5
:10327400CE00031CCF034C08803AD0004F08803A9C
:103284005002031D47294E084B02031C4A294B29AF
:10329400552921004A0886000130870064308100E6
:1032A4000130EF00322903302100CF0022005C08F6
:1032B4009A3C2100CE00031CCF034C08803AD00076
:1032C4004F08803A5002031D69294E084B02031C23
:1032D4006C296D29A72922005C089A3E2100CE00A2
:1032E400033003180430CF004F08803AD0004C0854
:1032F400803A5002031D80294B084E02031C832987
:103304008429A72921004A0A8600013087006430F5
:10331400010603198E298F299D294A0A8600013046
:10332400870001080319972998299D294D03031D36
:103334009C299D29A4294A088600013087005F3012
:1033440081005229FF308731FD2F03302100CF0047
:1033540022005C08333C2100CE00031CCF034C0840
:10336400803AD0004F08803A5002031DBB294E0812
:103374004B02031CBE29BF29F62922005C08333EF8
:103384002100CE00033003180430CF004F08803AE8
:10339400D0004C08803A5002031DD2294B084E023B
:1033A400031CD529D629F62921004A0A86000130B2
:1033B40087005F3001060319E029E129EF294A0A51
:1033C40086000130870001080319E929EA29EF2959
:1033D4004D03031DEE29EF29A4294A088600013074
:1033E40087005A308100522902302100CF00220088
:1033F4005C08CD3C2100CE00031CCF034C08803A6E
:10340400D0004F08803A5002031D0A2A4E084B028E
:10341400031C0D2A0E2A452A22005C08CD3E2100F9
:10342400CE00023003180330CF004F08803AD0009A
:103434004C08803A5002031D212A4B084E02031CFB
:10344400242A252A452A21004A0A860001308700B9
:103454005A30010603192F2A302A3E2A4A0A8600C6
:103464000130870001080319382A392A3E2A4D03FE
:10347400031D3D2A3E2AA4294A08860001308700FC
:1034840055308100522902302100CF0022005C080F
:10349400663C2100CE00031CCF034C08803AD000C8
:1034A4004F08803A5002031D592A4E084B02031C50
:1034B4005C2A5E2A80313B2822005C08663E21009B
:1034C400CE00023003180330CF004F08803AD000FA
:1034D4004C08803A5002031D712A4B084E02031C0B
:1034E400742A752A5C2A21004A0A86000130870062
:1034F4005530010603197F2A802A8E2A4A0A86003B
:103504000130870001080319882A892A8E2A4D036D
:10351400031D8D2A8E2AA4294A08860001308700BB
:103524005030810052292000220886008701403F44
:10353400A400413FA500240884002508850012004A
:10354400253A031DA62AA72A112C220886008701E2
:103554000130810741310318810A2300B601B70104
:1035640000302200E800FF302300B800FF30B9002B
:103574002000220886008701403FA400413FA500A7
:1035840024088400250885001200633A031DCB2A11
:10359400CC2AED2A220886008701013081074131B7
:1035A4000318810A23088600870101088400850125
:1035B400023081070008B0003008A400A5012408E7
:1035C400F2002508F3002108F5002008F400A631D4
:1035D40026269A312B2C220886008701403FAA0018
:1035E400413FAB002A0884002B0885001200643A8E
:1035F4000319FD2AFE2A082B2A0884002B088500BB
:103604001200693A031D072B082B932B230886000D
:10361400870101088400850102308107003FAC0066
:10362400013FAD002A08013EA40000302B3DA50057
:103634002208860087012408C03F2508C13F2030A6
:10364400B000AD1B262B282B0130292B0030A800FD
:103654000130B0023008203E8600023087000A3074
:10366400F0000030F1002D08F3002C08F200A43122
:1036740076249A317108F7007008F600A0311620FC
:103684009A317608303E81000A30F0000030F100B3
:1036940020002D08F3002C08F200A531CB259A3127
:1036A40071082000AD007008AC002C082D0403192B
:1036B4005C2B5D2B622B3008031D612B622B2A2BA4
:1036C40030080319662B672B8C2B280803196B2BE6
:1036D4006C2B8C2B0130B0023008203E8600023067
:1036E40087002D3081008C2B3008203E860002306C
:1036F40087000108A400A5012408F2002508F300AE
:103704002108F5002008F400A63126269A3101305C
:103714002000B00720303006031D912B922B762B0E
:103724002B2C2A0884002B0885001200783A031DEC
:103734009C2B9D2B072C23088600870101088400FD
:10374400850102308107003FAC00013FAD002A082B
:10375400013EA40000302B3DA5002208860087010D
:103764002408C03F2508C13FFE2B2030B0002C08A0
:103774000F39A9000A3029020318C12BC22BC52B0B
:103784003030A907C72B5730A9070130B0023008E1
:10379400203E860002308700290881000430AD36BF
:1037A400AC0C890BD12B2C082D040319DA2BDB2B41
:1037B400F72B3008031DDF2BE02BB92BF72B300838
:1037C400203E8600023087000108A400A5012408D9
:1037D400F2002508F3002108F5002008F400A631C2
:1037E40026269A3101302000B00720303006031D10
:1037F400FC2BFD2BE12B2B2C2A0884002B088500A5
:103804000008783A0319B72B072C200022088600F9
:1038140087010130810741310318810A2B2C2208CA
:1038240086008701403FA400413FA500240884008E
:10383400250885000008A600A7012608F20027082D
:10384400F3002108F5002008F400A63126269A3159
:10385400072C0800230035082100AD00230034089C
:103864002100AC00230033082100AB002300320800
:103874002100AA00200059082100AD0020005808AA
:103884002100AC00200057082100AB00200056089E
:103894002100AA002A082000DA0021002B082000B9
:1038A400DB0021002C082000DC0021002D08200072
:1038B400DD001730DD36DC0CDB0CDA0C890B5C2CFC
:1038C400FF305A052100A800003020005B052100CC
:1038D400A9002908803A2000DA0080305A02031D2A
:1038E400762C963021002802031C792C7A2C7B2C10
:1038F400032E2100AD1B7F2C812C0130822C003043
:10390400B20032080319872C882C9D2C20005908FA
:10391400F3005808F2005708F1005608F000AF31E0
:10392400DA279C3173082000D9007208D800710886
:10393400D7007008D60021002908803A2000DA0058
:1039440080305A02031DA92C7E302100280203185E
:10395400AC2CAD2CB72C00302000D9000030D8009E
:103964000030D7000030D600032E4B302000BD00BD
:103974000030BC000030BB000030BA005908C10060
:103984005808C0005708BF005608BE009031DB201D
:103994009C3120003D082100B10020003C0821009A
:1039A400B00020003B082100AF0020003A082100AD
:1039B400AE00CB302000BD000030BC000030BB00A6
:1039C4000030BA00210031082000C1002100300875
:1039D4002000C00021002F082000BF0021002E0875
:1039E4002000BE009031DB209C3120003D082100E6
:1039F400A30020003C082100A20020003B08210075
:103A0400A10020003A082100A00020005908D1009C
:103A14005808D0005708CF005608CE0021002308CC
:103A24002000D500210022082000D4002100210814
:103A34002000D300210020082000D200A131A721BA
:103A44009C31200051082100B600200050082100BC
:103A5400B50020004F082100B40020004E082100CA
:103A6400B3000030A7000030A6000030A5000030ED
:103A7400A4003F30F3000030F2000030F1000030C9
:103A8400F0003608F7003508F6003408F50033086E
:103A9400F400883110209C310318512D522D5C2DD7
:103AA400BF302100A7008030A6000030A500003000
:103AB400A4007D2DBF30F3000030F2000030F1008F
:103AC4000030F00021003608F7003508F60034080D
:103AD400F5003308F400883110209C31031C732D49
:103AE400742D7D2D3F302100A7008030A6000030CA
:103AF400A5000030A40020005908BD005808BC00EF
:103B04005708BB005608BA00210036082000C1003F
:103B1400210035082000C000210034082000BF0027
:103B2400210033082000BE009031DB209C312000AE
:103B34003D082100B10020003C082100B000200015
:103B44003B082100AF0020003A082100AE002708FE
:103B54002000BD00210026082000BC00210025080B
:103B64002000BB00210024082000BA0021003108F5
:103B74002000C100210030082000C00021002F08CF
:103B84002000BF0021002E082000BE009031DB2061
:103B94009C3120003D082100B60020003C08210093
:103BA400B50020003B082100B40020003A082100A1
:103BB400B30032080319DF2DE02DF42D3608F3008D
:103BC4003508F2003408F1003308F000AF31DA2789
:103BD4009C3173082100B6007208B5007108B40066
:103BE4007008B30036082000D900210035082000F1
:103BF400D800210034082000D70021003308200019
:103C0400D60008002000A7002708031D0A2E0B2E4B
:103C14008B2E0030F000F100A031D1209E317108CC
:103C2400F5007008F400AF31A4279E31A33153236B
:103C34009E317D082000B5007C08B40020008C1D56
:103C4400242E252E692E0030F0008030F100350836
:103C5400A5003408A4000C30A600250DA50CA40C66
:103C6400A60B2F2E24080F39F200A031EC209E3130
:103C74000130F0008030F100200035080F39F200E7
:103C8400A031EC209E310230F0008030F1002000A1
:103C94003508A5003408A4000430A600250DA50CA1
:103CA400A40CA60B502E24080F39F200A031EC20EE
:103CB4009E310330F0008030F100200034080F39C9
:103CC400F200A031EC209E3120008C108B2EA33109
:103CD40053239E317D082000B5007C08B4000310F6
:103CE4008C1C03140318772E7A2E20008C147C2E3F
:103CF40020008C10640002302000A5000430A400D1
:103D0400BA30890B832EA40B832EA50B832E0000BF
:103D1400202E0030B6007030B7000030F000703054
:103D2400F1002830F200A031EC209E310130200057
:103D3400B6070030B73D3708F1003608F000F2014D
:103D4400A031EC209E3101302000B6070030B73D91
:103D54003708F1003608F0001130F200A031EC20F1
:103D64009E3101302000B6070030B73D3708F1001E
:103D74003608F0002530F200A031EC209E310130ED
:103D84002000B6070030B73D3708F1003608F000D0
:103D94008030F200A031EC209E3101302000B607C3
:103DA4000030B73D3708F1003608F000F201F20A9E
:103DB400A031EC209E3101302000B6070030B73D21
:103DC4001030B6007030B7001030F0007030F100E1
:103DD400F201F20AA031EC209E3101302000B60736
:103DE4000030B73D3708F1003608F0009530F20096
:103DF400A031EC209E3101302000B6070030B73DE1
:103E04003708F1003608F0002730F200A031EC202A
:103E14009E3101302000B6070030B73D3708F1006D
:103E24003608F000BA30F200A031EC209E310130A7
:103E34002000B6070030B73D3708F1003608F0001F
:103E44001430F200A031EC209E3101302000B6077E
:103E54000030B73D3708F1003608F000F201A03118
:103E6400EC209E3101302000B6070030B73D2030F1
:103E7400B6007030B7002030F0007030F100F2016D
:103E8400F20AA031EC209E3101302000B607003048
:103E9400B73D9730AC000030AD002D08AB002C08C6
:103EA400AA002B08A9002A08A8003708F100360840
:103EB400F0002808F200A031EC209E3101302000EF
:103EC400B6070030B73D3708F1003608F000283057
:103ED400F200A031EC209E3101302000B607003002
:103EE400B73D3708F1003608F0000430F200A03185
:103EF400EC209E3101302000B6070030B73D23305E
:103F0400B2000030B3003308B1003208B000310809
:103F1400AF003008AE003708F1003608F0002E0874
:103F2400F200A031EC209E3101302000B6070030B1
:103F3400B73D3708F1003608F000F201F20AA0316B
:103F4400EC209E3101302000B6070030B73D303000
:103F5400B6007030B7003030F0007030F100F2017C
:103F6400F20AA031EC209E3101302000B607003067
:103F7400B73D3708F1003608F0009430F200A03164
:103F8400EC209E3101302000B6070030B73D3708E1
:103F9400F1003608F000F201A031EC209E3101302E
:103FA4002000B6070030B73D3708F1003608F000AE
:103FB400F201A031EC209E3101302000B607003020
:103FC400B73D3708F1003608F0000430F200A031A4
:103FD400EC209E3101302000B6070030B73D370891
:103FE400F1003608F000F201A031EC209E310130DE
:103FF4002000B6070030B73D63000800640080016C
:104004000131890B01280034AF317627A031A0316A
:104014005E20A031A3311923A031AF318727A0310D
:10402400C03021009E000800F71B19281A281B28FD
:1040340026287609F8007709F900F80A0319F90A1D
:104044007808F6007908F7000800F200AF31452738
:10405400A0317208AF31AE27A0317108AF31AE275D
:10406400A031F300AF314227A03173080800F501F5
:104074002030AF317E27A0311430F5002130AF312C
:104084007E27A0313530F5003930AF317E27A0319D
:1040940008002000031A4F2850285328013021001B
:1040A400EC07553021006C02031C59285A285D285E
:1040B4000130EE00EC01080010303C00A00011308B
:1040C400A10018303D00A0001930A20040302400A7
:1040D400940021309500920121000E1024009512C5
:1040E4000800CB302100DB0000302000B100B2001A
:1040F40021004A082000B400210049082000B30030
:10410400DB30B500A1314821A031080091281A30D4
:10411400FA00F830890B8C28FA0B8C280032003016
:10412400F800F900A2315522A03178087904031966
:104134009C289D28892808007008F500A92875087E
:10414400860001308700710881000130F5070130D5
:10415400F3020030F43B730A031DB428740A031DF0
:10416400B428B528A1280800A0318820A031FD0179
:10417400C52824087D07860087010108AF31CF27B1
:10418400A0310130FD07200025087D02031CCB2847
:10419400CC28BB280030A1318721A0310800700849
:1041A40071040319D628D728E328700886007108FB
:1041B4008700FF30C03FFF30C13FFF30C23FFF30B8
:1041C400C33FFF30F300FF30F200FF30F100FF3057
:1041D400F00008000B0D0B0D0139F30071083100DC
:1041E40092007008910072089300151715158B132F
:1041F40055309600AA309600951495180229032983
:10420400FF281511730C031C8B1303188B1708005C
:104214002100EB01F501212902307506031D132944
:10422400142916290130F5077208750786008701DD
:104234000108A231A922A131F4000130F507730865
:104244007502031C262927290E2974080800013049
:10425400AF316E27A131F70003307705033A031D10
:10426400342935293729013047291230AF316E27D7
:10427400A131083903193F29402946290830F5009E
:104284001230AF317E27A1310030080020003408FD
:10429400FD003308FC005A2920003208A10031082F
:1042A400A0007C30A2003508A3009A319522A131E8
:1042B4007C0884007D0885001200031D622963299F
:1042C4004E292000B101B2010800083023009F00EC
:1042D40090309D0024309E009C010030F00000309E
:1042E400F100AF314E27A1310030F0000030F10071
:1042F400AF315427A1310030F0000030F100AF316C
:104304004827A1312200E9010800F7008330F500B5
:104314000130AF317E27A1317708031992299329FF
:1043240097293230890B9429A6291230AF316E2790
:10433400A131083903199F29A02997290830F500CC
:104344001230AF317E27A131080080302000D10621
:104354005508BD005408BC005308BB005208BA00FD
:104364005108C1005008C0004F08BF004E08BE00ED
:104374009031DB20A13120003D08D1003C08D00061
:104384003B08CF003A08CE0008002000C800D3291B
:104394001A302000C700F830890BCE29C70BCE296C
:1043A400000036302000C3008930C200CA30C1008A
:1043B400C030C0004808C400A5311C25A13120002C
:1043C400400841040319E729E829CA290800240000
:1043D400951620003608A6003708A700A431C72484
:1043E400A13141302000B800EE30890BF729B80B19
:1043F400F729000020003608A6003708A700A431DA
:10440400C724A131AF316727A13198310220A131EE
:104414000800F800F401F5017008F200F3017208D5
:10442400F6007308F700781C182A192A1D2A760842
:10443400F4077708F53D0130F635F70D890B1E2A90
:104444000310F80C7808031D282A292A152A750850
:10445400F1007408F0000800F1014E2A03108C1CCE
:1044640003140318362A392A20008C143B2A20000E
:104474008C104130F000EE30890B3E2AF00B3E2ABE
:1044840000327108F10AF00015307002031C4B2A47
:104494004C2A4E2A0130542A20008C1D522A532AB9
:1044A400302A00300800A1312921A231003A031931
:1044B4005C2A5D2A602AF801F9017E2AAF3160275F
:1044C400A231780879040319682A692A6D2AAF3160
:1044D400C427A231702AAF31B927A231F5010D30BA
:1044E400AF317E27A231F5012230AF317E27A231D0
:1044F4000130F8000030F900080027308600003051
:10450400870006302000A60000301E00A60B872A74
:1045140022005A082000A70022005B082000A800FF
:104524003430AA000130AB001E30AC002730F2005A
:104534000630F300A1310A21A2312000A90027305E
:10454400A4000630A500A031B620A2310800F00076
:10455400700821006B06F100711CB12AB22AB42A3A
:104564005E30EB06F11CB72AB82ABA2ABC30EB0637
:10457400711DBD2ABE2AC02A6130EB06F11DC32A73
:10458400C42AC62AC230EB06711EC92ACA2ACC2AFA
:104594009D30EB06F11ECF2AD02AD22A2330EB0617
:1045A400711FD52AD62AD82A4630EB06F11FDB2AFA
:1045B400DC2ADE2A8C30EB066B080800F9001B307D
:1045C400F800793079020318E82AE92AFA2A053032
:1045D400F0000030F1007908D33EF200FF300318F8
:1045E4000030F300A531CB25A2317008F800102B60
:1045F400F13079020318FF2A002B102B0A30F00047
:104604000030F10079081E3EF2000030031801303A
:10461400F300A531CB25A2317008F80078081F39C2
:104624002038F5000B30AF317E27A231080022007C
:104634008C018D018E012C3021008C0070308D0096
:1046440062308E0023008E0124308C0050308D00A7
:1046540024008C018E018D0125008C018E018D01B9
:10466400373026008C003F308E003F3027008C000E
:104674003F308E0018303D00A00016303C00A400EE
:104684001030A00019303D00A2001430A7001130F2
:104694003C00A100210010162700921593119111DE
:1046A400080022006F08F3006E08F2006D08F100A4
:1046B4006C08F0004C30F7009530F6007F30F500C0
:1046C4002D30F40090310020A33101307007220016
:1046D400EC000030713DED000030723DEE00003022
:1046E400733DEF006C082000A00022006D0820003C
:1046F400A10022006E082000A20022006F08200002
:10470400A3001130A336A20CA10CA00C890B842B9E
:104714002108FD002008FC0008002230AF316E277C
:10472400A331FA00FB017A082000A2007B08A30051
:1047340078082207FA007908233DFB0001307B0248
:10474400003003197A02031CA82BA92BB22BFF30CB
:10475400FA0022087A02F80023090318890AF900EA
:10476400A001A101C42B7708200786008701010856
:10477400F5000030AF317E27A33101302000A007BF
:104784000030A13D79082102031DCA2B78082002BC
:10479400031CCD2BCE2BB52B22087807F500223035
:1047A400AF317E27A3317808F7007908F8000800B4
:1047B400FC001530F0000030F1007C08FA00FB0129
:1047C4007A08F2007B08F300A4317624A331700840
:1047D400FC000F307C02031CF02BF12B1D2C12303B
:1047E4007C020318F62BF72B0A2C8430F5004D308D
:1047F400AF317E27A3317C08FE3E8038F5000930B6
:10480400AF317E27A3316430A231E022A331252CBD
:104814008730F5004D30AF317E27A3317C08FB3E55
:104824008038F5000930AF317E27A3318C30A231B6
:10483400E022A331252C7C08013E7038F5000930B4
:10484400AF317E27A3310800F3002400951A2B2CE6
:104854002C2C752C7308F000F101F035F10DF035B6
:10486400F10D1630700784003030713D80388500BA
:10487400000894007308F000F101F035F10DF035F3
:10488400F10D1530700784003030713D803885009B
:104894000008950096017308F000F101F035F10D60
:1048A400F035F10D1730700784003030713D8038D9
:1048B4008500000892007308F000F101F035F10D55
:1048C400F035F10D1830700784003030713D8038B8
:1048D40085000008F20021000E087206FE397206F7
:1048E4008E00240095160800F501F31F7A2C7B2C0A
:1048F400822CF209F309F20A0319F30A0130F500D4
:10490400F11F852C862C8B2CF009F109F00A031970
:10491400F10A700871040319902C912CB82C013001
:10492400F4009B2C0130F035F10D890B952C0130EE
:10493400F407F11F9E2C9F2C942C71087302031D05
:10494400A52C70087202031CA82CA92CAD2C70088D
:10495400F2027108F33B0130F136F00C890BAE2CF6
:104964000130F402031DB72CB82C9F2C75080319D1
:10497400BC2CBD2CC22CF209F309F20A0319F30A68
:104984007308F1007208F00008002A308600003035
:1049940087000C302000A80000301E00A80BCF2C8C
:1049A40022005A082000AA0022005B082000AB0065
:1049B4003430AD0026088600013087000108AE00BF
:1049C4002608053E8600013087000108AF0002304A
:1049D400B000260A860001308700403FA800413F0E
:1049E400A9002908B100260A8600013087000108C1
:1049F400B2002708B3002608063E8600013087006F
:104A04000108B4002608043E86000130870001082E
:104A1400B5002A30F2000C30F300A1310A21A43190
:104A24002000AC002A30A4000C30A500A031B62030
:104A3400A431080020008E150E120D302000C50090
:104A4400FB30890B232DC50B232D003220000E16BD
:104A54000D302000C500FB30890B2E2DC50B2E2DEB
:104A640000324230AF316E27A5312000C60012302B
:104A7400460603193E2D3F2D422DC001C101722D62
:104A8400AF316727A53120004308FD004208FC0030
:104A94004108FB004008FA0090313320A531F501AC
:104AA4000E30AF317E27A531F5010F30AF317E27AF
:104AB400A5310C30AF316E27A5312338F5000C3009
:104AC400AF317E27A53120004408A331DA23A53174
:104AD400AF316027A53101302000C0000030C10093
:104AE40008000030FB000030FA000030F90000300C
:104AF400F80073087204710470040319822D832D65
:104B0400C22D0130FC008F2D0130F035F10DF20D76
:104B1400F30D890B872D0130FC07F31F922D932D84
:104B2400862D0130F835F90DFA0DFB0D890B942D06
:104B340073087702031DA82D72087602031DA82DA1
:104B440071087502031DA82D70087402031CAB2D97
:104B5400AC2DB52D7008F4027108F53B7208F63BD4
:104B64007308F73B78140130F336F20CF10CF00CB7
:104B7400890BB62D0130FC02031DC12DC22D932DCE
:104B84007B08F3007A08F2007908F1007808F00055
:104B94000800F501F11FCF2DD02DD72DF009F10913
:104BA400F00A0319F10A0130F500F31FDA2DDB2DA9
:104BB400E22DF209F309F20A0319F30A0130F506AA
:104BC400F601F701700871040319E92DEA2D172E77
:104BD4000130F400F42D0130F035F10D890BEE2D88
:104BE4000130F407F11FF72DF82DED2D0130F635C6
:104BF400F70D890BF92D71087302031D032E70083C
:104C04007202031C062E072E0C2E7008F202710885
:104C1400F33B76140130F136F00C890B0D2E013084
:104C2400F402031D162E172EF82D750803191B2EDA
:104C34001C2E212EF609F709F60A0319F70A77083C
:104C4400F1007608F00008007408750403192B2E8F
:104C54002C2E322E74087504031D312E322E372E5D
:104C64007208AF315A27A631812E74088600750860
:104C740087004931160001040319412E422E622E89
:104C840074088600750887004931403FF600413FAB
:104C9400F70074088600750887004231403FF80029
:104CA400413FF9007908803AFA007708803A7A029D
:104CB400031D5E2E760878020318612E622E812E63
:104CC40074088600750887004231740884007508EA
:104CD4008500003FF600013FF700403F760784005F
:104CE400413F773D8500720880007408860075088E
:104CF400870042310130810741310318810A0800DD
:104D04007008063E8600013087008101F21F8B2E59
:104D14008C2E922E7008063E860001308700011505
:104D2400143071020318972E982E9E2E7008063E9A
:104D34008600013087000114700886000130870066
:104D440094300106031DA72EA82EC42E7008043E1D
:104D5400860001308700811BB02EB12EBD2E700855
:104D6400043E8600013087000108803A353E031C6A
:104D7400BC2EBD2EDE2E7008063E86000130870054
:104D84008115DE2E70088600013087009030010600
:104D94000319CD2ECE2EDE2E7008043E860001307F
:104DA40087000108031DD72ED82EDE2E7008063E7C
:104DB40086000130870081150800713086000030BC
:104DC40087000830F00000301E00F00BE62E2000B3
:104DD400200821042204230424042504260427048F
:104DE4000319F52EF62E502F0130F900032FA035AC
:104DF400A10DA20DA30DA40DA50DA60DA70D0130A7
:104E0400F907A71F062F072FF92EF135F20DF30D21
:104E1400F40DF50DF60DF70DF80D27082F02031DFF
:104E24002D2F26082E02031D2D2F25082D02031DCC
:104E34002D2F24082C02031D2D2F23082B02031DC4
:104E44002D2F22082A02031D2D2F21082902031DBC
:104E54002D2F20082802031C302F312F422F200829
:104E6400A8022108A93B2208AA3B2308AB3B24083B
:104E7400AC3B2508AD3B2608AE3B2708AF3B71147D
:104E8400A736A60CA50CA40CA30CA20CA10CA00C78
:104E94000130F902031D4F2F502F072F7108A00076
:104EA4007208A1007308A2007408A3007508A40086
:104EB4007608A5007708A6007808A7000800892FBF
:104EC40003108C1C03140318682F6B2F20008C1400
:104ED4006D2F20008C1002302100E1000430E0002E
:104EE400BA30890B732FE00B732FE10B732F000083
:104EF40022006A08EA0A2100E0000B306002031C69
:104F0400842F852F892F01309E310426A73120005C
:104F14008C1D8D2F8E2F622F210010124A30F0002D
:104F24000030F100F2001030F3000030F400A03142
:104F34009E20A73120008D138C108C146830210022
:104F4400C900A830CA0000309231E722A7312000FE
:104F540069082100CC00200068082100CB00A031A2
:104F64007320A73156302100C900A830CA0001308F
:104F74009231E722A731200069082100CC002000EB
:104F840068082100CB00A0317320A73142302100F2
:104F9400C900A830CA0002309231E722A7312000AC
:104FA40069082100CC00200068082100CB00A03152
:104FB4007320A73179302100C900A830CA000B3012
:104FC4009231E722A731200069082100CC0020009B
:104FD40068082100CB00A0317320A7311A302100CA
:104FE400E1005E30E0006E30890BF62FE00BF62F07
:104FF400E10BF62F00006400A02F08000034703489
:105004003C343034783425347834253478343E34A0
:105014003C34253464343E343C34253464343E34E6
:105024003C34253464343E343C34253464343E34D6
:105034003C34253464343E343C34253464343E34C6
:105044000D340A3400343C34253463343E343C3467
:10505400253464343E343C34303478342534783464
:105064003E343C34253464343E343C342534643496
:105074003E343C34253464343E340D340A34003434
:105084007034723465347334733475347234653403
:105094003A3420342534643420347034733469341D
:1050A40020340D340A3400346134643463342034DD
:1050B4007234653461346434203442343A342034F4
:1050C4002534643420340D340A34003461346434B7
:1050D40063342034723465346134643420344134AC
:1050E40020342534643420340D340A3400346234DA
:1050F4006134743474346534723479343A34203419
:0C5104002534643420340D340A340034A7
:105E840020008E15080020008E11080071082300E0
:105E9400BB007008BA00080071082200E300700813
:105EA400E200080071082300BD007008BC0008006F
:105EB400F1007108AF319027AF3108008130F5004F
:105EC4000130AF317E27AF3108008030F50001305A
:105ED400AF317E27AF310800F400F10174087F3937
:105EE400A0312720AF3108003200910192019301C3
:105EF4009401950196010800F6007508F1007608F2
:105F04008038A0312720AF3108006030320099007A
:105F14009B019D0103309F009E010800F0002000BA
:105F2400111E952F962F912F700823009A000800B8
:105F340088310020AF31F200F3017208F0007308D9
:105F4400F10008007408FF3E2200EC00FF30753DAC
:105F5400ED00EE01EF010800F00024009513700835
:105F64009100141CB62FB72FB32F110808001D3051
:105F7400AF316E27AF31FE39F5001D30AF317E27CA
:105F8400AF3108001D30AF316E27AF310138F50055
:105F94001D30AF317E27AF310800FC007C30F700A4
:105FA4000130F8000030F900A3318F23AF3108002D
:105FB40073087204710470040319E12FE22FE42FB3
:105FC4008030F306080071083100920070089100D7
:105FD40015171514000000003100130808002100F3
:105FE4008E018E1420000E108E100E118E110E16BE
:105FF4008E128C108D178E130E1308003C346534EA
:10600400723472346F3472343E340D340A340034D2
:106014003C346F346B343E340D340A340034003471
:10602400003400344B342034403401340034103410
:020000040001F9
:08000E00EC3F1E2FFF1FFF3F16
:00000001FF
