:1000000080311128013401347E14803100308600A3
:10001000003087002700931101302100ED007E1091
:100020000900803113282100803102208031ED0049
:10003000803103208031EE00DA308400003085000A
:100040001330883100208031203084000130850059
:100050004230883100208031A0308400013085009A
:1000600020308831002080317E1020008831062821
:1000700021005C08003ECE00023003180330CF00A0
:100080004F08803AD0004C08803A5002031D4A289D
:100090004B084E02031C4D284E28702821004A0AA6
:1000A000860001308700503001060319582859286E
:1000B00068284A0A86000130870001080319612870
:1000C000622868284D03031D662868289B312D2B64
:1000D0004A088600013087004B3081009A31DE2AC1
:1000E00001302100CF005C089A3CCE00031CCF03F6
:1000F0004C08803AD0004F08803A5002031D8228F5
:100100004E084B02031C85288628BC2821005C0869
:100110009A3ECE00013003180230CF004F08803ADB
:10012000D0004C08803A5002031D98284B084E021C
:10013000031C9B289C28BC2821004A0A8600013009
:1001400087004B3001060319A628A728B5284A0ABC
:1001500086000130870001080319AF28B028B528B0
:100160004D03031DB428B52866284A0886000130CF
:100170008700463081006E2801302100CF005C08E6
:10018000333CCE00031CCF034C08803AD0004F080C
:10019000803A5002031DCE284E084B02031CD12882
:1001A000D228082921005C08333ECE000130031814
:1001B0000230CF004F08803AD0004C08803A5002FD
:1001C000031DE4284B084E02031CE728E8280829F1
:1001D00021004A0A860001308700463001060319D3
:1001E000F228F32801294A0A860001308700010815
:1001F0000319FB28FC2801294D03031D00290129AF
:1002000066284A08860001308700413081006E2848
:1002100000302100CF005C08CD3CCE00031CCF0392
:100220004C08803AD0004F08803A5002031D1A292A
:100230004E084B02031C1D291E29542921005C086D
:10024000CD3ECE00003003180130CF004F08803A79
:10025000D0004C08803A5002031D30294B084E0252
:10026000031C33293429542921004A0A860001300D
:1002700087004130010603193E293F294D294A0ACA
:1002800086000130870001080319472948294D29B4
:100290004D03031D4C294D2966284A08860001306C
:1002A00087003C3081006E2800302100CF005C08C0
:1002B000663CCE00031CCF034C08803AD0004F08A8
:1002C000803A5002031D66294E084B02031C69291F
:1002D0006A29A02921005C08663ECE000030031880
:1002E0000130CF004F08803AD0004C08803A5002CD
:1002F000031D7C294B084E02031C7F298029A0295D
:1003000021004A0A8600013087003C3001060319AB
:100310008A298B2999294A0A860001308700010819
:1003200003199329942999294D03031D9829992983
:1003300066284A08860001308700373081006E2821
:1003400000302100CF005C08003CCE00031CCF032E
:100350004C08803AD0004F08803A5002031DB22961
:100360004E084B02031CB529B629662821004C080B
:10037000803A803C031DBE294B085C02031CC12946
:10038000C229662821004A088600013087003230E1
:100390008100EE016E08031DCE29CF29912F033075
:1003A000CF005C08FF3CCE00031CCF034C08803A12
:1003B000D0004F08803A5002031DE0294E084B023E
:1003C000031CE329E429EC2921004A0886000130B6
:1003D000870032308100912F03302100CF005C086C
:1003E0009A3CCE00031CCF034C08803AD0004F0843
:1003F000803A5002031DFE294E084B02031C012ABD
:10040000022A382A21005C089A3ECE0003300318E5
:100410000430CF004F08803AD0004C08803A500298
:10042000031D142A4B084E02031C172A182A382AC7
:1004300021004A0A86000130870032300106031984
:10044000222A232A312A4A0A86000130870001081D
:1004500003192B2A2C2A312A4D03031D302A312A55
:1004600066284A088600013087002D308100912FD0
:1004700003302100CF005C08333CCE00031CCF03C7
:100480004C08803AD0004F08803A5002031D4A2A97
:100490004E084B02031C4D2A4E2A842A21005C0878
:1004A000333ECE00033003180430CF004F08803AAB
:1004B000D0004C08803A5002031D602A4B084E02BF
:1004C000031C632A642A842A21004A0A8600013018
:1004D00087002D30010603196E2A6F2A7D2A4A0AE9
:1004E00086000130870001080319772A782A7D2ABF
:1004F0004D03031D7C2A7D2A66284A0886000130A8
:10050000870028308100912F02302100CF005C0845
:10051000CD3CCE00031CCF034C08803AD0004F08DE
:10052000803A5002031D962A4E084B02031C992A5A
:100530009A2AD02A21005C08CD3ECE000230031852
:100540000330CF004F08803AD0004C08803A500268
:10055000031DAC2A4B084E02031CAF2AB02AD02A36
:1005600021004A0A8600013087002830010603195D
:10057000BA2ABB2AC92A4A0A860001308700010824
:100580000319C32AC42AC92A4D03031DC82AC92A2C
:1005900066284A0886000130870023308100912FA9
:1005A00002302100CF005C08663CCE00031CCF0364
:1005B0004C08803AD0004F08803A5002031DE22ACE
:1005C0004E084B02031CE52AE62A1C2B21005C087E
:1005D000663ECE00023003180330CF004F08803A49
:1005E000D0004C08803A5002031DF82A4B084E02F6
:1005F000031CFB2AFC2A1C2B21004A0A860001301E
:100600008700233001060319062B072B152B4A0AF6
:10061000860001308700010803190F2B102B152BC2
:100620004D03031D142B152B66284A088600013044
:1006300087001E308100912F02302100CF005C081E
:10064000003CCE00031CCF034C08803AD0004F087A
:10065000803A5002031D2E2B4E084B02031C312BF7
:10066000322B682B21005C08003ECE0002300318BC
:100670000330CF004F08803AD0004C08803A500237
:10068000031D442B4B084E02031C472B482B682BA1
:1006900021004A0A8600013087001E300106031936
:1006A000522B532B612B4A0A860001308700010828
:1006B00003195B2B5C2B612B4D03031D602B612BFE
:1006C00066284A0886000130870019308100912F82
:1006D00001302100CF005C089A3CCE00031CCF0300
:1006E0004C08803AD0004F08803A5002031D7A2B04
:1006F0004E084B02031C7D2B7E2BB42B21005C0883
:100700009A3ECE00013003180230CF004F08803AE5
:10071000D0004C08803A5002031D902B4B084E022B
:10072000031C932B942BB42B21004A0A8600013022
:1007300087001930010603199E2B9F2BAD2B4A0A07
:1007400086000130870001080319A72BA82BAD2BC9
:100750004D03031DAC2BAD2B66284A0886000130E3
:10076000870014308100912F01302100CF005C08F8
:10077000333CCE00031CCF034C08803AD0004F0816
:10078000803A5002031DC62B4E084B02031CC92B96
:10079000CA2B002C21005C08333ECE000130031828
:1007A0000230CF004F08803AD0004C08803A500207
:1007B000031DDC2B4B084E02031CDF2BE02B002C0F
:1007C00021004A0A8600013087001430010603190F
:1007D000EA2BEB2BF92B4A0A86000130870001082F
:1007E0000319F32BF42BF92B4D03031DF82BF92BD5
:1007F00066284A088600013087000F308100912F5B
:1008000000302100CF005C08CD3CCE00031CCF039C
:100810004C08803AD0004F08803A5002031D122C39
:100820004E084B02031C152C162C4C2C21005C0886
:10083000CD3ECE00003003180130CF004F08803A83
:10084000D0004C08803A5002031D282C4B084E0261
:10085000031C2B2C2C2C4C2C21004A0A8600013026
:1008600087000F3001060319362C372C452C4A0A15
:10087000860001308700010803193F2C402C452CCD
:100880004D03031D442C452C66284A088600013080
:1008900087000A308100912F00302100CF005C08D2
:1008A000663CCE00031CCF034C08803AD0004F08B2
:1008B000803A5002031D5E2C4E084B02031C612C33
:1008C000622C982C21005C08663ECE000030031894
:1008D0000130CF004F08803AD0004C08803A5002D7
:1008E000031D742C4B084E02031C772C782C982C7B
:1008F00021004A0A8600013087000A3001060319E8
:10090000822C832C912C4A0A860001308700010832
:1009100003198B2C8C2C912C4D03031D902C912CA6
:1009200066284A0886000130870005308100912F33
:1009300000302100CF005C08003CCE00031CCF0338
:100940004C08803AD0004F08803A5002031DAA2C70
:100950004E084B02031CAD2CAE2C662821004C081F
:10096000803A803C031DB62C4B085C02031CB92C5A
:10097000BA2C662821004A088600013087008101D0
:10098000912F490886000130870097300106031D2A
:10099000CA2CCB2CB32D0330CF005C08FE3CCE001C
:1009A000031CCF034C08803AD0004F08803A500215
:1009B000031DDC2C4E084B02031CDF2CE02CE72C23
:1009C00021004A088600013087008101912F023002
:1009D0002100CF005C08603CCE00031CCF034C0814
:1009E000803AD0004F08803A5002031DF92C4E087F
:1009F0004B02031CFC2CFD2C332D21005C08603EB7
:100A0000CE00023003180330CF004F08803AD000E8
:100A10004C08803A5002031D0F2D4B084E02031C58
:100A2000122D132D332D21004A0A86000130870034
:100A30004630010603191D2D1E2D2C2D4A0A860055
:100A40000130870001080319262D272D2C2D4D0379
:100A5000031D2B2D2C2D912F4A0886000130870075
:100A600023308100912F01302100CF005C08483CE9
:100A7000CE00031CCF034C08803AD0004F08803AC8
:100A80005002031D452D4E084B02031C482D492DD5
:100A90007F2D21005C08483ECE0001300318023053
:100AA000CF004F08803AD0004C08803A5002031D16
:100AB0005B2D4B084E02031C5E2D5F2D7F2D210008
:100AC0004A0A860001308700643001060319692D47
:100AD0006A2D782D4A0A8600013087000108031923
:100AE000722D732D782D4D03031D772D782D912FA9
:100AF0004A0886000130870046308100912F00307F
:100B00002100CF005C089C3CCE00031CCF034C08A6
:100B1000803AD0004F08803A5002031D912D4E08B4
:100B20004B02031C942D952D662821005C089C3EE9
:100B3000CE00003003180130CF004F08803AD000BB
:100B40004C08803A5002031DA72D4B084E02031C8F
:100B5000AA2DAB2D662821004A08860001308700A7
:100B600064308100912F490886000130870057309A
:100B70000106031DBC2DBD2DF12E0330CF005C08F6
:100B8000FE3CCE00031CCF034C08803AD0004F0837
:100B9000803A5002031DCE2D4E084B02031CD12D6E
:100BA000D22DD92D21004A0886000130870081010D
:100BB000912F02302100CF005C08FD3CCE00031CC9
:100BC000CF034C08803AD0004F08803A5002031DF2
:100BD000EB2D4E084B02031CEE2DEF2D252E210090
:100BE0005C08FD3ECE00023003180330CF004F08F2
:100BF000803AD0004C08803A5002031D012E4B0869
:100C00004E02031C042E052E252E21004A0A8600C2
:100C1000013087003230010603190F2E102E1E2ED0
:100C20004A0A86000130870001080319182E192E80
:100C30001E2E4D03031D1D2E1E2E912F4A088600C9
:100C40000130870019308100912F01302100CF0041
:100C50005C08FB3CCE00031CCF034C08803AD0005C
:100C60004F08803A5002031D372E4E084B02031CDA
:100C70003A2E3B2E712E21005C08FB3ECE00013047
:100C800003180230CF004F08803AD0004C08803A59
:100C90005002031D4D2E4B084E02031C502E512EA8
:100CA000712E21004A0A8600013087004B30010670
:100CB00003195B2E5C2E6A2E4A0A860001308700DB
:100CC00001080319642E652E6A2E4D03031D692E3B
:100CD0006A2E912F4A088600013087003230810049
:100CE000912F01302100CF005C08273CCE00031C6F
:100CF000CF034C08803AD0004F08803A5002031DC1
:100D0000832E4E084B02031C862E872EBD2E2100FB
:100D10005C08273ECE00013003180230CF004F0898
:100D2000803AD0004C08803A5002031D992E4B089F
:100D30004E02031C9C2E9D2EBD2E21004A0A8600C9
:100D400001308700643001060319A72EA82EB62EA5
:100D50004A0A86000130870001080319B02EB12E1F
:100D6000B62E4D03031DB52EB62E912F4A088600D0
:100D7000013087004B308100912F00302100CF00DF
:100D80005C08953CCE00031CCF034C08803AD00091
:100D90004F08803A5002031DCF2E4E084B02031C11
:100DA000D22ED32E662821005C08953ECE0000305E
:100DB00003180130CF004F08803AD0004C08803A29
:100DC0005002031DE52E4B084E02031CE82EE92EAF
:100DD000662821004A0886000130870064308100BF
:100DE000912F490886000130870099300106031DC4
:100DF000FA2EFB2E772F0330CF005C08FE3CCE008E
:100E0000031CCF034C08803AD0004F08803A5002B0
:100E1000031D0C2F4E084B02031C0F2F102F172FF2
:100E200021004A088600013087008101912F01309E
:100E30002100CF005C08A33CCE00031CCF034C086C
:100E4000803AD0004F08803A5002031D292F4E08E7
:100E50004B02031C2C2F2D2F632F21005C08A33E77
:100E6000CE00013003180230CF004F08803AD00086
:100E70004C08803A5002031D3F2F4B084E02031CC2
:100E8000422F432F632F21004A0A8600013087003A
:100E90006430010603194D2F4E2F5C2F4A0A86003D
:100EA0000130870001080319562F572F5C2F4D037F
:100EB000031D5B2F5C2F912F4A08860001308700AD
:100EC00019308100912F21004C08803A803C031D8D
:100ED0006B2F4B085C02031C6E2F6F2F66282100BE
:100EE0004A0886000130870064308100912F49084C
:100EF00086000130870094300106031D802F812F6A
:100F00006628CC1F842F852F8B2F4A08860001303E
:100F10008700810166284A088600013087004B0857
:100F20008100003008007008063E8600013087000E
:100F30008101F21F9C2F9D2FA32F7008063E860073
:100F4000013087000115143071020318A82FA92F52
:100F5000AF2F7008063E860001308700011470082C
:100F600086000130870094300106031DB82FB92F89
:100F7000D52F7008043E860001308700811BC12FE9
:100F8000C22FCE2F7008043E860001308700010872
:100F9000803A353E031CCD2FCE2FEF2F7008063E32
:100FA0008600013087008115EF2F70088600013020
:100FB0008700903001060319DE2FDF2FEF2F700816
:100FC000043E8600013087000108031DE82FE92F49
:100FD000EF2F7008063E860001308700811508005B
:100FE0002000911EF42FF52FF02F2100E80123009F
:100FF0009D1CFB2FFC2FFE2F1D121D16190808002B
:10100000640080010131890B012800340130F000B7
:101010008030F100A0317A2088310F392100D100D1
:101020000030F0008030F100A0317A2088312100BA
:10103000D2000430D235890B1A2852085104DB0043
:101040000330F0008030F100A0317A2088310F3970
:101050002100D1000230F0008030F100A0317A2070
:1010600088312100D2000430D235890B342852084F
:101070005104DA00A03195208831253021009700F5
:101080005A0A031D442845284E285B0A031D492897
:101090004A284E2800309E31042688315830F0000E
:1010A0000130F1000030F200F3000630F4000030AF
:1010B000F500A1314D2188314030F0000130F100C0
:1010C0000030F200F3001830F4000030F500A131D8
:1010D0004D21883100302100D7007030D800003019
:1010E000F0007030F100A0317A2088312100DC005E
:1010F0000130D7070030D83D5808F1005708F000FC
:10110000A0317A2088312100DD000130D70700307E
:10111000D83D5808F1005708F000A0317A208831F6
:101120002100DE000130D7070030D83D5808F1001B
:101130005708F000A0317A2088312100DF0001300B
:10114000D7070030D83D5808F1005708F000A0310B
:101150007A2088312100E0000130D7070030D83DE7
:101160005808F1005708F000A0317A208831003A81
:10117000031DBB28BD280130BE2800302100E1003E
:101180000130D7070030D83DD9015908D100D2012C
:10119000D10ED20EF030D20551080F39D204F03002
:1011A000D1055108103ED7007030523DD800590883
:1011B000D1000330D135890BDA285108473E86002B
:1011C000013087005808F1005708F000A0317A205C
:1011D0008831003A031DED28EF280130F028003057
:1011E000810001302100D7070030D83D5908D100D7
:1011F0000330D135890BF9285108403E8600013073
:1012000087005808F1005708F000A0317A20883193
:10121000810001302100D7070030D83D5808F10087
:101220005708F000A0317A2088312100D100D20186
:101230005108D200D1015908D4000330D435890BAC
:101240001E295408413E8600013087005108C03FE6
:101250005208C13F0130D7070030D83D5808F1008F
:101260005708F000A0317A2088312100D100D20146
:101270005908D3000330D335890B3B295308413E2D
:1012800086000130870051088104413152088104F1
:101290000130D7070030D83D5908D1000330D1358F
:1012A000890B4F295108433E8600013087005808BA
:1012B000F1005708F000A0317A2088318104013014
:1012C0002100D7070030D83D5908D1000330D1356F
:1012D000890B67295108453E860001308700580870
:1012E000F1005708F000A0317A20883181000130E8
:1012F0002100D7070030D83D0130D907033059020B
:10130000031C83298429C528A131E4218831803038
:1013100021006006253003195F06031D90299129DD
:101320009529673023009B00B029C0306006123039
:1013300003195F06031D9D299E29A229CF30230092
:101340009B00B02960306006093003195F06031D59
:10135000AA29AB29B029A03023009B0001309C00B2
:10136000A23188228831003A0319B729B829BE2949
:1013700040302000DF009931FB2188310030A4315A
:10138000B324883121005E08A23144228831A03183
:10139000C7208831A231D922883182302100D10082
:1013A000DD30890BD129D10BD12900328B170B17D6
:1013B000A031D92088310B309331B42388312000FB
:1013C00068082100D500D9015908D1000330D13572
:1013D000890BE7295108473E860001308700010844
:1013E000031DF329F429F529F02AD6015908031918
:1013F000FA29FB29002A5903031DFF29002A552A2F
:101400005908D1000330D135890B032A5108403ED9
:10141000C9005935583ECA0059089331B423883160
:10142000200069082100CC00200068082100CB00C2
:101430006D08CD009A31A62288312100D600D61B36
:10144000222A232AAF2A5935593E860001308700C7
:101450005935583E84000130850000080106031903
:10146000322A332AAF2A21005908D1000330D1355E
:10147000890B372A5108443E8600013087005935D0
:10148000583E840001308500000881005935593EDE
:101490008600013087005935583E840001308500B0
:1014A000000881000130EC00AF2A02305906031D0C
:1014B0005A2A5B2AAF2A5908D1000330D135890B4B
:1014C0005E2A5108403EC9005935583ECA005908A5
:1014D0009331B4238831200069082100CC0020001A
:1014E00068082100CB006D08CD009A31A622883112
:1014F0002100D600D61B7D2A7E2AAF2A5935593EB7
:101500008600013087005935583E8400013085003F
:1015100001080002F600F701031CF703801F912A5F
:10152000F703811F942AF70A9031002088312100A7
:101530005908D1000330D135890B9B2A5108433E0D
:101540008600013087007708803A803C031DAA2A74
:10155000760801020318AD2AAE2AAF2A332A2100E9
:101560005908D1000330D135890BB32A5108403EC8
:10157000F0005508F1005608F200873193278831B2
:1015800021006C030319C52AC62ACB2A6D03031D4B
:10159000CA2ACB2AF02AEC015908D1000330D135F0
:1015A000890BCF2A5108403E2000B6002100550883
:1015B0002000B700A231662288312100610803199A
:1015C000E22AE32AF02A20008C1468302100D1009E
:1015D000E430890BE92AD10BE92A000020008C10A5
:1015E00001302100D90703305902031CF82AF92AD7
:1015F000E429ED01EC0132001813981303302300A5
:101600009700A031862088316300D82980311128C5
:1016100020004908023E86008701023001060319B6
:10162000122B132B252B4908033E8600870102301D
:10163000010603191C2B1D2B252B4230B600A830A8
:10164000B700A031A5208B31FF2F4908043E86004A
:1016500087014130010603192E2B2F2B392B490806
:10166000043E8600870161300106031D382B392BAB
:101670003C2B2100B601862C4908043E86008701D8
:10168000423001060319452B462B502B4908043ED6
:101690008600870162300106031D4F2B502B542B0F
:1016A00001302100B600862C4908043E86008701DF
:1016B0004330010603195D2B5E2B682B4908043E5D
:1016C0008600870163300106031D672B682B6C2B96
:1016D00002302100B600862C4908043E86008701AE
:1016E000533001060319752B762B802B4908043ED5
:1016F0008600870173300106031D7F2B802B7E2C13
:1017000007304A06031D852B862BD92B0230B600E5
:10171000A830B70021005B082000CC00CD014C08A8
:10172000B8004D08B90021005A082000CE00CF01B2
:101730004E08BA004F08BB0021005C082000D00012
:10174000D1015008BC005108BD0021005D082000F7
:10175000BE00BF01BE1BBF0321005E082000D200F7
:10176000D3015208C0005308C100210060082000C6
:10177000D400D50121005F082000D600D70156080B
:10178000D700D60154085604C20055085704C300B8
:10179000210061082000D900DA015908C4005A0864
:1017A000C5001E30C6000030C700A031A5208B3117
:1017B000752C0D304A06031DDE2BDF2B6D2C4908DE
:1017C000053E8600870101082100DC002000490851
:1017D000063E8600870101082100DD00200049083F
:1017E000073E8600870101082100DE00200049082D
:1017F000083E8600870101082100DF00200049081B
:10180000093E8600870101082100E0002000490808
:101810000A3E860087010108031D0F2C112C0130A0
:10182000122C00302100E1000030B4007030B5000F
:101830000030F0007030F1005C08F200A131692145
:101840008B3101302100B4070030B53D3508F1007F
:101850003408F0005D08F200A13169218B310130BC
:101860002100B4070030B53D3508F1003408F00020
:101870005E08F200A13169218B3101302100B407EB
:101880000030B53D3508F1003408F0005F08F20083
:10189000A13169218B3101302100B4070030B53D01
:1018A0003508F1003408F0006008F200A131692128
:1018B0008B3101302100B4070030B53D3508F1000F
:1018C0003408F0006108F200A13169218B31013048
:1018D0002100B4070030B53D752C4230B600A83069
:1018E000B700A031A5208B31FF2F4C302000B6006F
:1018F000A830B700A031A5208B31FF2F4230B600B1
:10190000A830B700A031A5208B31FF2F0730200071
:101910004A06031D8C2C8D2C0C2D2530B600A830CA
:10192000B7004908043E860087010108CC00CD01BC
:101930004C08B8004D08B900210036082000CE0040
:101940000330CE35890BA12C4E084B07CF004F0832
:10195000073E8600013087000108D000D101500801
:10196000BA005108BB00210036082000D200033025
:10197000D235890BB82C4B085207860001308700FE
:101980000108D300D4015308BC005408BD00210055
:1019900036082000D5000330D535890BCC2C5508EE
:1019A0004B07D600560A860001308700403FBE0034
:1019B000413FBF00210036082000D7000330D73553
:1019C000890BDF2C57084B07D8005808033E8600C8
:1019D000013087000108D900DA015908C0005A080F
:1019E000C100210036082000DB000330DB35890B05
:1019F000F62C5B084B07DC005C08053E86000130D6
:101A000087000108DD00DE015D08C2005E08C3003A
:101A1000A031A5208B31F72F0B304A06031D112D65
:101A2000122DEF2F210036082000CC000330CC35DA
:101A3000890B172D4C084B07CD004D08073E86003B
:101A4000013087004908053E840085010008031D18
:101A50002A2D2C2D01302D2D003081004908063E05
:101A6000840085010008CC004908073E84008501F8
:101A7000210036082000CD000330CD35890B3D2DE7
:101A80004D084B07CE004E0A860001308700000843
:101A9000C03F4C08C13F210036082000CC00033075
:101AA000CC35890B502D4C084B07CD004D0A8600D4
:101AB000013087001600BA3ACE001600273ACE044D
:101AC0000319632D642D0D2E210036082000CC0053
:101AD0000330CC35890B692D4C084B07CD004D0ADE
:101AE0008600013087001600B63ACE001600273A6D
:101AF000CE0403197C2D7D2D0D2E210036082000EB
:101B0000CC000330CC35890B822D4C084B07CD001F
:101B10004D0A8600013087001600E13ACE0016001B
:101B2000273ACE040319952D962D032E2100360851
:101B30002000CC000330CC35890B9B2D4C084B0783
:101B4000CD004D0A8600013087001600043ACE0011
:101B50001600283ACE040319AE2DAF2DF92D210021
:101B600036082000CC000330CC35890BB42D4C084E
:101B70004B07CD004D0A8600013087001600443A1D
:101B8000CE001600413ACE040319C72DC82DEF2D03
:101B9000210036082000CC000330CC35890BCD2D38
:101BA0004C084B07CD004D0A860001308700160017
:101BB000493ACE001600283ACE040319E02DE12D53
:101BC000E52D2100A801A901EA2D57302100A80028
:101BD0000030A9002908A7002808A600F42D993094
:101BE0002100A6000030A7002708A5002608A400B1
:101BF000FE2D97302100A4000030A5002508A30089
:101C00002408A200082E96302100A2000030A30074
:101C10002308A1002208A000122E95302100A00068
:101C20000030A10036082000CC000330CC35890BF1
:101C3000162E4B084C078600013087002100200833
:101C4000810036082000CC000330CC35890B252ECE
:101C50004C084B07CD004D08053E8600013087003B
:101C6000210036082000CE000330CE35890B352EFA
:101C70004E084B07CF004F08053E84000130850019
:101C80000F300005D0004908083E84008501000897
:101C90000F39D1000430D135890B4B2E5108500437
:101CA0008100210036082000CC000330CC35890BA0
:101CB000562E4C084B07CD004D0A86000130870098
:101CC0001600BA3ACE001600273ACE040319692E40
:101CD0006A2E132F210036082000CC000330CC35AB
:101CE000890B6F2E4C084B07CD004D0A8600013042
:101CF00087001600B63ACE001600273ACE04031924
:101D0000822E832E132F210036082000CC000330B2
:101D1000CC35890B882E4C084B07CD004D0A860028
:101D2000013087001600E13ACE001600273ACE04B3
:101D300003199B2E9C2E092F210036082000CC0071
:101D40000330CC35890BA12E4C084B07CD004D0A32
:101D50008600013087001600043ACE001600283AAB
:101D6000CE040319B42EB52EFF2E21003608200014
:101D7000CC000330CC35890BBA2E4C084B07CD0074
:101D80004D0A8600013087001600443ACE00160046
:101D9000413ACE040319CD2ECE2EF52E2100360861
:101DA0002000CC000330CC35890BD32E4C084B07D8
:101DB000CD004D0A8600013087001600493ACE005A
:101DC0001600283ACE040319E62EE72EEB2E21004A
:101DD000B201B301F02E19302100B2000030B3007F
:101DE0003308B1003208B000FA2E23302100B000D1
:101DF0000030B1003108AF003008AE00042F2330AE
:101E00002100AE000030AF002F08AD002E08AC005E
:101E10000E2F14302100AC000030AD002D08AB00B7
:101E20002C08AA00182F14302100AA000030AB00A3
:101E300036082000CC000330CC35890B1C2F4C0811
:101E40004B07CD004D08033E86000130870021007E
:101E50002A08810036082000CC00CD01CC0ECD0E22
:101E6000F030CD054C080F39CD04F030CC054C08CE
:101E7000103E2100B400703020004D3D2100B5001F
:101E80003508F1003408F00036082000CC0003309B
:101E9000CC35890B482F4C084B07CD004D088600E8
:101EA000013087000130473FF200A13169218B31B9
:101EB00001302100B4070030B53D3508F100340889
:101EC000F00036082000CC000330CC35890B652F9C
:101ED0004B084C078600013087000108F200A13151
:101EE00069218B3101302100B4070030B53D350840
:101EF000F1003408F00036082000CC000330CC3567
:101F0000890B7F2F4C084B07CD004D0A860001300E
:101F10008700403FCE00413FCF004F08F200A13183
:101F200069218B3101302100B4070030B53D3508FF
:101F3000F1003408F00036082000CC000330CC3526
:101F4000890B9F2F4C084B07CD004D0886000130B0
:101F500087000130413FF200A13169218B3101300E
:101F60002100B4070030B53D3508F1003408F00019
:101F700036082000CC000330CC35890BBC2F4C0830
:101F80004B07CD004D088600013087000130433FEC
:101F9000F200A13169218B3101302100B4070030FA
:101FA000B53D3508F1003408F00036082000CC00BB
:101FB0000330CC35890BD92F4C084B07CD004D0889
:101FC0008600013087000130453FF200A1316921D0
:101FD0008B3101302100B4070030B53DF72F42307E
:101FE000B600A830B700A031A5208B31FF2F4C30B0
:101FF0002000B600A830B700A031A5208B31080022
:10200000F71B03280428052810287609F80077090B
:10201000F900F80A0319F90A7808F6007908F700B8
:1020200008002000220886008701403FA400413FAD
:10203000A50024088400250885001200253A031D08
:10204000222823288D292208860087010130810754
:1020500041310318810A2200B601B7010030210086
:10206000E600FF302200B800FF30B900200022084F
:1020700086008701403FA400413FA500240884005A
:10208000250885001200633A031D4728482869285F
:102090002208860087010130810741310318810A37
:1020A000230886008701010884008501023081072A
:1020B0000008B0003008A400A5012408F20025089B
:1020C000F3002108F5002008F400A631B326903172
:1020D000A729220886008701403FAA00413FAB00A4
:1020E0002A0884002B0885001200643A0319792815
:1020F0007A2884282A0884002B0885001200693A6F
:10210000031D832884280F292308860087010108DE
:102110008400850102308107003FAC00013FAD0023
:102120002A08013EA40000302B3DA50022088600AD
:1021300087012408C03F2508C13F2030B000AD1BF7
:10214000A228A4280130A5280030A8000130B00240
:102150003008A03E8600013087000A30F0000030D1
:10216000F1002D08F3002C08F200A5310325903171
:102170007108F7007008F600903100209031760861
:10218000303E81000A30F0000030F10020002D08C0
:10219000F3002C08F200A631582690317108200077
:1021A000AD007008AC002C082D040319D828D928DC
:1021B000DE283008031DDD28DE28A6283008031994
:1021C000E228E328082928080319E728E82808292D
:1021D0000130B0023008A03E8600013087002D306B
:1021E000810008293008A03E8600013087000108E0
:1021F000A400A5012408F2002508F3002108F50039
:102200002008F400A631B326903101302000B00739
:1022100020303006031D0D290E29F228A7292A088F
:1022200084002B0885001200783A031D182919290B
:102230008329230886008701010884008501023074
:102240008107003FAC00013FAD002A08013EA40019
:1022500000302B3DA5002208860087012408C03FDE
:102260002508C13F7A292030B0002C080F39A90079
:102270000A30290203183D293E2941293030A90797
:1022800043295730A9070130B0023008A03E86002C
:1022900001308700290881000430AD36AC0C890B71
:1022A0004D292C082D040319562957297329300864
:1022B000031D5B295C29352973293008A03E86005F
:1022C000013087000108A400A5012408F2002508B8
:1022D000F3002108F5002008F400A631B326903160
:1022E00001302000B00720303006031D78297929FD
:1022F0005D29A7292A0884002B0885000008783A60
:102300000319332983292000220886008701013020
:10231000810741310318810AA72922088600870115
:10232000403FA400413FA500240884002508850003
:102330000008A600A7012608F2002708F3002108DC
:10234000F5002008F400A631B32690318329080057
:1023500020003D088039CA003D35CC00BC1FB129A2
:10236000B229B3294C144C080319B729B829C82934
:102370004C0A031DBC29BD29C5290030BD00003011
:10238000BC000030BB000030BA00BC17BD01D02932
:102390000030BD000030BC000030BB000030BA008F
:1023A00041088039CB004B084A060319D829D9299E
:1023B000DA294A174135CB00C01FDF29E029E1297E
:1023C0004B144B080319E529E629F6294B0A031D8E
:1023D000EA29EB29F3290030C1000030C0000030A9
:1023E000BF000030BE00C017C101FE290030C1008F
:1023F0000030C0000030BF000030BE004C084B026F
:102400000318032A042A282A4A1F072A082A0A2A04
:102410008030CA064C08CD004B08CC004D08CB00DC
:102420003A08CD003E08BA004D08BE003B08CD007A
:102430003F08BB004D08BF003C08CD004008BC0071
:102440004D08C0003D08CD004108BD004D08C10049
:10245000CD014B08C200C3014308C5004C0842022D
:10246000C400031CC5034508803AC60080304602FC
:10247000031D3C2A1A304402031C3F2A402A762AB4
:1024800020003D083C043B043A04031D482A4A2A24
:1024900001304B2A0030CD000030BD000030BC00C0
:1024A0000030BB000030BA004B08CC007D2A4D1C28
:1024B0005A2A5B2A652A4D08C2000130C236890BB0
:1024C0005E2A42080138CD00672A0310CD0C3A1C61
:1024D0006A2A6B2A6C2ACD170130C200BD37BC0CAA
:1024E000BB0CBA0CC20B6E2A0130CC0720004B0883
:1024F0004C02031C7C2A7D2A572A4A1B802A812AE7
:10250000BB2A4C08031D852A862A8F2A0030BD006D
:102510000030BC000030BB000030BA00B32B3E08D6
:10252000BA073F08BB3D4008BC3D4108BD3D3D1CCE
:102530009A2A9B2A452B4D1C9E2A9F2AA92A4D0880
:10254000C2000130C236890BA22A42080138CD00F0
:10255000AB2A0310CD0C3A1CAE2AAF2AB02ACD17F5
:102560000130C200BD37BC0CBB0CBA0CC20BB22A86
:102570000130CC07452B3D08803AC2004108803A23
:102580004202031DCD2A40083C02031DCD2A3F080C
:102590003B02031DCD2A3E083A020318D02AD12A55
:1025A000062BFF30C200FF30C300FF30C400FF30F5
:1025B000C5003A083E02C6003B083F3BC7003C0846
:1025C000403BC8003D08413BC9004608C2074708D8
:1025D000C33D4808C43D4908C53D4508BD00440801
:1025E000BC004308BB004208BA008030CA064D0355
:1025F000FF3ACD004D08031DFE2AFF2A0E2B0130A5
:10260000BA070030BB3DBC3DBD3D0E2B3E08BA02B3
:102610003F08BB3B4008BC3B4108BD3B3D083C0478
:102620003B043A04031D152B162B412B4D08031DAB
:102630001A2B1B2B412B0030BD000030BC0000309A
:10264000BB000030BA00B32B0130BA35BB0DBC0D56
:10265000BD0D890B252BCD1F2E2B2F2B302B3A1484
:102660004D1C332B342B382B03144D0DCD003A2B3E
:102670000310CD0D4C0803193E2B3F2B412B01308D
:10268000CC02BC1F442B452B242BCB01CD1F492B47
:102690004A2B582B4D087F3903194F2B502B532BA6
:1026A0000130CB00582B3A1C562B572B582B502B54
:1026B0004B0803195C2B5D2B862B0130BA070030C9
:1026C000BB3DBC3DBD3D3D1C662B672B862B3A08B0
:1026D000C2003B08C3003C08C4003D08C5000130EF
:1026E000C600C537C40CC30CC20CC60B712B450801
:1026F000BD004408BC004308BB004208BA004C0AB5
:102700000319832B842B862B0130CC074C0A031929
:102710008A2B8B2B902B4C08031D8F2B902B9E2BE1
:102720000030BD000030BC000030BB000030BA00FB
:102730004C08031D9C2B9D2B9E2BCA014C1CA12BCE
:10274000A22BA42BBC17A62B7F30BC054C08C200C3
:102750000130C236890BA92B4208BD00CA1FB12B1C
:10276000B22BB32BBD1708002100C8000030BE00FB
:102770000030BD000030BC000030BB000030C7009E
:102780000030C6000030C5000030C400DE2B6E08EB
:10279000031DCB2BCC2BCF2B15309D00EC2B3130D8
:1027A0009D00EC2B39309D00EC2B09309D00EC2B6B
:1027B000FF302000E800FF30E900C42D4808003A4F
:1027C0000319C72B013A0319CF2B033A0319D22B54
:1027D000093A0319D52BD82B20000C128230200087
:1027E000EA00DD30890BF22BEA0BF22B00322100DC
:1027F000C1019D149D18FD2BFE2BFA2B1C082000F7
:10280000EA00EB016A082100BF0020006B082100EC
:10281000C0001B082000EA00EB0121003F08200057
:10282000ED00EC016A086C04EE006B086D04EF002B
:102830006E082100BF0020006F082100C0003F0883
:10284000BB074008BC3D0030BD3DBE3D0130C10767
:102850001E304102031C2D2C2E2CF92B1D102000A4
:102860000C160030F3000030F2000030F1001E3092
:10287000F00021003E08F7003D08F6003C08F50096
:102880003B08F400A6310026933171082100C300F3
:102890007008C200480803194E2C4F2C542C4803D2
:1028A000031D532C542C7C2C4208F0004308F100EB
:1028B000F201F30100309831AF209331730820000A
:1028C000D9007208D8007108D7007008D6009C3172
:1028D0002C24933120005908E1005808E0005708E3
:1028E000DF005608DE00A7310F27933120005F0874
:1028F000E9005E08E800C42D02304806031D812C63
:10290000822C1D2DBF302000BD00D930BC00993075
:10291000BB009A30BA003D30A3009F30A200613066
:10292000A100D330A00021004208F0004308F100CC
:10293000F201F30100309831AF2093317308200089
:10294000A7007208A6007108A5007008A4009531C0
:10295000C525933120002308C1002208C0002108AA
:10296000BF002008BE009131A821933120003D080E
:102970002100BA0020003C082100B90020003B08DB
:102980002100B80020003A082100B7005D082000AF
:10299000EA00EB01EA1BEB036A08F0006B08F100A8
:1029A000890D893B8909F200F30001309831AF208D
:1029B000933173082000BD007208BC007108BB0091
:1029C0007008BA0021003A082000C100210039082F
:1029D0002000C000210038082000BF002100370877
:1029E0002000BE009131A821933120003D08210034
:1029F000C70020003C082100C60020003B08210041
:102A0000C50020003A082100C4004708F30046082A
:102A1000F2004508F1004408F0000030F7000030F3
:102A2000F6000030F5000030F40098312520933195
:102A300003181B2D1C2DA02DD82B0B304806031D71
:102A4000222D232DA02DC4302000BD000B30BC0052
:102A50004630BB006630BA003F30A3008930A20088
:102A6000A330A1006E30A00021004208F00043080E
:102A7000F100F201F30100309831AF209331730877
:102A80002000A7007208A6007108A5007008A40025
:102A90009531C525933120002308C1002208C000CC
:102AA0002108BF002008BE009131A82193312000E9
:102AB0003D082100C70020003C082100C60020007E
:102AC0003B082100C50020003A082100C400470847
:102AD000F3004608F2004508F1004408F000003019
:102AE000F7000030F6000030F5000030F4009831B7
:102AF0002520933103187D2D7E2D822D2000E801A5
:102B0000E901C42D4230F300C830F2000030F1007A
:102B10000030F00021004708F7004608F60045089D
:102B2000F5004408F4009831252093310318992DBD
:102B30009A2DA02D64302000E8000030E900C42D5B
:102B4000210047082000D900210046082000D800B5
:102B5000210045082000D700210044082000D600AD
:102B60009C312C24933120005908E1005808E000E2
:102B70005708DF005608DE00A7310F2793312000E9
:102B80005F08E9005E08E80008002000230880399B
:102B9000AD002335B300A21FCE2DCF2DD02D331481
:102BA00033080319D42DD52DE42D330A031DD92D57
:102BB000DA2DE22D0030A3000030A2000030A10089
:102BC0000030A000A217EC2D0030A3000030A200BE
:102BD0000030A1000030A00027088039AD0627355D
:102BE000B200A61FF42DF52DF62D3214320803196C
:102BF000FA2DFB2D0A2E320A031DFF2D002E082E62
:102C00000030A7000030A6000030A5000030A4006E
:102C1000A617122E0030A7000030A6000030A50035
:102C20000030A40032080319162E172E1C2E33086C
:102C3000031D1B2E1C2E252E0030A3000030A200E9
:102C40000030A1000030A000FF2F2008F00026086F
:102C500098310220953171082000B9007008B80041
:102C60003808A800A901AA01AB012B08B1002A0865
:102C7000B0002908AF002808AE003908A800A90153
:102C8000AA01AB012B08B7002A08B6002908B50035
:102C90002808B4002108F000250898310220953159
:102CA00071082000B9007008B8003808A800A90110
:102CB000AA01AB012808AE072908AF3D2A08B03D9C
:102CC0002B08B13D3908A800A901AA01AB012808C9
:102CD000B4072908B53D2A08B63D2B08B73D2208A0
:102CE000F000240898310220953171082000B900C5
:102CF0007008B8003808A800A901AA01AB0128088B
:102D0000AE072908AF3D2A08B03D2B08B13D390870
:102D1000A800A901AA01AB012808B4072908B53DFC
:102D20002A08B63D2B08B73D0830AE35AF0DB00DC3
:102D3000B10D890B952E2108F0002408983102204E
:102D4000953171082000B9007008B8003808AE0746
:102D50003908AF3D0030B03DB13D2008F0002508F6
:102D600098310220953171082000B9007008B80030
:102D70003808AE073908AF3D0030B03DB13D0830EE
:102D8000AE35AF0DB00DB10D890BC02E2008F0008F
:102D9000240898310220953171082000B90070088C
:102DA000B8003808AE073908AF3D0030B03DB13D3E
:102DB0002108F00026089831022095317108200082
:102DC000B9007008B8003808B4073908B53D0030BC
:102DD000B63DB73D2208F000250898310220953114
:102DE00071082000B9007008B8003808B407390825
:102DF000B53D0030B63DB73D2208F00026089831B9
:102E00000220953171082000B9007008B800380818
:102E1000A8003908A900AA01AB010830A835A90DFE
:102E2000AA0DAB0D890B0E2F2808B4072908B53D54
:102E30002A08B63D2B08B73D2E08A8002F08A90088
:102E40003008AA003108AB001830AB36AA0CA90C28
:102E5000A80C890B252F2808B4072908B53D2A0896
:102E6000B63D2B08B73D0830AE35AF0DB00DB10DF6
:102E7000890B342F33083207A800A901A90D2808AF
:102E8000823EB800FF30293DB9005D2F0130B435D6
:102E9000B50DB60DB70D890B472FB11F502F512F10
:102EA000522F34140130AE35AF0DB00DB10D890B7A
:102EB000532FFF30B807FF30B93DB61F602F612F89
:102EC000462FB201B11F652F662F822FFF302E05CE
:102ED000A800FF302F05A900FF303005AA007F3081
:102EE0003105AB002B082A04290428040319792F83
:102EF0007A2F7D2F0130B200822F341C802F812F3A
:102F0000822F7A2F32080319862F872FAD2F013099
:102F1000B4070030B53DB63DB73D371C902F912F1B
:102F2000AD2F3408A8003508A9003608AA003708D4
:102F3000AB000130AC00AB37AA0CA90CA80CAC0B51
:102F40009B2F2B08B7002A08B6002908B5002808CF
:102F5000B4000130B8070030B93D3908803AA80004
:102F600080302802031DB62FFF303802031CB92F12
:102F7000BA2FC42F7F302000B7008030B600003059
:102F8000B5000030B400F52F20003908803AA800C1
:102F900080302802031DCE2F013038020318D12FB4
:102FA000D22FDD2F00302000B7000030B6000030F7
:102FB000B5000030B400AD01F52F20003808B30093
:102FC000FF30B405FF30B5057F30B6050030B705DA
:102FD000331CEB2FEC2FED2FB6173308A800013070
:102FE000A836890BF02F2808B7002D08B70437083A
:102FF000A3003608A2003508A1003408A00008008C
:10300400F800F401F5017008F200F3017208F6000B
:103014007308F700781C0F28102814287608F40782
:103024007708F53D0130F635F70D890B15280310A7
:10303400F80C7808031D1F2820280C287508F100B7
:103044007408F000080000307005F80000307105C5
:10305400F90080307205FA007F307305FB007B08AD
:103064007A0479047804031D38283928412800306B
:10307400F3000030F2000030F1000030F0000030C6
:103084007405F80000307505F90080307605FA0003
:103094007F307705FB007B087A0479047804031DEC
:1030A400542855285D280030F7000030F600003021
:1030B400F5000030F400F31F6028612879280030FF
:1030C400F8000030F9000030FA008030FB0070088E
:1030D400F8027108F93B7208FA3B7308FB3B7B0862
:1030E400F3007A08F2007908F1007808F000F71F7D
:1030F4007C287D2895280030F8000030F900003045
:10310400FA008030FB007408F8027508F93B760871
:10311400FA3B7708FB3B7B08F7007A08F60079084E
:10312400F5007808F4008030F3068030F70677085D
:103134007302031DA72876087202031DA7287508C9
:103144007102031DA728740870020318AA28AB286B
:10315400AD280310AE2803140800F80078080319FA
:10316400B428B528C928F31FB828B928C928700974
:10317400FA007109FB007209FC007309FD00FA0AE8
:103184000319FB0A0319FC0A0319FD0AD128730861
:10319400FD007208FC007108FB007008FA00730857
:1031A400720471047004031DD828D928E228003061
:1031B400F3000030F2000030F1000030F00052293A
:1031C4009630F900EE280130F9070130FD36FC0C89
:1031D400FB0CFA0C890BE828FE307D05031DF3284F
:1031E400F428E52804290130F9070130FA070030F2
:1031F400FB3DFC3DFD3D0130FD36FC0CFB0CFA0CA7
:10320400890BFE28FF307D05031D09290A29F528AD
:1032140014290130F9020130FA35FB0DFC0DFD0DC6
:10322400890B0E29FC1B172918291E290230790243
:1032340003181D291E290B297918212922292A2935
:10324400FF30FA05FF30FB057F30FC05FF30FD053C
:103254000310F90C7908F400F501F601F7011830B0
:10326400F435F50DF60DF70D890B32297408FA04BF
:103274007508FB047608FC047708FD047808031934
:10328400442945294A29F31F482949294A29FD1770
:103294007D08F3007C08F2007B08F1007A08F00056
:1032A400080000302000A7000030A6000030A50070
:1032B4000030A4000130A300E830A2004830A1008F
:1032C4000030A0007A08B0007B08B1007C08B2008E
:1032D4007D08B3000030B31BFF30B400B500B60066
:1032E400B70013302000B035B10DB20DB30DB40DDD
:1032F400B50DB60DB70D890B742920003708AF0042
:103304003608AE003508AD003408AC003308AB0015
:103314003208AA003108A9003008A800A7317E2786
:10332400993120002008B8002108B9002208BA0009
:103334002308BB002408BC002508BD002608BE00E5
:103344002708BF003830860000308700403FB000B7
:10335400413FB100423FB200433FB300443FB40099
:10336400453FB500463FB600473FB7001030200048
:10337400B736B60CB50CB40CB30CB20CB10CB00C23
:10338400890BB92920003008F5000630A03113203C
:1033940099313830860000308700403F2000B0006B
:1033A400413FB100423FB200433FB300443FB40049
:1033B400453FB500463FB600473FB7000830200000
:1033C400B736B60CB50CB40CB30CB20CB10CB00CD3
:1033D400890BE12920003008F5000730A0311320C3
:1033E400993120003808F5000830A03113209931B4
:1033F4000800232A03108C1C03140318022A052A2C
:1034040020008C14072A20008C1002302000E100D8
:103414000430E000BA30890B0D2AE00B0D2AE10BD1
:103424000D2A000021006908E90A2000E0000B30A1
:103434006002031C1E2A1F2A232A01309E310426FF
:10344400993120008C1D272A282AFC2921001012DA
:10345400B730F0000030F1000030F200F30010301B
:10346400F4000030F500A1314D2199312100C7014C
:1034740020008D138C10A0312F2099317008210069
:10348400EA004708B73E860087016A0881000130D8
:10349400C70711304702031C502A512A602AC7016A
:1034A400B730F0000030F1000030F200F3001030CB
:1034B400F4000030F500A1314D2199312100470875
:1034C400FF3EB73E8600870103300106031D6B2AC9
:1034D4006C2AA32A4708FE3EB73E860087010330C4
:1034E4000106031D762A772AA32A20008C14C830EB
:1034F4000032890B7A2AB7302000C900210047081E
:103504002000CA005F08CB008B31082399310730B3
:103514002000E0007D30890B8D2AE00B8D2A2000ED
:103524008C10B730F0000030F1000030F200F300EE
:103534001030F4000030F500A1314D219931210003
:10354400C70164003D2A08002100490886000130B3
:103554008700953001060319B02AB12ABC2A49080C
:1035640086000130870096300106031DBA2ABC2A62
:103574008431C12C6E080319C02AC22A8131CA2998
:103584000330CF005C08FF3CCE00031CCF034C0883
:10359400803AD0004F08803A5002031DD32A4E08C7
:1035A4004B02031CD62AD72AE12A21004A088600A6
:1035B40001308700643081000130EE00C02A0330FE
:1035C4002100CF005C089A3CCE00031CCF034C08BA
:1035D400803AD0004F08803A5002031DF32A4E0867
:1035E4004B02031CF62AF72A302B21005C089A3E72
:1035F400CE00033003180430CF004F08803AD000C7
:103604004C08803A5002031D092B4B084E02031C40
:103614000C2B0D2B302B21004A0A86000130870029
:10362400643001060319172B182B262B4A0A86002F
:103634000130870001080319202B212B262B4D0371
:10364400031D252B262B2D2B4A08860001308700CD
:103654005F308100DE2AFF308731922F0330210052
:10366400CF005C08333CCE00031CCF034C08803AE7
:10367400D0004F08803A5002031D422B4E084B02E3
:10368400031C452B462B7C2B21005C08333ECE00CB
:10369400033003180430CF004F08803AD0004C08A0
:1036A400803A5002031D582B4B084E02031C5B2B1F
:1036B4005C2B7C2B21004A0A8600013087005F3096
:1036C40001060319662B672B752B4A0A8600013005
:1036D4008700010803196F2B702B752B4D03031DF5
:1036E400742B752B2D2B4A088600013087005A3025
:1036F4008100DE2A02302100CF005C08CD3CCE00E0
:10370400031CCF034C08803AD0004F08803A500283
:10371400031D8E2B4E084B02031C912B922BC82B9E
:1037240021005C08CD3ECE00023003180330CF00E8
:103734004F08803AD0004C08803A5002031DA42B55
:103744004B084E02031CA72BA82BC82B21004A0AA6
:103754008600013087005A3001060319B22BB32BBF
:10376400C12B4A0A86000130870001080319BB2BCC
:10377400BC2BC12B4D03031DC02BC12B2D2B4A0881
:1037840086000130870055308100DE2A0230210096
:10379400CF005C08663CCE00031CCF034C08803A83
:1037A400D0004F08803A5002031DDA2B4E084B021A
:1037B400031CDD2BDE2B142C21005C08663ECE009E
:1037C400023003180330CF004F08803AD0004C0871
:1037D400803A5002031DF02B4B084E02031CF32BBE
:1037E400F42B142C21004A0A86000130870055303E
:1037F40001060319FE2BFF2B0D2C4A0A860001300B
:10380400870001080319072C082C0D2C4D03031DF8
:103814000C2C0D2C2D2B4A088600013087005030CB
:103824008100DE2A02302100CF005C08003CCE007B
:10383400031CCF034C08803AD0004F08803A500252
:10384400031D262C4E084B02031C2A2C80313828D9
:1038540080317028220035082100AD002200340890
:103864002100AC00220033082100AB002200320802
:103874002100AA00200059082100AD0020005808AA
:103884002100AC00200057082100AB00200056089E
:103894002100AA002A082000DA0021002B082000B9
:1038A400DB0021002C082000DC0021002D08200072
:1038B400DD001730DD36DC0CDB0CDA0C890B5C2CFC
:1038C400FF305A052100A800003020005B052100CC
:1038D400A9002908803A2000DA0080305A02031D2A
:1038E400762C963021002802031C792C7A2C7B2C10
:1038F400032E2100AD1B7F2C812C0130822C003043
:10390400B20032080319872C882C9D2C20005908FA
:10391400F3005808F2005708F1005608F000A031EF
:103924004E209C3173082000D9007208D800710819
:10393400D7007008D60021002908803A2000DA0058
:1039440080305A02031DA92C7E302100280203185E
:10395400AC2CAD2CB72C00302000D9000030D8009E
:103964000030D7000030D600032E4B302000BD00BD
:103974000030BC000030BB000030BA005908C10060
:103984005808C0005708BF005608BE009131A8214E
:103994009C3120003D082100B10020003C0821009A
:1039A400B00020003B082100AF0020003A082100AD
:1039B400AE00CB302000BD000030BC000030BB00A6
:1039C4000030BA00210031082000C1002100300875
:1039D4002000C00021002F082000BF0021002E0875
:1039E4002000BE009131A8219C3120003D08210017
:1039F400A30020003C082100A20020003B08210075
:103A0400A10020003A082100A00020005908D1009C
:103A14005808D0005708CF005608CE0021002308CC
:103A24002000D500210022082000D4002100210814
:103A34002000D300210020082000D200A23104225B
:103A44009C31200051082100B600200050082100BC
:103A5400B50020004F082100B40020004E082100CA
:103A6400B3000030A7000030A6000030A5000030ED
:103A7400A4003F30F3000030F2000030F1000030C9
:103A8400F0003608F7003508F6003408F50033086E
:103A9400F400983125209C310318512D522D5C2DB2
:103AA400BF302100A7008030A6000030A500003000
:103AB400A4007D2DBF30F3000030F2000030F1008F
:103AC4000030F00021003608F7003508F60034080D
:103AD400F5003308F400983125209C31031C732D24
:103AE400742D7D2D3F302100A7008030A6000030CA
:103AF400A5000030A40020005908BD005808BC00EF
:103B04005708BB005608BA00210036082000C1003F
:103B1400210035082000C000210034082000BF0027
:103B2400210033082000BE009131A8219C312000DF
:103B34003D082100B10020003C082100B000200015
:103B44003B082100AF0020003A082100AE002708FE
:103B54002000BD00210026082000BC00210025080B
:103B64002000BB00210024082000BA0021003108F5
:103B74002000C100210030082000C00021002F08CF
:103B84002000BF0021002E082000BE009131A82192
:103B94009C3120003D082100B60020003C08210093
:103BA400B50020003B082100B40020003A082100A1
:103BB400B30032080319DF2DE02DF42D3608F3008D
:103BC4003508F2003408F1003308F000A0314E202B
:103BD4009C3173082100B6007208B5007108B40066
:103BE4007008B30036082000D900210035082000F1
:103BF400D800210034082000D70021003308200019
:103C0400D60008002000A7002708031D0A2E0B2E4B
:103C14008B2E0030F000F100A13132219E31710869
:103C2400F5007008F400A03139209E31A331E0235F
:103C34009E317D082000B5007C08B40020008C1D56
:103C4400242E252E692E0030F0008030F100350836
:103C5400A5003408A4000C30A600250DA50CA40C66
:103C6400A60B2F2E24080F39F200A13169219E31B1
:103C74000130F0008030F100200035080F39F200E7
:103C8400A13169219E310230F0008030F100200022
:103C94003508A5003408A4000430A600250DA50CA1
:103CA400A40CA60B502E24080F39F200A13169216F
:103CB4009E310330F0008030F100200034080F39C9
:103CC400F200A13169219E3120008C108B2EA3318A
:103CD400E0239E317D082000B5007C08B400031069
:103CE4008C1C03140318772E7A2E20008C147C2E3F
:103CF40020008C10640002302000A5000430A400D1
:103D0400BA30890B832EA40B832EA50B832E0000BF
:103D1400202E0030B6007030B7000030F000703054
:103D2400F1002830F200A13169219E3101302000D8
:103D3400B6070030B73D3708F1003608F000F2014D
:103D4400A13169219E3101302000B6070030B73D12
:103D54003708F1003608F0001130F200A131692172
:103D64009E3101302000B6070030B73D3708F1001E
:103D74003608F0002530F200A13169219E3101306E
:103D84002000B6070030B73D3708F1003608F000D0
:103D94008030F200A13169219E3101302000B60744
:103DA4000030B73D3708F1003608F000F201F20A9E
:103DB400A13169219E3101302000B6070030B73DA2
:103DC4001030B6007030B7001030F0007030F100E1
:103DD400F201F20AA13169219E3101302000B607B7
:103DE4000030B73D3708F1003608F0009530F20096
:103DF400A13169219E3101302000B6070030B73D62
:103E04003708F1003608F0002730F200A1316921AB
:103E14009E3101302000B6070030B73D3708F1006D
:103E24003608F000BA30F200A13169219E31013028
:103E34002000B6070030B73D3708F1003608F0001F
:103E44001430F200A13169219E3101302000B607FF
:103E54000030B73D3708F1003608F000F201A13117
:103E640069219E3101302000B6070030B73D203073
:103E7400B6007030B7002030F0007030F100F2016D
:103E8400F20AA13169219E3101302000B6070030C9
:103E9400B73D9730AC000030AD002D08AB002C08C6
:103EA400AA002B08A9002A08A8003708F100360840
:103EB400F0002808F200A13169219E310130200070
:103EC400B6070030B73D3708F1003608F000283057
:103ED400F200A13169219E3101302000B607003083
:103EE400B73D3708F1003608F0000430F200A13184
:103EF40069219E3101302000B6070030B73D2330E0
:103F0400B2000030B3003308B1003208B000310809
:103F1400AF003008AE003708F1003608F0002E0874
:103F2400F200A13169219E3101302000B607003032
:103F3400B73D3708F1003608F000F201F20AA1316A
:103F440069219E3101302000B6070030B73D303082
:103F5400B6007030B7003030F0007030F100F2017C
:103F6400F20AA13169219E3101302000B6070030E8
:103F7400B73D3708F1003608F0009430F200A13163
:103F840069219E3101302000B6070030B73D370863
:103F9400F1003608F000F201A13169219E310130AF
:103FA4002000B6070030B73D3708F1003608F000AE
:103FB400F201A13169219E3101302000B6070030A1
:103FC400B73D3708F1003608F0000430F200A131A3
:103FD40069219E3101302000B6070030B73D370813
:103FE400F1003608F000F201A13169219E3101305F
:103FF4002000B6070030B73D630008002400951286
:104004000800F400F10174087F39A031B520A03113
:1040140008003200910192019301940195019601E7
:104024000800F6007508F10076088038A031B52044
:10403400A03108006030320099009B019D010330DB
:104044009F009E010800F0002000111E2A282B2842
:104054002628700823009A0008008731F027A03131
:10406400F200F3017208F0007308F100080074080C
:10407400FF3E2200DE00FF30753DDF00E001E1017C
:104084000800F0002400951370089100141C4B28BC
:104094004C2848281108080073087204710470043D
:1040A40003195528562858288030F30608001D3077
:1040B400A0310320A031FE39F5001D30A0311320BA
:1040C400A03108001D30A0310320A0310138F500D3
:1040D4001D30A0311320A0310800FC007C30F70013
:1040E4000130F8000030F900A4311C24A03108008C
:1040F4007108310092007008910015171514000022
:10410400000031001308080021008E018E142000E5
:104114000E108E100E118E110E168E128C108D171D
:104124008E130E130800A0310B20A031A031EC2017
:10413400A031A331A623A031A0311C20A031C0306E
:1041440021009E00080038302000C8000030B10073
:10415400B2003708B4003608B3004830B500A131C6
:10416400C521A0310800F200AF31D727A031720871
:10417400A0314320A0317108A0314320A031F300C5
:10418400AF31D427A03173080800F5012030A031E5
:104194001320A0311430F5002130A0311320A031B8
:1041A4003530F5003930A0311320A031080020004B
:1041B400031ADD28DE28E12801302100EB07553001
:1041C40021006B02031CE728E828EB280130ED00EE
:1041D400EB01080010303C00A0001130A1001830A1
:1041E4003D00A0001930A20040302400940021308A
:1041F4009500920121000E102400951208000A294E
:104204001A30FA00F830890B0529FA0B0529003217
:104214000030F800F900A231AF22A1317808790406
:1042240003191529162902290800A1310121A131F8
:10423400FD01262924087D07860087010108A03195
:104244006F20A1310130FD07200025087D02031CE9
:104254002C292D291C290030A2312422A131080047
:104264007008710403193729382944297008860015
:1042740071088700FF30C03FFF30C13FFF30C23FAD
:10428400FF30C33FFF30F300FF30F200FF30F10096
:10429400FF30F00008007108F7007008F6005C2990
:1042A4007608860077088700720881000130F607D7
:1042B4000030F73D0130F4020030F53B740A031D71
:1042C4006729750A031D67296829522908000B0DFF
:1042D4000B0D0139F3007108310092007008910050
:1042E40072089300151715158B1355309600AA30D4
:1042F4009600951495187F2980297C291511730C33
:10430400031C8B1303188B1708002100E701F50128
:104314009E2902307506031D9029912993290130A5
:10432400F50772087507860087010108A331362353
:10433400A131F4000130F50773087502031CA329A9
:10434400A4298B29740808000130A0310320A1316D
:10435400F70003307705033A031DB129B229B429C4
:104364000130C4291230A0310320A13108390319C6
:10437400BC29BD29C3290830F5001230A03113200F
:10438400A1310030080020003408FD003308FC008F
:10439400D72920003208A1003108A0007C30A200F7
:1043A4003508A30090311120A1317C0884007D08D8
:1043B40085001200031DDF29E029CB292000B1016B
:1043C400B2010800083023009F0090309D00243083
:1043D4009E009C010030F0000030F100AF31E02776
:1043E400A1310030F0000030F100AF31E627A131F7
:1043F4000030F0000030F100AF31DA27A1312100A4
:10440400E801080080302000D1065508BD0054089A
:10441400BC005308BB005208BA005108C100500840
:10442400C0004F08BF004E08BE009131A821A23140
:1044340020003D08D1003C08D0003B08CF003A08DA
:10444400CE000800F7008330F5000130A0311320BE
:10445400A231770803192F2A302A342A3230890BE3
:10446400312A432A1230A0310320A231083903191A
:104474003C2A3D2A342A0830F5001230A03113209A
:10448400A23108002000C800502A1A302000C700BA
:10449400F830890B4B2AC70B4B2A0000363020001A
:1044A400C3008930C200CA30C100C030C00048080F
:1044B400C400A531A925A2312000400841040319F4
:1044C400642A652A472A0800240095162000360825
:1044D400A6003708A700A5315425A2314130200099
:1044E400B800EE30890B742AB80B742A000020003F
:1044F4003608A6003708A700A5315425A231AF31EC
:10450400F927A231A0310020A2310800F101A82A24
:1045140003108C1C03140318902A932A20008C1473
:10452400952A20008C104130F000EE30890B982A37
:10453400F00B982A00327108F10AF000153070026D
:10454400031CA52AA62AA82A0130AE2A20008C1D05
:10455400AC2AAD2A8A2A00300800A131A621A23152
:10456400003A0319B62AB72ABA2AF801F901D82A57
:10457400AF31F227A231780879040319C22AC32A79
:10458400C72AA0316420A231CA2AA0315920A231FD
:10459400F5010D30A0311320A231F5012230A031F4
:1045A4001320A2310130F8000030F9000800273050
:1045B40086000030870006302000A60000301E0070
:1045C400A60BE12A21005A082000A70021005B085D
:1045D4002000A8003430AA000130AB001E30AC002B
:1045E4002730F2000630F300A1318721A2312000E8
:1045F400A9002730A4000630A500A1311721A2315B
:1046040008000030FB000030FA000030F9000030F0
:10461400F800701C0E2B0F2B172B7408F807750865
:10462400F93D7608FA3D7708FB3D0130F435F50D88
:10463400F60DF70D890B182B0130F336F20CF10C43
:10464400F00C890B1F2B7308720471047004031D92
:104654002C2B2D2B0B2B7B08F3007A08F200790806
:10466400F1007808F0000800F000700821006706E7
:10467400F100711C3E2B3F2B412B5E30E706F11CF1
:10468400442B452B472BBC30E706711D4A2B4B2B83
:104694004D2B6130E706F11D502B512B532BC230AB
:1046A400E706711E562B572B592B9D30E706F11E3A
:1046B4005C2B5D2B5F2B2330E706711F622B632B72
:1046C400652B4630E706F11F682B692B6B2B8C306A
:1046D400E70667080800F9001B30F8007930790212
:1046E4000318752B762B872B0530F0000030F10072
:1046F4007908D33EF200FF3003180030F300A631EE
:104704005826A3317008F8009D2BF1307902031864
:104714008C2B8D2B9D2B0A30F0000030F100790892
:104724001E3EF200003003180130F300A631582673
:10473400A3317008F80078081F392038F5000B30D1
:10474400A0311320A331080022008C018D018E01B9
:104754002C3021008C0070308D0062308E002300DC
:104764008E0124308C0050308D0024008C018E0189
:104774008D0125008C018E018D01373026008C00BF
:104784003F308E003F3027008C003F308E001830C1
:104794003D00A00016303C00A4001030A0001930E9
:1047A4003D00A2001430A70011303C00A1002100FC
:1047B4001016270092159311911108002200610828
:1047C400F3006008F2005F08F1005E08F0004C306E
:1047D400F7009530F6007F30F5002D30F400A3315A
:1047E4000323A331013070072200DE000030713D45
:1047F400DF000030723DE0000030733DE1005E08F0
:104804002000A00022005F082000A1002200600810
:104814002000A200220061082000A3001130A3366A
:10482400A20CA10CA00C890B112C2108FD0020085E
:10483400FC0008002230A0310320A431FA00FB015F
:104844007A082000A2007B08A30078082207FA0057
:104854007908233DFB0001307B02003003197A0202
:10486400031C352C362C3F2CFF30FA0022087A0228
:10487400F80023090318890AF900A001A101512CA9
:1048840077082007860087010108F5000030A03171
:104894001320A43101302000A0070030A13D790885
:1048A4002102031D572C78082002031C5A2C5B2C70
:1048B400422C22087807F5002230A0311320A431BD
:1048C4007808F7007908F8000800FC001530F000BB
:1048D4000030F1007C08FA00FB017A08F2007B0842
:1048E400F300A5310325A4317008FC000F307C02CD
:1048F400031C7D2C7E2CAA2C12307C020318832CE2
:10490400842C972C8430F5004D30A0311320A43131
:104914007C08FE3E8038F5000930A0311320A43114
:104924006430A3316D23A431B22C8730F5004D30AF
:10493400A0311320A4317C08FB3E8038F5000930F7
:10494400A0311320A4318C30A3316D23A431B22CB7
:104954007C08013E7038F5000930A0311320A431E1
:104964000800F3002400951AB82CB92C022D730802
:10497400F000F101F035F10DF035F10D053070075F
:1049840084003030713D803885000008940073083D
:10499400F000F101F035F10DF035F10D0430700740
:1049A40084003030713D8038850000089500960100
:1049B4007308F000F101F035F10DF035F10D06301A
:1049C400700784003030713D803885000008920003
:1049D4007308F000F101F035F10DF035F10D0730F9
:1049E400700784003030713D803885000008F20083
:1049F40021000E087206FE3972068E0024009516F8
:104A04000800F501F31F072D082D0F2DF209F309F6
:104A1400F20A0319F30A0130F500F11F122D132DC8
:104A2400182DF009F109F00A0319F10A700871044C
:104A340003191D2D1E2D452D0130F400282D0130A4
:104A4400F035F10D890B222D0130F407F11F2B2DC8
:104A54002C2D212D71087302031D322D7008720252
:104A6400031C352D362D3A2D7008F2027108F33BE4
:104A74000130F136F00C890B3B2D0130F402031D9B
:104A8400442D452D2C2D75080319492D4A2D4F2DE4
:104A9400F209F309F20A0319F30A7308F100720820
:104AA400F00008002A308600003087000C30200017
:104AB400A80000301E00A80B5C2D21005A0820001D
:104AC400AA0021005B082000AB003430AD002608AA
:104AD4008600013087000108AE002608053E8600E6
:104AE400013087000108AF000230B000260A8600BA
:104AF40001308700403FA800413FA9002908B100C8
:104B0400260A8600013087000108B2002708B30096
:104B14002608063E8600013087000108B4002608F6
:104B2400043E8600013087000108B5002A30F200F7
:104B34000C30F300A1318721A5312000AC002A30CC
:104B4400A4000C30A500A1311721A53108002000D4
:104B54008E150E120D302000C500FB30890BB02DD0
:104B6400C50BB02D003220000E160D302000C500FC
:104B7400FB30890BBB2DC50BBB2D00324230A0315D
:104B84000320A5312000C600123046060319CB2DA0
:104B9400CC2DCF2DC001C101FF2DAF31F927A53197
:104BA40020004308FD004208FC004108FB004008C7
:104BB400FA0099315321A531F5010E30A0311320AB
:104BC400A531F5010F30A0311320A5310C30A031EF
:104BD4000320A5312338F5000C30A0311320A53172
:104BE40020004408A4316724A531AF31F227A53150
:104BF40001302000C0000030C10008000030FB007C
:104C04000030FA000030F9000030F8007308720434
:104C14007104700403190F2E102E4F2E0130FC0066
:104C24001C2E0130F035F10DF20DF30D890B142E0D
:104C34000130FC07F31F1F2E202E132E0130F835F0
:104C4400F90DFA0DFB0D890B212E73087702031D54
:104C5400352E72087602031D352E71087502031D68
:104C6400352E70087402031C382E392E422E70081B
:104C7400F4027108F53B7208F63B7308F73B7814AD
:104C84000130F336F20CF10CF00C890B432E013099
:104C9400FC02031D4E2E4F2E202E7B08F3007A08B3
:104CA400F2007908F1007808F0000800F501F11F1E
:104CB4005C2E5D2E642EF009F109F00A0319F10A45
:104CC4000130F500F31F672E682E6F2EF209F309E9
:104CD400F20A0319F30A0130F506F601F701700828
:104CE40071040319762E772EA42E0130F400812E40
:104CF4000130F035F10D890B7B2E0130F407F11FE3
:104D0400842E852E7A2E0130F635F70D890B862EEA
:104D140071087302031D902E70087202031C932EF7
:104D2400942E992E7008F2027108F33B7614013028
:104D3400F136F00C890B9A2E0130F402031DA32ED8
:104D4400A42E852E75080319A82EA92EAE2EF609B9
:104D5400F709F60A0319F70A7708F1007608F00054
:104D64000800740875040319B82EB92EBF2E7408F0
:104D74007504031DBE2EBF2EC42E7208AF31EC275E
:104D8400A6310E2F74088600750887004931160075
:104D940001040319CE2ECF2EEF2E74088600750859
:104DA40087004931403FF600413FF7007408860010
:104DB400750887004231403FF800413FF900790807
:104DC400803AFA007708803A7A02031DEB2E7608BF
:104DD40078020318EE2EEF2E0E2F74088600750845
:104DE400870042317408840075088500003FF6008E
:104DF400013FF700403F76078400413F773D85003F
:104E040072088000740886007508870042310130FA
:104E1400810741310318810A080003102000600D46
:104E2400610DE7006708031D182F192F222F00308A
:104E3400E1000030E0000030DF000030DE007D2FB4
:104E44005E08E2005F08E3006008E4006108E50032
:104E54001F30E536E40CE30CE20C890B2B2F6208BF
:104E6400E600E017FF30DE05FF30DF05FF30E00528
:104E74000030E1059630E702E71F412F422F582FFB
:104E84006708803A973E0318482F492F4A2F192F55
:104E94000130E136E00CDF0CDE0C890B4B2F0130C6
:104EA400E707031D562F572F4A2F6D2F2030670217
:104EB400031C5D2F5E2F682F192F0130DE35DF0DA7
:104EC400E00DE10D890B602F0130E7026708031D37
:104ED4006C2F6D2F5F2F66080319712F722F7D2F92
:104EE400DE09DF09E009E109DE0A0319DF0A031913
:104EF400E00A0319E10A08007130860000308700D7
:104F04000830F00000301E00F00B852F2000200830
:104F14002104220423042404250426042704031959
:104F2400942F952FEF2F0130F900A22FA035A10D5A
:104F3400A20DA30DA40DA50DA60DA70D0130F90713
:104F4400A71FA52FA62F982FF135F20DF30DF40D01
:104F5400F50DF60DF70DF80D27082F02031DCC2FC4
:104F640026082E02031DCC2F25082D02031DCC2F4D
:104F740024082C02031DCC2F23082B02031DCC2F45
:104F840022082A02031DCC2F21082902031DCC2F3D
:104F940020082802031CCF2FD02FE12F2008A802BD
:104FA4002108A93B2208AA3B2308AB3B2408AC3BBD
:104FB4002508AD3B2608AE3B2708AF3B7114A73646
:104FC400A60CA50CA40CA30CA20CA10CA00C0130E3
:104FD400F902031DEE2FEF2FA62F7108A00072080F
:104FE400A1007308A2007408A3007508A400760841
:104FF400A5007708A6007808A700080000347034DC
:105004003C343034783425347834253478343E34A0
:105014003C34253464343E343C34253464343E34E6
:105024003C34253464343E343C34253464343E34D6
:105034003C34253464343E343C34253464343E34C6
:105044000D340A3400343C34253463343E343C3467
:10505400253464343E343C34303478342534783464
:105064003E343C34253464343E343C342534643496
:105074003E343C34253464343E340D340A34003434
:105084003C346534723472346F3472343E340D34CB
:105094000A3400343C346F346B343E340D340A34F7
:0250A4000034D6
:105FA80020008E15080020008E11080071082200BC
:105FB800BB007008BA00080071082200BF00700812
:105FC800BE00080071082200BD007008BC0008006F
:105FD800F1007108A0312520AF3108008130F500AB
:105FE8000130A0311320AF3108008030F5000130B6
:105FF800A0311320AF3108000034003400344B3492
:0A6008002034403401340034103419
:020000040001F9
:08000E00EC3F1E2FFF1FFF3F16
:00000001FF
