:1000000080311128013401347E14803100308600A3
:10001000003087002700931101302300EB007E1091
:100020000900803113282300803102208031EB0049
:10003000803103208031EC00A03084000130850045
:100040002F3088310020803120308400023085003C
:100050002E30883100208031A030840002308500AD
:1000600050308831002080317E10200090313328BC
:1000700023002208003ED400023003180330D500CC
:100080005508803AD6005208803A5602031D4A2885
:1000900051085402031C4D284E2870282300500A92
:1000A000860001308700503001060319582859286E
:1000B0006828500A8600013087000108031961286A
:1000C000622868285303031D66286828A131102977
:1000D00050088600013087004B308100A031C128D4
:1000E00001302300D50022089A3CD400031CD5031C
:1000F0005208803AD6005508803A5602031D8228DD
:1001000054085102031C85288628BC282300220895
:100110009A3ED400013003180230D5005508803AC9
:10012000D6005208803A5602031D982851085402FE
:10013000031C9B289C28BC282300500A8600013001
:1001400087004B3001060319A628A728B528500AB6
:1001500086000130870001080319AF28B028B528B0
:100160005303031DB428B5286628500886000130C3
:100170008700463081006E2801302300D500220818
:10018000333CD400031CD5035208803AD6005508EE
:10019000803A5602031DCE2854085102031CD12870
:1001A000D228082923002208333ED4000130031846
:1001B0000230D5005508803AD6005208803A5602DF
:1001C000031DE42851085402031CE728E8280829E5
:1001D0002300500A860001308700463001060319CB
:1001E000F228F3280129500A86000130870001080F
:1001F0000319FB28FC2801295303031D00290129A9
:1002000066285008860001308700413081006E2842
:1002100000302300D5002208CD3CD400031CD503B8
:100220005208803AD6005508803A5602031D1A2912
:1002300054085102031C1D291E2954292300220899
:10024000CD3ED400003003180130D5005508803A67
:10025000D6005208803A5602031D30295108540234
:10026000031C3329342954292300500A8600013005
:1002700087004130010603193E293F294D29500AC4
:1002800086000130870001080319472948294D29B4
:100290005303031D4C294D29662850088600013060
:1002A00087003C3081006E2800302300D5002208F2
:1002B000663CD400031CD5035208803AD60055088A
:1002C000803A5602031D662954085102031C69290D
:1002D0006A29A02923002208663ED40000300318B2
:1002E0000130D5005508803AD6005208803A5602AF
:1002F000031D7C2951085402031C7F298029A02951
:100300002300500A8600013087003C3001060319A3
:100310008A298B299929500A860001308700010813
:1003200003199329942999295303031D982999297D
:1003300066285008860001308700373081006E281B
:1003400000302300D50022081E3CD400031CD50336
:100350005208803AD6005508803A5602031DB22949
:1003600054085102031CB529B629C9292300520893
:10037000803A803C031DBE2951082202031CC1297A
:10038000C229C92923005008860001308700323075
:1003900081002300EC016C08031DCF29D029922F86
:1003A0000330D5002208FF3CD400031CD5035208BB
:1003B000803AD6005508803A5602031DE1295408B8
:1003C0005102031CE429E529ED2923005008860089
:1003D0000130870032308100922F03302300D50096
:1003E00022089A3CD400031CD5035208803AD60058
:1003F0005508803A5602031DFF2954085102031C78
:10040000022A032A392A230022089A3ED400033004
:1004100003180430D5005508803AD6005208803AB7
:100420005602031D152A51085402031C182A192AC2
:10043000392A2300500A8600013087003230010635
:100440000319232A242A322A500A86000130870001
:10045000010803192C2A2D2A322A5303031D312A9D
:10046000322A662850088600013087002D3081002E
:10047000922F03302300D5002208333CD400031C04
:10048000D5035208803AD6005508803A5602031D1B
:100490004B2A54085102031C4E2A4F2A852A230056
:1004A0002208333ED400033003180430D500550829
:1004B000803AD6005208803A5602031D612A51083C
:1004C0005402031C642A652A852A2300500A8600E8
:1004D000013087002D30010603196F2A702A7E2A09
:1004E000500A86000130870001080319782A792A0A
:1004F0007E2A5303031D7D2A7E2A66285008860023
:100500000130870028308100922F02302300D5006F
:100510002208CD3CD400031CD5035208803AD600F3
:100520005508803A5602031D972A54085102031CAD
:100530009A2A9B2AD12A23002208CD3ED4000230D9
:1005400003180330D5005508803AD6005208803A87
:100550005602031DAD2A51085402031CB02AB12AC9
:10056000D12A2300500A8600013087002830010676
:100570000319BB2ABC2ACA2A500A86000130870008
:1005800001080319C42AC52ACA2A5303031DC92A0C
:10059000CA2A66285008860001308700233081006F
:1005A000922F02302300D5002208663CD400031CA1
:1005B000D5035208803AD6005508803A5602031DEA
:1005C000E32A54085102031CE62AE72A1D2B2300C4
:1005D0002208663ED400023003180330D5005508C7
:1005E000803AD6005208803A5602031DF92A510873
:1005F0005402031CFC2AFD2A1D2B2300500A8600EE
:1006000001308700233001060319072B082B162B16
:10061000500A86000130870001080319102B112BA6
:10062000162B5303031D152B162B66285008860026
:10063000013087001E308100922F02302300D50048
:100640002208003CD400031CD5035208803AD6008F
:100650005508803A5602031D2F2B54085102031CE3
:10066000322B332B692B23002208003ED4000230AA
:1006700003180330D5005508803AD6005208803A56
:100680005602031D452B51085402031C482B492BCD
:10069000692B2300500A8600013087001E300106B6
:1006A0000319532B542B622B500A8600013087000C
:1006B000010803195C2B5D2B622B5303031D612B77
:1006C000622B6628500886000130870019308100AF
:1006D000922F01302300D50022089A3CD400031C3D
:1006E000D5035208803AD6005508803A5602031DB9
:1006F0007B2B54085102031C7E2B7F2BB52B230030
:1007000022089A3ED400013003180230D500550863
:10071000803AD6005208803A5602031D912B5108A8
:100720005402031C942B952BB52B2300500A8600F2
:10073000013087001930010603199F2BA02BAE2B27
:10074000500A86000130870001080319A82BA92B45
:10075000AE2B5303031DAD2BAE2B6628500886002D
:100760000130870014308100922F01302300D50022
:100770002208333CD400031CD5035208803AD6002B
:100780005508803A5602031DC72B54085102031C1A
:10079000CA2BCB2B012C23002208333ED40001307E
:1007A00003180230D5005508803AD6005208803A26
:1007B0005602031DDD2B51085402031CE02BE12BD4
:1007C000012C2300500A86000130870014300106F6
:1007D0000319EB2BEC2BFA2B500A86000130870013
:1007E00001080319F42BF52BFA2B5303031DF92BE6
:1007F000FA2B662850088600013087000F308100F0
:10080000922F00302300D5002208CD3CD400031CD9
:10081000D5035208803AD6005508803A5602031D87
:10082000132C54085102031C162C172C4D2C23009A
:100830002208CD3ED400003003180130D500550801
:10084000803AD6005208803A5602031D292C5108DE
:100850005402031C2C2C2D2C4D2C2300500A8600F6
:10086000013087000F3001060319372C382C462C35
:10087000500A86000130870001080319402C412CE2
:10088000462C5303031D452C462C66285008860031
:10089000013087000A308100922F00302300D500FC
:1008A0002208663CD400031CD5035208803AD600C7
:1008B0005508803A5602031D5F2C54085102031C50
:1008C000622C632C992C23002208663ED400003051
:1008D00003180130D5005508803AD6005208803AF6
:1008E0005602031D752C51085402031C782C792CD8
:1008F000992C2300500A8600013087000A30010637
:100900000319832C842C922C500A86000130870016
:10091000010803198C2C8D2C922C5303031D912C50
:10092000922C66285008860001308700053081002F
:10093000922F00302300D50022081E3CD400031C57
:10094000D5035208803AD6005508803A5602031D56
:10095000AB2C54085102031CAE2CAF2C662823008C
:100960005208803A803C031DB72C51082202031C18
:10097000BA2CBB2C66282300500886000130870063
:100980008101922F4F0886000230870097300106C0
:10099000031DCB2CCC2CB42D0330D5002208FE3CFB
:1009A000D400031CD5035208803AD6005508803A7B
:1009B0005602031DDD2C54085102031CE02CE12CCF
:1009C000E82C230050088600013087008101922F17
:1009D00002302300D5002208603CD400031CD5035C
:1009E0005208803AD6005508803A5602031DFA2C68
:1009F00054085102031CFD2CFE2C342D2300220828
:100A0000603ED400023003180330D5005508803A08
:100A1000D6005208803A5602031D102D5108540288
:100A2000031C132D142D342D2300500A8600013091
:100A300087004630010603191E2D1F2D2D2D500A4B
:100A400086000130870001080319272D282D2D2D40
:100A50005303031D2C2D2D2D922F5008860001309D
:100A6000870023308100922F01302300D500220817
:100A7000483CD400031CD5035208803AD6005508E0
:100A8000803A5602031D462D54085102031C492D7D
:100A90004A2D802D23002208483ED400013003183F
:100AA0000230D5005508803AD6005208803A5602E6
:100AB000031D5C2D51085402031C5F2D602D802DF9
:100AC0002300500A860001308700643001060319B4
:100AD0006A2D6B2D792D500A8600013087000108A0
:100AE0000319732D742D792D5303031D782D792D42
:100AF000922F500886000130870046308100922FE7
:100B000000302300D50022089C3CD400031CD503F0
:100B10005208803AD6005508803A5602031D922D9D
:100B200054085102031C952D962D66282300220897
:100B30009C3ED400003003180130D5005508803A9F
:100B4000D6005208803A5602031DA82D51085402BF
:100B5000031CAB2DAC2D6628230050088600013005
:100B6000870064308100922F4F0886000230870092
:100B700057300106031DBD2DBE2DF22E0330D500CA
:100B80002208FE3CD400031CD5035208803AD6004C
:100B90005508803A5602031DCF2D54085102031CFC
:100BA000D22DD32DDA2D2300500886000130870086
:100BB0008101922F02302300D5002208FD3CD40091
:100BC000031CD5035208803AD6005508803A5602D5
:100BD000031DEC2D54085102031CEF2DF02D262E81
:100BE00023002208FD3ED400023003180330D50054
:100BF0005508803AD6005208803A5602031D022E4C
:100C000051085402031C052E062E262E2300500ADE
:100C1000860001308700323001060319102E112E94
:100C20001F2E500A86000130870001080319192E73
:100C30001A2E1F2E5303031D1E2E1F2E922F5008F7
:100C400086000130870019308100922F0130230087
:100C5000D5002208FB3CD400031CD5035208803A7F
:100C6000D6005508803A5602031D382E540851020A
:100C7000031C3B2E3C2E722E23002208FB3ED40088
:100C8000013003180230D5005508803AD6005208CA
:100C9000803A5602031D4E2E51085402031C512E59
:100CA000522E722E2300500A8600013087004B30EE
:100CB000010603195C2E5D2E6B2E500A8600013052
:100CC000870001080319652E662E6B2E5303031D42
:100CD0006A2E6B2E922F500886000130870032302A
:100CE0008100922F01302300D5002208273CD40038
:100CF000031CD5035208803AD6005508803A5602A4
:100D0000031D842E54085102031C872E882EBE2EEC
:100D100023002208273ED400013003180230D500FA
:100D20005508803AD6005208803A5602031D9A2E82
:100D300051085402031C9D2E9E2EBE2E2300500AE5
:100D4000860001308700643001060319A82EA92E01
:100D5000B72E500A86000130870001080319B12E12
:100D6000B22EB72E5303031DB62EB72E922F500866
:100D70008600013087004B308100922F0030230025
:100D8000D5002208953CD400031CD5035208803AB4
:100D9000D6005508803A5602031DD02E5408510241
:100DA000031CD32ED42E662823002208953ED4009F
:100DB000003003180130D5005508803AD60052089B
:100DC000803A5602031DE62E51085402031CE92EF8
:100DD000EA2E662823005008860001308700643020
:100DE0008100922F4F08860002308700993001065B
:100DF000031DFB2EFC2E782F0330D5002208FE3C6D
:100E0000D400031CD5035208803AD6005508803A16
:100E10005602031D0D2F54085102031C102F112FD1
:100E2000182F230050088600013087008101922F7F
:100E300001302300D5002208A33CD400031CD503B5
:100E40005208803AD6005508803A5602031D2A2FD0
:100E500054085102031C2D2F2E2F642F230022082B
:100E6000A33ED400013003180230D5005508803A63
:100E7000D6005208803A5602031D402F51085402F2
:100E8000031C432F442F642F2300500A8600013097
:100E900087006430010603194E2F4F2F5D2F500A33
:100EA00086000130870001080319572F582F5D2F46
:100EB0005303031D5C2F5D2F922F500886000130D5
:100EC000870019308100922F23005208803A803C1D
:100ED000031D6C2F51082202031C6F2F702F6628F0
:100EE0002300500886000130870064308100922F73
:100EF0004F0886000230870094300106031D812FC1
:100F0000822F6628D21F852F862F8C2F50088600AF
:100F10000130870081016628500886000130870073
:100F2000510881000030080020002308A700220893
:100F3000A60026082704031D9E2F9F2FA32F4C30A9
:100F4000A600B830A700A801A901AA2F0130A80760
:100F50000030A93D2608280784002708293D850080
:100F60001200031DB42FB52FA62F2300B31BB92FDA
:100F7000BA2FD22F3308803AFB0020002908803A8C
:100F80007B02031DC62F2808230032020318C92F35
:100F9000CA2FD22F230033082000A90023003208D3
:100FA0002000A80020002908A5002808A400EF2F91
:100FB00026088400270885000008FB00FC017B0848
:100FC000F2007C08F3002108F5002008F400AA31A3
:100FD0000C22873101302000A6070030A73DFF30EA
:100FE000A407FF30A53D240A031DFA2F250A031D7F
:0E0FF000FA2FFB2FD82F0800240095120800BE
:10100000640080010131890B0128003423004E085F
:10101000F3004D08F2004C08F1004B08F0004C3092
:10102000F7009530F6007F30F5002D30F400903158
:1010300000208831013070072300CB000030713D63
:10104000CC000030723DCD000030733DCE004B0827
:101050002000A00023004C082000A10023004D0820
:101060002000A20023004E082000A3001130A33668
:10107000A20CA10CA00C890B37282108FD00200828
:10108000FC000800770880392000A4007735AB0009
:10109000F61F4B284C284D282B142B0803195128D8
:1010A000522862282B0A031D562857285F28003033
:1010B000F7000030F6000030F5000030F400F617BD
:1010C000F7016A280030F7000030F6000030F50024
:1010D0000030F40073088039A4067335AC00F21FA9
:1010E0007228732874282C142C080319782879285E
:1010F00089282C0A031D7D287E2886280030F300CD
:101100000030F2000030F1000030F000F217F3017F
:1011100091280030F3000030F2000030F100003080
:10112000F0007308720471047004031D9828992854
:10113000B0280030F7000030F6000030F500003035
:10114000F4008030F6047F30F7042408F7047708B1
:10115000F3007608F2007508F1007408F000E52944
:101160002B08031DB428B528BE280030F30000303A
:10117000F2000030F1000030F000E5292B08F80003
:10118000F9017908FB002C087802FA00031CFB0324
:101190007A087F3EA50000307B3DA6007708A300BB
:1011A0007608A2007508A1007408A0000030F700BE
:1011B0000030F6000030F5000030F4000030AA00E6
:1011C0000030A9000030A8000030A700AC0124299D
:1011D0002C080319EC28ED2807290130A035A10DB2
:1011E000A20DA30D890BEE280130F435F50DF60D97
:1011F000F70D890BF528AA1FFE28FF280029741473
:101200000130A735A80DA90DAA0D890B0129730876
:101210002302031D152972082202031D15297108D6
:101220002102031D152970082002031C1829192901
:1012300022292A177008A0027108A13B7208A23B5C
:101240007308A33B0130AC071A302C02031C292978
:101250002A29E8282308220421042004031931291B
:1012600032294B2927144B290130F435F50DF60DA1
:10127000F70D890B3529AA1F3E293F2940297414EF
:101280000130A735A80DA90DAA0D890B4129FF3002
:10129000A507FF30A63DF61F4E294F293429AC0182
:1012A000AA1F532954297029FF302705F800FF3061
:1012B0002805F900FF302905FA007F302A05FB00D8
:1012C0007B087A04790478040319672968296B2953
:1012D0000130AC007029741C6E296F2970296829AF
:1012E0002C080319742975299B290130F407003053
:1012F000F53DF63DF73D771C7E297F299B29740833
:10130000F8007508F9007608FA007708FB0001304C
:10131000FC00FB37FA0CF90CF80CFC0B89297B0854
:10132000F7007A08F6007908F5007808F400013033
:10133000A5070030A63D2608803AF80080307802E4
:10134000031DA429FF302502031CA729A829B529BC
:10135000FF302000A5000030A6000030F70000306C
:10136000F6000030F5000030F40020002608803A36
:10137000F80080307802031DBF29013025020318D0
:10138000C229C329CF292000A501A6010030F700FA
:101390000030F6000030F5000030F400A401200019
:1013A0002508AB002B1CD529D629D829F617DA2910
:1013B0007F30F6052B08F8000130F836890BDD295F
:1013C0007808F7002408F704A72808002100DC01AA
:1013D00020006D082100E20020006C082100E100DF
:1013E00020006B082100E00020006A082100DF00D7
:1013F00062082000BD00210061082000BC0021001F
:1014000060082000BB0021005F082000BA00003007
:10141000C1000030C0000030BF000030BE00AC3161
:10142000912489310318152A162A2D2A013021000A
:10143000DC006208F3006108F2006008F1005F0858
:10144000F000B231AC22893173082100E200720849
:10145000E1007108E0007008DF002100DD01DE011D
:10146000230031082100CD00230030082100CC00EA
:101470005C0803193C2A3D2A4D2A5C08031D412AB9
:10148000422A472A2B30C1000030C2004B2A2D309F
:10149000C1000030C2004108DC006208F3006108AE
:1014A000F2006008F1005F08F000AC3112248931CD
:1014B00070037104031D5D2A5E2A922A21005C08D4
:1014C0000319632A642A702A5C082500A000FF30F3
:1014D0002100CC07FF30CD3D0130DD000030DE00C3
:1014E0005D08A03EF0006730F100B830F200B33183
:1014F000AA238931FD302100CC07FF30CD3D2000EB
:101500006908A6006808A500A030A70021004D08C2
:101510002000A90021004C082000A800B6313D267B
:101520008931FF2F21006208F3006108F200600892
:10153000F1005F08F000AC311224893170087104A9
:10154000031DA32AA42AC12A21005C080319A92A81
:10155000AA2AB62A5C082500A000FF302100CC078B
:10156000FF30CD3D0130DD000030DE005D08A03EE3
:10157000F0006B30F100B830F200B331AA238931AA
:101580007A2A3F302100E6008030E5000030E40098
:101590000030E300CA01CB016208F3006108F200E9
:1015A0006008F1005F08F0000030F7000030F6003E
:1015B0000030F5000030F400B731B227893103184C
:1015C000E22AE32A102CF12A21005108E6005008F3
:1015D000E5004F08E4004E08E3000130CA07003080
:1015E000CB3D41302000A3002030A2000030A100FC
:1015F0000030A000210066082000A7002100650837
:101600002000A600210064082000A5002100630836
:101610002000A4009831E120893120002308210016
:10162000D100200022082100D00020002108210044
:10163000CF00200020082100CE004E085F02B70036
:101640004F08603BB8005008613BB9005108623B4D
:10165000BA003A08F3003908F2003808F1003708F8
:10166000F000B3317F238931F31B442B7308031D32
:10167000452B7208031D452B7108031D452B0230B5
:101680007002031C442B452BE42A21005108200042
:10169000BD00210050082000BC0021004F082000A0
:1016A000BB0021004E082000BA0021006208200083
:1016B000C100210061082000C00021006008200056
:1016C000BF0021005F082000BE00AC3191248931A9
:1016D000031C6B2B6C2BE42A210063085F02B7000C
:1016E0006408603BB8006508613BB9006608623B6E
:1016F000BA003A08F3003908F2003808F100370858
:10170000F000B3317F238931F31B952B7308031D40
:10171000942B7208031D942B7108031D942B023027
:1017200070020318942B952BE92B21006608E20028
:101730006508E1006408E0006308DF00102C413018
:10174000F3002030F2000030F1000030F000210002
:101750006608F7006508F6006408F5006308F40001
:1017600088314220893173082100E6007208E500C3
:101770007108E4007008E300FF30CA07FF30CB3D7A
:1017800063085F02B7006408603BB8006508613B0E
:10179000B9006608623BBA003A08F3003908F20063
:1017A0003808F1003708F000B3317F238931F31B8B
:1017B000E82B7308031DE72B7208031DE72B710844
:1017C000031DE72B023070020318E72BE82BE92BEF
:1017D000952B210062082000BD0021006108200037
:1017E000BC00210060082000BB0021005F08200031
:1017F000BA00210066082000C10021006508200011
:10180000C000210064082000BF0021006308200000
:10181000BE00AC3191248931031C0F2C102C9F2B5E
:1018200020006E082100C4004408C5002300B31B3B
:101830001A2C1B2C232C33082100BE002300320855
:101840002100BD00282C06302100BD000030BE0064
:101850003E08C9003D08C8000130C8070030C93D36
:1018600066304506031D352C362C4E2CCB1F392CEB
:101870003A2C442C3F30E6008030E5000030E40094
:101880000030E300CA01CB01673044060319492C3C
:101890004A2C4E2C4A08C8074B08C93DD201D30137
:1018A0006208D7006108D6006008D5005F08D40040
:1018B0006608D1006508D0006408CF006308CE0038
:1018C000192D21006608F3006508F2006408F10094
:1018D0006308F0005708F7005608F6005508F500B1
:1018E0005408F40088314220893173082000B00088
:1018F0007208AF007108AE007008AD00AF31152757
:101900008931200030082100DB0020002F08210051
:10191000DA0020002E082100D90020002D08210027
:10192000D8005B082000E10021005A082000E000F8
:10193000210059082000DF00210058082000DE00A7
:10194000AB312523893120005F082100C70020002A
:101950005E082100C60066082000A7002100650877
:101960002000A600210064082000A50021006308D3
:101970002000A40021005B082000A30021005A08D9
:101980002000A200210059082000A10021005808D1
:101990002000A0009831E120893120002308D100E7
:1019A0002208D0002108CF002008CE0021005708CF
:1019B0002000D500210056082000D4002100550841
:1019C0002000D300210054082000D200B431B324F9
:1019D0008931200051082100D70020005008210043
:1019E000D60020004F082100D50020004E0821001D
:1019F000D4004130F3002030F2000030F10000301C
:101A0000F0006608F7006508F6006408F500630852
:101A1000F40088314220893173082100E600720801
:101A2000E5007108E4007008E3000130D2070030DF
:101A3000D33D5308803AB7004908803A3702031D66
:101A4000232D48085202031C262D272D612C4030DF
:101A50002000A300A030A2000030A1000030A000B0
:101A6000210066082000A700210065082000A600CC
:101A7000210064082000A500210063082000A400C4
:101A80009831E1208931200023082100DB0020006B
:101A900022082100DA00200021082100D9002000BE
:101AA00020082100D80057082000BD00210056085A
:101AB0002000BC00210055082000BB002100540874
:101AC0002000BA0021005B082000C10021005A0854
:101AD0002000C000210059082000BF002100580844
:101AE0002000BE00AC31912489310318782D792D66
:101AF000832D00302100DB000030DA000030D900F7
:101B00000030D800A82D21005708F3005608F20035
:101B10005508F1005408F0005B08F7005A08F60079
:101B20005908F5005808F400B731B2278931031C71
:101B30009A2D9B2DA82D210046189F2DA02DA82D54
:101B40000030DB000030DA000030D9000030D8006F
:101B500021005B082000BD0021005A082000BC00C5
:101B6000210059082000BB00210058082000BA00BD
:101B7000210062082000C100210061082000C0008F
:101B8000210060082000BF0021005F082000BE0087
:101B9000A531F425893120003D082100D70020001F
:101BA0003C082100D60020003B082100D500200081
:101BB0003A082100D40057082000BD002100560833
:101BC0002000BC00210055082000BB002100540863
:101BD0002000BA004130A3002030A2000030A10054
:101BE0000030A000210051082000A700210050086B
:101BF0002000A60021004F082000A50021004E086B
:101C00002000A4009831E120893120002308C10080
:101C10002208C0002108BF002008BE00AC3191247A
:101C20008931031C142E152E502E01302100CA07B5
:101C30000030CB3D41302000A3002030A200003016
:101C4000A1000030A000210051082000A7002100C1
:101C500050082000A60021004F082000A500210008
:101C60004E082000A4009831E1208931200023088B
:101C70002100D100200022082100D00020002108EE
:101C80002100CF00200020082100CE00663045064C
:101C9000031D4B2E4C2E502E0130C8070030C93D7D
:101CA00021005108E6005008E5004F08E4004E0806
:101CB000E3004B08BC004A08BB00C301BF01C001E0
:101CC000D201D3018C2F21006608F3006508F200D1
:101CD0006408F1006308F0005708F7005608F600A2
:101CE0005508F5005408F400883142208931730802
:101CF0002000B0007208AF007108AE007008AD009F
:101D0000AF3115278931200030082100DB00200089
:101D10002F082100DA0020002E082100D900200021
:101D20002D082100D8005B082000E10021005A089E
:101D30002000E000210059082000DF0021005808A1
:101D40002000DE00AB312523893120005F08803A76
:101D50002100B70080303702031DB12E0A30200069
:101D60005E020318B42EB52ED12E21005B08200090
:101D7000E10021005A082000E0002100590820005D
:101D8000DF00210058082000DE00AB312523893117
:101D900020005F082100C70020005E082100C60067
:101DA000D62E09302100C6000030C7004308031DAD
:101DB000DA2EDB2E042FBC1FDE2EDF2E042F5D0853
:101DC000A03E8600023087002E3081000130DD0702
:101DD0000030DE3DFF30CC07FF30CD3D0130C30089
:101DE000042F5D08A03E860002308700303081005D
:101DF0000130DD070030DE3DFF30CC07FF30CD3D48
:101E0000FF30BF07FF30C03D3F084004031D092FCE
:101E10000A2FF12E5D08A03E86000230870046089A
:101E2000303E81000130DD070030DE3DFF30CC0761
:101E3000FF30CD3D66082000A70021006508200086
:101E4000A600210064082000A500210063082000EE
:101E5000A40021005B082000A30021005A082000F4
:101E6000A200210059082000A100210058082000EC
:101E7000A0009831E120893120002308D1002208F8
:101E8000D0002108CF002008CE00210057082000F4
:101E9000D500210056082000D4002100550820005C
:101EA000D300210054082000D200B431B32489317A
:101EB000200051082100D700200050082100D60042
:101EC00020004F082100D50020004E082100D4003A
:101ED0004130F3002030F2000030F1000030F0001B
:101EE0006608F7006508F6006408F5006308F4006A
:101EF00088314220893173082100E6007208E5002C
:101F00007108E4007008E300FF30BB07FF30BC3D00
:101F10000130D2070030D33D5308803AB70049085A
:101F2000803A3702031D962F480852020318992F52
:101F30009A2FA82F21005E08803AB7008030370220
:101F4000031DA42F4B305D02031CA72FA82F632E67
:101F50004F302100D2000030D3005208A03E86004E
:101F6000023087008101A030B7005D0837025207B8
:101F7000F000A030F1005E08F3005D08F200B5311A
:101F80003525893121005D085202DD005E08533B92
:101F9000DE005C08031DCD2FCF2F0130D02F003085
:101FA000B700B8013708D2003808D3005C0803191D
:101FB000DA2FDB2FE62FFF30DD07FF30DE3D5D0837
:101FC000A03E8600023087005C0881005208CC02E7
:101FD0005308CD3B20006908A6006808A500210031
:101FE0005D08A03E2000A70021004D082000A900A8
:101FF00021004C082000A800B6313D268931080098
:102000000030FB000030FA000030F9000030F8002A
:10201000701C0B280C2814287408F8077508F93D63
:102020007608FA3D7708FB3D0130F435F50DF60DE5
:10203000F70D890B15280130F336F20CF10CF00C7A
:10204000890B1C287308720471047004031D29286D
:102050002A2808287B08F3007A08F2007908F100A2
:102060007808F00008000130F0008030F100B23153
:10207000D82290310F392300E2000030F000803088
:10208000F100B231D82290312300E3000430E3356F
:10209000890B472863086204A1000330F0008030F8
:1020A000F100B231D82290310F392300E200023022
:1020B000F0008030F100B231D82290312300E300EB
:1020C0000430E335890B612863086204A000B33152
:1020D000022390312530210097002300200A031DA0
:1020E000722873287C28210A031D772878287C28E9
:1020F0000030A331F8239031C530F0000130F100F9
:102100000030F200F3000630F4000030F500B33187
:10211000DF2390313630F0000230F1000030F20061
:10212000F3001830F4000030F500B331DF239031B4
:1021300000302300E8007030E9000030F00070301B
:10214000F100B231D82290312300A2000130E8071B
:102150000030E93D6908F1006808F000B231D8228A
:1021600090312300A3000130E8070030E93D690801
:10217000F1006808F000B231D82290312300A400A9
:102180000130E8070030E93D6908F1006808F00017
:10219000B231D82290312300A5000130E807003089
:1021A000E93D6908F1006808F000B231D8229031A9
:1021B0002300A6000130E8070030E93D6908F1007E
:1021C0006808F000B231D8229031003A031DE928A6
:1021D000EB280130EC2800302300A7000130E8078D
:1021E0000030E93DEA016A08E200E301E20EE30E95
:1021F000F030E30562080F39E304F030E2056208CD
:10220000103EE8007030633DE9006A08E2000330E8
:10221000E235890B082962083D3E860002308700BE
:102220006908F1006808F000B231D8229031003A14
:10223000031D1B291D2901301E290030810001309A
:102240002300E8070030E93D6A08E2000330E23588
:10225000890B27296208363E86000230870069080C
:10226000F1006808F000B231D822903181000130CD
:102270002300E8070030E93D6908F1006808F00034
:10228000B231D82290312300E200E3016208E3007A
:10229000E2016A08E5000330E535890B4C29650841
:1022A000373E8600023087006208C03F6308C13FA6
:1022B0000130E8070030E93D6908F1006808F000E6
:1022C000B231D82290312300E200E3016A08E40031
:1022D0000330E435890B69296408373E86000230F3
:1022E0008700620881044131630881040130E807F6
:1022F0000030E93D6A08E2000330E235890B7D29B0
:102300006208393E8600023087006908F1006808DB
:10231000F000B231D8229031810401302300E80767
:102320000030E93D6A08E2000330E235890B952967
:1023300062083B3E8600023087006908F1006808A9
:10234000F000B231D8229031810001302300E8073B
:102350000030E93D0130EA0703306A02031CB1296D
:10236000B229F328B431932490318030230026061B
:10237000253003192506031DBE29BF29C229673050
:102380009B00DB29C0302606123003192506031DE9
:10239000CA29CB29CE29CF309B00DB296030260605
:1023A000093003192506031DD629D729DB29A030BA
:1023B0009B0001309C00B531C0259031003A0319D3
:1023C000E229E329E92936302200EF00AE31682600
:1023D00090310030A8310A20903123002408B53113
:1023E00013259031B33145239031B6311126903108
:1023F00082302300E200DD30890BFC29E20BFC294E
:1024000000328B170B17B331572390310B309B31B0
:102410001C239031220042082300E600EA016A08EA
:10242000E2000330E235890B122A62083D3E860045
:10243000023087000108031D1E2A1F2A202A1B2B99
:10244000E7016A080319252A262A2B2A6A03031D95
:102450002A2A2B2A802A6A08E2000330E235890BF7
:102460002E2A6208363ECF006A35C53ED0006A0883
:102470009B311C239031220043082300D20022000C
:1024800042082300D1006B08D300A031892090318D
:102490002300E700E71B4D2A4E2ADA2A6A35C63E9A
:1024A0008600013087006A35C53E84000130850012
:1024B0000008010603195D2A5E2ADA2A23006A0849
:1024C000E2000330E235890B622A62083A3E860058
:1024D000023087006A35C53E84000130850000085F
:1024E00081006A35C63E8600013087006A35C53EE8
:1024F000840001308500000881000130C400DA2A20
:1025000002306A06031D852A862ADA2A6A08E20052
:102510000330E235890B892A6208363ECF006A35DE
:10252000C53ED0006A089B311C239031220043082D
:102530002300D200220042082300D1006B08D30000
:10254000A031892090312300E700E71BA82AA92A9F
:10255000DA2A6A35C63E8600013087006A35C53EF4
:1025600084000130850001080002F600F701031C19
:10257000F703801FBC2AF703811FBF2AF70AB33174
:102580002223903123006A08E2000330E235890BF0
:10259000C62A6208393E8600023087007708803AF2
:1025A000803C031DD52A760801020318D82AD92AAF
:1025B000DA2A5E2A23006A08E2000330E235890B3A
:1025C000DE2A6208363EF0006608F1006708F20075
:1025D000AA3168229031230044030319F02AF12A1A
:1025E000F62A6B03031DF52AF62A1B2BC4016A0881
:1025F000E2000330E235890BFA2A6208363E2000F9
:10260000B700230066082000B800B5315725903187
:102610002300270803190D2B0E2B1B2B20008C14D5
:1026200068302300E200E430890B142BE20B142BFA
:10263000000020008C1001302300EA0703306A02FA
:10264000031C232B242B0F2AEB01C4013200181387
:102650009813033023009700B231F32290316300C6
:10266000032A8031112822004208023E86000130F0
:1026700087000230010603193E2B3F2B522B4208E4
:10268000033E860001308700023001060319492B02
:102690004A2B522B4230AF00B830B000B331122376
:1026A0009331FF2F4208043E8600013087004130FD
:1026B000010603195C2B5D2B682B4208043E860043
:1026C0000130870061300106031D672B682B6A2BE0
:1026D000EE01C52C4208043E8600013087004230DE
:1026E00001060319742B752B802B4208043E8600CB
:1026F0000130870062300106031D7F2B802B832B66
:102700000130EE00C52C4208043E860001308700EF
:102710004330010603198D2B8E2B992B4208043E62
:1027200086000130870063300106031D982B992B2A
:102730009C2B0230EE00C52C4208043E860001307E
:102740008700533001060319A62BA72BB22B420892
:10275000043E86000130870073300106031DB12B53
:10276000B22BBD2C07304306031DB72BB82B0B2C07
:102770000230AF00B830B000230021082200C500AD
:10278000C6014508B1004608B20023002008220017
:10279000C700C8014708B3004808B4002300220856
:1027A0002200C900CA014908B5004A08B600230042
:1027B00023082200B700B801B71BB8032300240880
:1027C0002200CB00CC014B08B9004C08BA00230012
:1027D00026082200CD00CE01230025082200CF00CC
:1027E000D0014F08D000CF014D084F04BB004E0868
:1027F0005004BC00230027082200D200D301520855
:10280000BD005308BE001E30BF000030C000B33111
:1028100012239331B42C0D304306031D102C112CC0
:10282000AC2C4208053E86000130870001082300D9
:10283000A20022004208063E8600013087000108FF
:102840002300A30022004208073E860001308700D3
:1028500001082300A40022004208083E860001303F
:10286000870001082300A50022004208093E8600D7
:102870000130870001082300A600220042080A3E1A
:102880008600013087000108031D472C492C0130C8
:102890004A2C00302300A70000302200EC007030EA
:1028A000ED000030F0007030F10023002208F2004B
:1028B000B4311824933101302200EC070030ED3D93
:1028C0006D08F1006C08F00023002308F200B43119
:1028D0001824933101302200EC070030ED3D6D08E3
:1028E000F1006C08F00023002408F200B431182431
:1028F000933101302200EC070030ED3D6D08F1000E
:102900006C08F00023002508F200B431182493313C
:1029100001302200EC070030ED3D6D08F1006C083D
:10292000F00023002608F200B4311824933101305E
:102930002200EC070030ED3D6D08F1006C08F0005E
:1029400023002708F200B43118249331013022000B
:10295000EC070030ED3DB42C4230AF00B830B00091
:10296000B33112239331FF2F53302200AF00B83020
:10297000B000B33112239331FF2F4230AF00B83093
:10298000B000B33112239331FF2F07304306031DEC
:10299000CA2CCB2C412D2530AF00B830B0004208F6
:1029A000043E8600013087000108C500C6014508C5
:1029B000B1004608B2006E08C7000330C735890B66
:1029C000DE2C47084407C8004808073E860002304E
:1029D00087000108C900CA014908B3004A08B400C9
:1029E0006E08CB000330CB35890BF32C44084B0722
:1029F0008600023087000108CC00CD014C08B500EC
:102A00004D08B6006E08CE000330CE35890B052D7B
:102A10004E084407CF004F0A860002308700403F2F
:102A2000B700413FB8006E08D0000330D035890BA5
:102A3000162D50084407D1005108033E860002308D
:102A400087000108D200D3015208B9005308BA0028
:102A50006E08D4000330D435890B2B2D540844075D
:102A6000D5005508053E8600023087000108D600D3
:102A7000D7015608BB005708BC00B331122393316D
:102A8000F72F0B304306031D462D472DEF2F6E0801
:102A9000C5000330C535890B4A2D45084407C600DB
:102AA0004608073E8600023087004208053E840043
:102AB000013085000008031D5E2D602D0130612D61
:102AC000003081004208063E840001308500000885
:102AD000C5004208073E8400013085006E08C6002C
:102AE0000330C635890B712D46084407C700470AD5
:102AF0008600023087000008C03F4508C13F6E08CD
:102B0000C5000330C535890B822D45084407C60032
:102B1000460A8600023087001600BA3AC70016003F
:102B2000273AC7040319952D962D302E6E08C5003F
:102B30000330C535890B992D45084407C600460A60
:102B40008600023087001600B63AC7001600273A02
:102B5000C7040319AC2DAD2D302E6E08C50003300F
:102B6000C535890BB02D45084407C600460A8600C6
:102B7000023087001600E13AC7001600273AC70462
:102B80000319C32DC42D272E6E08C5000330C5358B
:102B9000890BC72D45084407C600460A8600023047
:102BA00087001600043AC7001600283AC704031924
:102BB000DA2DDB2D1E2E6E08C5000330C535890BBE
:102BC000DE2D45084407C600460A8600023087000D
:102BD0001600443AC7001600413AC7040319F12D04
:102BE000F22D152E6E08C5000330C535890BF52D65
:102BF00045084407C600460A8600023087001600D2
:102C0000493AC7001600283AC7040319082E092EAE
:102C10000C2EE001E101102E5730E0000030E10001
:102C20006108DF006008DE00192E9930DE000030F8
:102C3000DF005F08DD005E08DC00222E9730DC003C
:102C40000030DD005D08DB005C08DA002B2E9630DA
:102C5000DA000030DB005B08D9005A08D800342EB7
:102C60009530D8000030D9006E08C5000330C53556
:102C7000890B372E44084507860002308700580824
:102C800081006E08C5000330C535890B442E450808
:102C90004407C6004608053E8600023087006E08DD
:102CA000C7000330C735890B522E47084407C800B8
:102CB0004808053E8400023085000F300005C90039
:102CC0004208083E84000130850000080F39CA0020
:102CD0000430CA35890B692E4A08490481006E0800
:102CE000C5000330C535890B722E45084407C60060
:102CF000460A8600023087001600BA3AC70016005E
:102D0000273AC7040319852E862E202F6E08C5008A
:102D10000330C535890B892E45084407C600460A8D
:102D20008600023087001600B63AC7001600273A20
:102D3000C70403199C2E9D2E202F6E08C50003305A
:102D4000C535890BA02E45084407C600460A8600F3
:102D5000023087001600E13AC7001600273AC70480
:102D60000319B32EB42E172F6E08C5000330C535D6
:102D7000890BB72E45084407C600460A8600023074
:102D800087001600043AC7001600283AC704031942
:102D9000CA2ECB2E0E2F6E08C5000330C535890B09
:102DA000CE2E45084407C600460A8600023087003A
:102DB0001600443AC7001600413AC7040319E12E31
:102DC000E22E052F6E08C5000330C535890BE52EB0
:102DD00045084407C600460A8600023087001600F0
:102DE000493AC7001600283AC7040319F82EF92EED
:102DF000FC2EEA01EB01002F1930EA000030EB0055
:102E00006B08E9006A08E800092F2330E800003069
:102E1000E9006908E7006808E600122F2330E600A1
:102E20000030E7006708E5006608E4001B2F143057
:102E3000E4000030E5006508E3006408E200242FA8
:102E40001430E2000030E3006E08C5000330C535E1
:102E5000890B272F45084407C6004608033E860015
:102E600002308700620881006E08C500C601C50EE9
:102E7000C60EF030C60545080F39C604F030C5054A
:102E80004508103EEC007030463DED006D08F10045
:102E90006C08F0006E08C5000330C535890B4D2F56
:102EA00045084407C6004608860002308700023005
:102EB000473FF200B4311824933101302200EC076F
:102EC0000030ED3D6D08F1006C08F0006E08C500A3
:102ED0000330C535890B692F440845078600023049
:102EE00087000108F200B431182493310130220028
:102EF000EC070030ED3D6D08F1006C08F0006E0845
:102F0000C5000330C535890B822F45084407C6002C
:102F1000460A860002308700403FC700413FC80094
:102F20004808F200B4311824933101302200EC0734
:102F30000030ED3D6D08F1006C08F0006E08C50032
:102F40000330C535890BA12F45084407C600460844
:102F50008600023087000230413FF200B43118246D
:102F6000933101302200EC070030ED3D6D08F10097
:102F70006C08F0006E08C5000330C535890BBD2F05
:102F800045084407C6004608860002308700023024
:102F9000433FF200B4311824933101302200EC0792
:102FA0000030ED3D6D08F1006C08F0006E08C500C2
:102FB0000330C535890BD92F45084407C60046089C
:102FC0008600023087000230453FF200B4311824F9
:102FD000933101302200EC070030ED3DF72F4230F5
:102FE000AF00B830B000B33112239331FF2F53300C
:102FF0002200AF00B830B000B33112239331080083
:1030000022002B08AE002A08AD001828290821004C
:10301000E800220028082100E7002D30E900220006
:103020002C082100EA000130EB009D318C259831FD
:1030300022002D0884002E0885001200031D21287F
:1030400022280628A801A90108002000B01B292871
:103050002B2801302C280030B8002300B31F312862
:103060003228382801302000B6000030B7003F2851
:1030700033082000B700230032082000B6002300E8
:1030800031082000B500230030082000B4003808C3
:1030900003194B284C286028FF30B407FF30B53D9A
:1030A0003808031D542855285A282B30B200003008
:1030B000B3005E282D30B2000030B3003208B800F3
:1030C0004F30B9000030BA002500EF019F28FF30D3
:1030D0002000B907FF30BA3D3908A03E8600023013
:1030E00087000A30F0000030F1003008F3002F08AC
:1030F000F200A8315A2098317108F7007008F600E4
:10310000B331222398317608303E8100FF30200011
:10311000B607FF30B73DFF30B407FF30B53D0A308A
:10312000F0000030F1003008F3002F08F200A93160
:10313000B121983171082000B0007008AF00200064
:103140003A08803AB10080303102031DA9280130CD
:103150003902031CAC28AD28C12820002F083004F8
:10316000031DB328B42867283708803AB10080309F
:103170003102031DBD28013036020318C028C128C2
:103180006728200038080319C628C728D228FF302E
:10319000B907FF30BA3D3908A03E860002308700EB
:1031A000380881002E08A6002D08A5003908A03E89
:1031B000A7003508A9003408A800B6313D2698318B
:1031C0000800200023088039AD002335B300A21F7A
:1031D000EA28EB28EC28331433080319F028F128E7
:1031E0000029330A031DF528F628FE280030A30025
:1031F0000030A2000030A1000030A000A217082972
:103200000030A3000030A2000030A1000030A00078
:1032100027088039AD062735B200A61F10291129CD
:103220001229321432080319162917292629320ABD
:10323000031D1B291C2924290030A7000030A600EB
:103240000030A5000030A400A6172E290030A700EA
:103250000030A6000030A5000030A4003208031999
:103260003229332938293308031D372938294129C0
:103270000030A3000030A2000030A1000030A00008
:103280001B2B2008F0002608B531792598317108EC
:103290002000B9007008B8003808A800A901AA01E8
:1032A000AB012B08B1002A08B0002908AF0028089C
:1032B000AE003908A800A901AA01AB012B08B7008C
:1032C0002A08B6002908B5002808B4002108F00033
:1032D0002508B5317925983171082000B9007008AA
:1032E000B8003808A800A901AA01AB012808AE0758
:1032F0002908AF3D2A08B03D2B08B13D3908A80088
:10330000A901AA01AB012808B4072908B53D2A087C
:10331000B63D2B08B73D2208F0002408B5317925C9
:10332000983171082000B9007008B8003808A8006A
:10333000A901AA01AB012808AE072908AF3D2A0858
:10334000B03D2B08B13D3908A800A901AA01AB0185
:103350002808B4072908B53D2A08B63D2B08B73D13
:103360000830AE35AF0DB00DB10D890BB129210874
:10337000F0002408B5317925983171082000B90092
:103380007008B8003808AE073908AF3D0030B03DCE
:10339000B13D2008F0002508B53179259831710834
:1033A0002000B9007008B8003808AE073908AF3DF2
:1033B0000030B03DB13D0830AE35AF0DB00DB10DB0
:1033C000890BDC292008F0002408B53179259831D3
:1033D00071082000B9007008B8003808AE07390835
:1033E000AF3D0030B03DB13D2108F0002608B531B9
:1033F0007925983171082000B9007008B8003808A4
:10340000B4073908B53D0030B63DB73D2208F0009D
:103410002508B5317925983171082000B900700868
:10342000B8003808B4073908B53D0030B63DB73D9F
:103430002208F0002608B53179259831710820005E
:10344000B9007008B8003808A8003908A900AA0116
:10345000AB010830A835A90DAA0DAB0D890B2A2A9E
:103460002808B4072908B53D2A08B63D2B08B73D02
:103470002E08A8002F08A9003008AA003108AB00C8
:103480001830AB36AA0CA90CA80C890B412A2808C5
:10349000B4072908B53D2A08B63D2B08B73D0830CA
:1034A000AE35AF0DB00DB10D890B502A3308320780
:1034B000A800A901A90D2808823EB800FF30293DC7
:1034C000B900792A0130B435B50DB60DB70D890BA9
:1034D000632AB11F6C2A6D2A6E2A34140130AE356E
:1034E000AF0DB00DB10D890B6F2AFF30B807FF305B
:1034F000B93DB61F7C2A7D2A622AB201B11F812AFA
:10350000822A9E2AFF302E05A800FF302F05A90031
:10351000FF303005AA007F303105AB002B082A04AC
:10352000290428040319952A962A992A0130B20001
:103530009E2A341C9C2A9D2A9E2A962A3208031908
:10354000A22AA32AC92A0130B4070030B53DB63DEE
:10355000B73D371CAC2AAD2AC92A3408A800350863
:10356000A9003608AA003708AB000130AC00AB3721
:10357000AA0CA90CA80CAC0BB72A2B08B7002A0878
:10358000B6002908B5002808B4000130B80700309B
:10359000B93D3908803AA80080302802031DD22A9C
:1035A000FF303802031CD52AD62AE02A7F302000BB
:1035B000B7008030B6000030B5000030B400112BE9
:1035C00020003908803AA80080302802031DEA2A2A
:1035D000013038020318ED2AEE2AF92A00302000C3
:1035E000B7000030B6000030B5000030B400AD01C7
:1035F000112B20003808B300FF30B405FF30B505AB
:103600007F30B6050030B705331C072B082B092B7C
:10361000B6173308A8000130A836890B0C2B2808F0
:10362000B7002D08B7043708A3003608A2003508F4
:10363000A1003408A00008002200EB000030E500E3
:103640000030E4000030E3000030E2000030EF0022
:103650000030EE000030ED000030EC004B2B23007A
:103660006C080319342B352B392B153021009D00A4
:10367000592B313021009D00592B393021009D00FC
:10368000592B093021009D00592BFF302200C20028
:10369000FF30C3008B2D6B08003A03192F2B013A22
:1036A0000319392B033A03193D2B093A0319412B0E
:1036B000452B20000C1282302200C400DD30890B23
:1036C0005F2BC40B5F2B00322200E80121009D1408
:1036D0009D186B2B6C2B682B1C082200C400C501A5
:1036E0004408E6004508E70021001B082200C4004A
:1036F000C5016608C700C60144084604C80045085D
:103700004704C9004808E6004908E7006608E207E0
:103710006708E33D0030E43DE53D0130E8071E3039
:103720006802031C942B952B662B21001D10200092
:103730000C160030F3000030F2000030F1001E30B3
:10374000F00022006508F7006408F6006308F50041
:103750006208F400A93159219B3171082200EA0066
:103760007008E9006B080319B62BB72BBC2B6B0351
:10377000031DBB2BBC2BE72B6908F0006A08F10086
:10378000F201F3010030AD311C259B31730820009C
:10379000D9007208D8007108D7007008D600A2318D
:1037A0000F229B3120005908E1005808E00057081B
:1037B000DF005608DE00AB3125239B3120005F0877
:1037C0002200C30020005E082200C2008B2D0230C0
:1037D0006B06031DEC2BED2B902CBF302000BD00A1
:1037E000D930BC009930BB009A30BA003D30A300FC
:1037F0009F30A2006130A100D330A00022006908F0
:10380000F0006A08F100F201F3010030AD311C252F
:103810009B3173082000A7007208A6007108A5005C
:103820007008A4009831E1209B3120002308C100DA
:103830002208C0002108BF002008BE00A531F425E1
:103840009B3120003D082200E10020003C082200BE
:10385000E00020003B082200DF0020003A082200A0
:10386000DE00230023082200C400C501C41BC503D9
:103870004408F0004508F100890D893B8909F200F0
:10388000F3000130AD311C259B3173082000BD00D1
:103890007208BC007108BB007008BA002200610801
:1038A0002000C100220060082000C00022005F0844
:1038B0002000BF0022005E082000BE00A531F425D4
:1038C0009B3120003D082200EF0020003C08220030
:1038D000EE0020003B082200ED0020003A08220004
:1038E000EC006F082000BD0022006E082000BC0024
:1038F00022006D082000BB0022006C082000BA00E6
:103900000030C1000030C0000030BF000030BE00F9
:10391000AC3191249B3103188E2C8F2C222D452BFA
:103920000B306B06031D952C962C222DC4302000E5
:10393000BD000B30BC004630BB006630BA003F30E3
:10394000A3008930A200A330A1006E30A0002200A5
:103950006908F0006A08F100F201F3010030AD31AE
:103960001C259B3173082000A7007208A60071086F
:10397000A5007008A4009831E1209B3120002308A5
:10398000C1002208C0002108BF002008BE00A531E8
:10399000F4259B3120003D082200EF0020003C0868
:1039A0002200EE0020003B082200ED0020003A0833
:1039B0002200EC006F082000BD0022006E082000ED
:1039C000BC0022006D082000BB0022006C08200013
:1039D000BA000030C1000030C0000030BF0000302D
:1039E000BE00AC3191249B310318F72CF82CFC2C31
:1039F0002200C201C3018B2D42302000BD00C8301F
:103A0000BC000030BB000030BA0022006F0820006C
:103A1000C10022006E082000C00022006D082000B6
:103A2000BF0022006C082000BE00AC3191249B3105
:103A300003181B2D1C2D222D64302200C2000030E3
:103A4000C3008B2D4A302200AF005A30B000B8308E
:103A5000B1006F082000D90022006E082000D800B5
:103A600022006D082000D70022006C082000D6003C
:103A7000A2310F229B31200059082200B5002000FE
:103A800058082200B400200057082200B30020008C
:103A900056082200B200B431F3249B316F3022006B
:103AA000AF00B830B0004A30B1000130B200B331DD
:103AB00012239B314A302000A4000130A5001430AD
:103AC000A600B331FB239B3122006F082000D900F0
:103AD00022006E082000D80022006D082000D700C8
:103AE00022006C082000D600A2310F229B3120005A
:103AF0005908E1005808E0005708DF005608DE00CA
:103B0000AB3125239B3120005F082200C300200039
:103B10005E082200C200080021006908860001300A
:103B20008700403FEC00413FED006C0884006D08C9
:103B300085001200253A031D9E2D9F2DE42F690854
:103B40008600013087000130810741310318810A66
:103B50002300B001B1010030BE00FF30B200FF30E1
:103B6000B30021006908860001308700403FEC0067
:103B7000413FED006C0884006D08850012002E3A6C
:103B8000031DC32DC42DD92D69088600013087007F
:103B90000130810741310318810A6908F6006A087B
:103BA000F700AA31C5229D3177082300B3007608BB
:103BB000B20021006908860001308700403FEC0018
:103BC000413FED006C0884006D0885001200633AE7
:103BD000031DEB2DEC2D122E6908860001308700A5
:103BE0000130810741310318810A6A0886006B0899
:103BF0008700010884000130850002308107000839
:103C00002200A50025082100EC00ED016C08F2005F
:103C10006D08F3006808F5006708F400AA310C226B
:103C20009D31FF2F6908860001308700403F220048
:103C3000A600413FA700260884002708850012003F
:103C4000643A0319242E252E2F2E260884002708D7
:103C500085001200693A031D2E2E2F2E632E21009F
:103C60006A0886006B08870001088400013085001F
:103C700002308107003F2200A100013FA200260878
:103C8000013E2100EC0000302200273D2100ED0024
:103C900069088600013087006C08C03F6D08C13F8D
:103CA00068082000AE00210067082000AD00220057
:103CB00022082000B000220021082000AF00983127
:103CC00025209D31FF2F260884002708850012003B
:103CD000783A031D6C2E6D2EAD2E21006A088600E9
:103CE0006B088700010884000130850002308107DD
:103CF000003F2200A100013FA2002608013E210052
:103D0000EC0000302200273D2100ED00690886000C
:103D1000013087006C08C03F6D08C13FA32E210011
:103D200068082000AE00210067082000AD002200D6
:103D300022082000B000220021082000AF00AB3193
:103D400094239D31FF2F2200260884002708850038
:103D50000008783A03198F2EAD2EA00121006908C2
:103D6000860001308700403FEC00413FED006C08C9
:103D700084006D0885001200733A031DC02EC12E09
:103D8000CE2E69088600013087000130810741315D
:103D90000318810A01302200A000142F6908860050
:103DA00001308700403FEC00413FED006C0884008B
:103DB0006D08850012006C3A031DDF2EE02E142FD3
:103DC0006908860001308700403FEC00413FED006C
:103DD00001306C0784006D080318013E8500120055
:103DE0006C3A031DF42EF52E142F6908860001305D
:103DF0008700403FEC00413FED0002306C0784003B
:103E00006D080318013E85001200733A031D092F47
:103E10000A2F142F690886000130870003308107BC
:103E200041310318810ACA2E220020080319192FD4
:103E30001A2F362F210068082000A10021006708F2
:103E40002000A00021006A0886006B088700010896
:103E500084000130850002308107003F2000A2006D
:103E6000013FA300873194279D31FF2F210069086E
:103E7000860001308700403F2200A600413FA70096
:103E800026088400270885000008A500512F01306E
:103E9000A6070030A73D5C2F6C30A5005C2FA50164
:103EA0005C2F25084C3A0319472F2A3A03194C2F47
:103EB0000A3A0319472F4F2F260884002708850048
:103EC0001200663A031D652F662FD92F912F21000E
:103ED0006A0886006B0887000108840001308500AD
:103EE00004308107003F2200A100013FA200023FF1
:103EF000A300033FA400992F21006A0886006B08E5
:103F00008700010884000130850004308107003FEC
:103F10002200A100013FA200023FA300033FA40032
:103F2000992F25084C3A03197C2F203A0319672F43
:103F3000992F2608013E2100EC0000302200273D89
:103F40002100ED0069088600013087006C08C03F41
:103F50006D08C13FCF2F210068082000E900210033
:103F600067082000E800220024082000ED0022005D
:103F700023082000EC00220022082000EB00220091
:103F800021082000EA002200260884002708850076
:103F900000082000EE008931E6219D31FF2F22002C
:103FA00026088400270885000008663A0319AB2F0D
:103FB000D92F210069088600013087000130810770
:103FC00041310318810AFF2F6908860001308700FC
:103FD000403FEC00413FED006C0884006D08850017
:103FE0000008EE00EF016E08F2006F08F3006808A9
:103FF000F5006708F400AA310C229D31D92F080082
:104000008030F5000130B2317B22A03108007130E0
:104010008600003087000830F00000301E00F00BF2
:104020000E2820002008210422042304240425044F
:104030002604270403191D281E2878280130F900BA
:104040002B28A035A10DA20DA30DA40DA50DA60D25
:10405000A70D0130F907A71F2E282F282128F13599
:10406000F20DF30DF40DF50DF60DF70DF80D270813
:104070002F02031D552826082E02031D552825084A
:104080002D02031D552824082C02031D5528230842
:104090002B02031D552822082A02031D552821083A
:1040A0002902031D552820082802031C58285928D6
:1040B0006A282008A8022108A93B2208AA3B230855
:1040C000AB3B2408AC3B2508AD3B2608AE3B27089C
:1040D000AF3B7114A736A60CA50CA40CA30CA20C24
:1040E000A10CA00C0130F902031D772878282F2895
:1040F0007108A0007208A1007308A2007408A30050
:104100007508A4007608A5007708A6007808A7001F
:10411000080023004F088600023087009530010612
:104120000319932894289F284F088600023087009F
:1041300096300106031D9D289F288431C22C6C08EF
:104140000319A328A5288131CB290330D5002208E3
:10415000FF3CD400031CD5035208803AD600550812
:10416000803A5602031DB62854085102031CB92890
:10417000BA28C42823005008860001308700643024
:1041800081000130EC00A32803302300D500220871
:104190009A3CD400031CD5035208803AD600550837
:1041A000803A5602031DD62854085102031CD92810
:1041B000DA281329230022089A3ED400033003187A
:1041C0000430D5005508803AD6005208803A56028D
:1041D000031DEC2851085402031CEF28F028132972
:1041E0002300500A8600013087006430010603195D
:1041F000FA28FB280929500A8600013087000108A7
:1042000003190329042909295303031D082909292E
:10421000102950088600013087005F308100C128D6
:10422000FF308731932F03302300D5002208333C21
:10423000D400031CD5035208803AD6005508803AB2
:104240005602031D252954085102031C2829292937
:104250005F2923002208333ED400033003180430C2
:10426000D5005508803AD6005208803A5602031D00
:104270003B2951085402031C3E293F295F29230092
:10428000500A8600013087005F3001060319492972
:104290004A295829500A860001308700010803196D
:1042A0005229532958295303031D572958291029E6
:1042B00050088600013087005A308100C128023042
:1042C0002300D5002208CD3CD400031CD50352089E
:1042D000803AD6005508803A5602031D71295408C9
:1042E0005102031C74297529AB2923002208CD3EF5
:1042F000D400023003180330D5005508803AD600A8
:104300005208803A5602031D872951085402031CA3
:104310008A298B29AB292300500A860001308700A7
:104320005A300106031995299629A429500A8600B6
:1043300001308700010803199E299F29A4295303EE
:10434000031DA329A42910295008860001308700E5
:1043500055308100C12802302300D5002208663C78
:10436000D400031CD5035208803AD6005508803A81
:104370005602031DBD2954085102031CC029C1293E
:10438000F72923002208663ED400023003180330C8
:10439000D5005508803AD6005208803A5602031DCF
:1043A000D32951085402031CD629D729F729230001
:1043B000500A860001308700553001060319E129B3
:1043C000E229F029500A860001308700010803190C
:1043D000EA29EB29F0295303031DEF29F0291029BD
:1043E000500886000130870050308100C12802301B
:1043F0002300D5002208003CD400031CD50352083A
:10440000803AD6005508803A5602031D092A5408FE
:104410005102031C0D2A8031382880317028240075
:1044200035082100AD00240034082100AC00240030
:1044300033082100AB00240032082100AA0020002C
:1044400059082100AD00200058082100AC002000D0
:1044500057082100AB00200056082100AA002A08B6
:104460002000DA0021002B082000DB0021002C08AE
:104470002000DC0021002D082000DD001730DD3693
:10448000DC0CDB0CDA0C890B3F2AFF305A052100CB
:10449000A800003020005B052100A9002908803A0F
:1044A0002000DA0080305A02031D592A963021007C
:1044B0002802031C5C2A5D2A5E2AF72B2100AD1B13
:1044C000622A642A0130652A0030B20032080319DA
:1044D0006A2A6B2A802A20005908F3005808F20043
:1044E0005708F1005608F000B231AC22A23173082F
:1044F0002000D9007208D8007108D7007008D600D3
:1045000021002908803A2000DA0080305A02031D79
:104510008C2A7E302100280203188F2A902A9A2A9A
:1045200000302000D9000030D8000030D700003023
:10453000D600F72B4B302000BD000030BC0000300F
:10454000BB000030BA005908C1005808C000570825
:10455000BF005608BE00A531F425A23120003D0859
:104560002100B10020003C082100B00020003B08E1
:104570002100AF0020003A082100AE00CB3020001F
:10458000BD000030BC000030BB000030BA0021008C
:1045900031082000C100210030082000C0002100A7
:1045A0002F082000BF0021002E082000BE00A531EA
:1045B000F425A23120003D082100A30020003C0882
:1045C0002100A20020003B082100A10020003A08A1
:1045D0002100A00020005908D1005808D000570839
:1045E000CF005608CE00210023082000D50021006E
:1045F00022082000D400210021082000D30021003F
:1046000020082000D200B431B324A2312000510888
:104610002100B600200050082100B50020004F08FE
:104620002100B40020004E082100B3000030A70094
:104630000030A6000030A5000030A4003F3020006C
:10464000BD000030BC000030BB000030BA002100CB
:1046500036082000C100210035082000C0002100DC
:1046600034082000BF00210033082000BE00AC3118
:104670009124A23103183D2B3E2B482BBF30210043
:10468000A7008030A6000030A5000030A400712BE8
:10469000BF302000BD000030BC000030BB00003047
:1046A000BA00210036082000C10021003508200092
:1046B000C000210034082000BF0021003308200082
:1046C000BE00AC319124A231031C672B682B712BE7
:1046D0003F302100A7008030A6000030A500003048
:1046E000A40020005908BD005808BC005708BB00B2
:1046F0005608BA00210036082000C1002100350804
:104700002000C000210034082000BF002100330831
:104710002000BE00A531F425A23120003D08210073
:10472000B10020003C082100B00020003B0821001F
:10473000AF0020003A082100AE0027082000BD008D
:10474000210026082000BC00210025082000BB0015
:10475000210024082000BA00210031082000C100F7
:10476000210030082000C00021002F082000BF00D9
:1047700021002E082000BE00A531F425A231200022
:104780003D082100B60020003C082100B5002000B3
:104790003B082100B40020003A082100B300320891
:1047A0000319D32BD42BE82B3608F3003508F2007D
:1047B0003408F1003308F000B231AC22A2317308A2
:1047C0002100B6007208B5007108B4007008B3008B
:1047D00036082000D900210035082000D80021002B
:1047E00034082000D700210033082000D60008003C
:1047F0002000A7002708031DFE2BFF2B7F2C003075
:10480000F000F100B331C423A3317108F500700842
:10481000F400A8310020A33188310620A3317D089F
:104820002000B5007C08B40020008C1D182C192C29
:104830005D2C0030F0008030F1003508A500340810
:10484000A4000C30A600250DA50CA40CA60B232C4F
:1048500024080F39F200B4311824A3310130F000DC
:104860008030F100200035080F39F200B4311824EF
:10487000A3310230F0008030F10020003508A5009F
:104880003408A4000430A600250DA50CA40CA60B2A
:10489000442C24080F39F200B4311824A33103301A
:1048A000F0008030F100200034080F39F200B431FC
:1048B0001824A33120008C107F2C88310620A331CE
:1048C0007D082000B5007C08B40003108C1C031484
:1048D00003186B2C6E2C20008C14702C20008C1074
:1048E000640002302000A5000430A400BA30890B17
:1048F000772CA40B772CA50B772C0000142C003000
:10490000B6007030B7000030F0007030F100283091
:10491000F200B4311824A33101302000B607003072
:10492000B73D3708F1003608F000F201B431182421
:10493000A33101302000B6070030B73D3708F10041
:104940003608F0001130F200B4311824A3310130E0
:104950002000B6070030B73D3708F1003608F000F8
:104960002530F200B4311824A33101302000B607FD
:104970000030B73D3708F1003608F0008030F20013
:10498000B4311824A33101302000B6070030B73D00
:104990003708F1003608F000F201F20AB4311824A9
:1049A000A33101302000B6070030B73D1030B6000B
:1049B0007030B7001030F0007030F100F201F20AF0
:1049C000B4311824A33101302000B6070030B73DC0
:1049D0003708F1003608F0009530F200B4311824A1
:1049E000A33101302000B6070030B73D3708F10091
:1049F0003608F0002730F200B4311824A33101301A
:104A00002000B6070030B73D3708F1003608F00047
:104A1000BA30F200B4311824A33101302000B607B7
:104A20000030B73D3708F1003608F0001430F200CE
:104A3000B4311824A33101302000B6070030B73D4F
:104A40003708F1003608F000F201B4311824A33120
:104A500001302000B6070030B73D2030B60070307E
:104A6000B7002030F0007030F100F201F20AB431EA
:104A70001824A33101302000B6070030B73D97302D
:104A8000AC000030AD002D08AB002C08AA002B08AC
:104A9000A9002A08A8003708F1003608F000280805
:104AA000F200B4311824A33101302000B6070030E1
:104AB000B73D3708F1003608F0002830F200B43175
:104AC0001824A33101302000B6070030B73D370865
:104AD000F1003608F0000430F200B4311824A3319C
:104AE00001302000B6070030B73D2330B20000305F
:104AF000B3003308B1003208B0003108AF0030080D
:104B0000AE003708F1003608F0002E08F200B4318C
:104B10001824A33101302000B6070030B73D370814
:104B2000F1003608F000F201F20AB4311824A33182
:104B300001302000B6070030B73D3030B60070308D
:104B4000B7003030F0007030F100F201F20AB431F9
:104B50001824A33101302000B6070030B73D3708D4
:104B6000F1003608F0009430F200B4311824A3317B
:104B700001302000B6070030B73D3708F100360895
:104B8000F000F201B4311824A33101302000B6073F
:104B90000030B73D3708F1003608F000F201B431BB
:104BA0001824A33101302000B6070030B73D370884
:104BB000F1003608F0000430F200B4311824A331BB
:104BC00001302000B6070030B73D3708F100360845
:104BD000F000F201B4311824A33101302000B607EF
:104BE0000030B73D6300080020003D088039CA004E
:104BF0003D35CC00BC1FFD2DFE2DFF2D4C144C0867
:104C00000319032E042E142E4C0A031D082E092E00
:104C1000112E0030BD000030BC000030BB00003061
:104C2000BA00BC17BD011C2E0030BD000030BC0016
:104C30000030BB000030BA0041088039CB004B087F
:104C40004A060319242E252E262E4A174135CB005D
:104C5000C01F2B2E2C2E2D2E4B144B080319312E3A
:104C6000322E422E4B0A031D362E372E3F2E003099
:104C7000C1000030C0000030BF000030BE00C017CF
:104C8000C1014A2E0030C1000030C0000030BF001A
:104C90000030BE004C084B0203184F2E502E742ECD
:104CA0004A1F532E542E562E8030CA064C08CD0073
:104CB0004B08CC004D08CB003A08CD003E08BA00A6
:104CC0004D08BE003B08CD003F08BB004D08BF00AB
:104CD0003C08CD004008BC004D08C0003D08CD0098
:104CE0004108BD004D08C100CD014B08C200C30101
:104CF0004308C5004C084202C400031CC503450814
:104D0000803AC60080304602031D882E1A304402C5
:104D1000031C8B2E8C2EC22E20003D083C043B042D
:104D20003A04031D942E962E0130972E0030CD00AC
:104D30000030BD000030BC000030BB000030BA00C5
:104D40004B08CC00C92E4D1CA62EA72EB12E4D0807
:104D5000C2000130C236890BAA2E42080138CD00AC
:104D6000B32E0310CD0C3A1CB62EB72EB82ECD178D
:104D70000130C200BD37BC0CBB0CBA0CC20BBA2E42
:104D80000130CC0720004B084C02031CC82EC92E52
:104D9000A32E4A1BCC2ECD2E072F4C08031DD12E3F
:104DA000D22EDB2E0030BD000030BC000030BB0036
:104DB0000030BA00FF2F3E08BA073F08BB3D40084D
:104DC000BC3D4108BD3D3D1CE62EE72E912F4D1CFC
:104DD000EA2EEB2EF52E4D08C2000130C236890BAB
:104DE000EE2E42080138CD00F72E0310CD0C3A1CF0
:104DF000FA2EFB2EFC2ECD170130C200BD37BC0CA5
:104E0000BB0CBA0CC20BFE2E0130CC07912F3D0813
:104E1000803AC2004108803A4202031D192F40081F
:104E20003C02031D192F3F083B02031D192F3E08AA
:104E30003A0203181C2F1D2F522FFF30C200FF30E3
:104E4000C300FF30C400FF30C5003A083E02C60070
:104E50003B083F3BC7003C08403BC8003D08413B86
:104E6000C9004608C2074708C33D4808C43D490871
:104E7000C53D4508BD004408BC004308BB004208CE
:104E8000BA008030CA064D03FF3ACD004D08031D1D
:104E90004A2F4B2F5A2F0130BA070030BB3DBC3D83
:104EA000BD3D5A2F3E08BA023F08BB3B4008BC3B01
:104EB0004108BD3B3D083C043B043A04031D612FFF
:104EC000622F8D2F4D08031D662F672F8D2F003009
:104ED000BD000030BC000030BB000030BA00FF2F26
:104EE0000130BA35BB0DBC0DBD0D890B712FCD1F27
:104EF0007A2F7B2F7C2F3A144D1C7F2F802F842FED
:104F000003144D0DCD00862F0310CD0D4C08031951
:104F10008A2F8B2F8D2F0130CC02BC1F902F912F09
:104F2000702FCB01CD1F952F962FA42F4D087F39C1
:104F300003199B2F9C2F9F2F0130CB00A42F3A1CCD
:104F4000A22FA32FA42F9C2F4B080319A82FA92F02
:104F5000D22F0130BA070030BB3DBC3DBD3D3D1CEA
:104F6000B22FB32FD22F3A08C2003B08C3003C082F
:104F7000C4003D08C5000130C600C537C40CC30CD1
:104F8000C20CC60BBD2F4508BD004408BC00430839
:104F9000BB004208BA004C0A0319CF2FD02FD22FE2
:104FA0000130CC074C0A0319D62FD72FDC2F4C0821
:104FB000031DDB2FDC2FEA2F0030BD000030BC00CA
:104FC0000030BB000030BA004C08031DE82FE92F69
:104FD000EA2FCA014C1CED2FEE2FF02FBC17F22F39
:104FE0007F30BC054C08C2000130C236890BF52F5A
:104FF0004208BD00CA1FFD2FFE2FFF2FBD1708005E
:105000007408FF3E2300CB00FF30753DCC00CD017E
:10501000CE010800F3002400951A0F281028592803
:105020007308F000F101F035F10DF035F10D643049
:10503000700784003830713D803885000008940086
:105040007308F000F101F035F10DF035F10D63302A
:10505000700784003830713D803885000008950065
:1050600096017308F000F101F035F10DF035F10D06
:105070006530700784003830713D80388500000845
:1050800092007308F000F101F035F10DF035F10DEB
:105090006630700784003830713D80388500000824
:1050A000F20021000E087206FE3972068E002400FE
:1050B00095160800F501F31F5E285F286628F2099F
:1050C000F309F20A0319F30A0130F500F11F692808
:1050D0006A286F28F009F109F00A0319F10A70082B
:1050E00071040319742875289C280130F4007F2866
:1050F0000130F035F10D890B79280130F407F11FEB
:1051000082288328782871087302031D8928700873
:105110007202031C8C288D2891287008F2027108F5
:10512000F33B0130F136F00C890B92280130F40288
:10513000031D9B289C28832875080319A028A128F3
:10514000A628F209F309F20A0319F30A7308F10019
:105150007208F000080020008E150E120D3020009D
:10516000C500FB30890BB228C50BB22800322000E5
:105170000E160D302000C500FB30890BBD28C50B75
:10518000BD2800324230B2316B22A8312000C60067
:10519000123046060319CD28CE28D128C001C101FE
:1051A0000129A0310020A83120004308FD00420859
:1051B000FC004108FB004008FA00AD31C025A831D1
:1051C000F5010E30B2317B22A831F5010F30B2313A
:1051D0007B22A8310C30B2316B22A8312338F50084
:1051E0000C30B2317B22A83120004408B731662749
:1051F000A831B2316422A83101302000C000003053
:10520000C10008002B308600003087000C302000E1
:10521000A90000301E00A90B0A2923002008200045
:10522000AB00230021082000AC003430AE0027087A
:105230008600023087000108AF002708053E86007F
:10524000023087000108B0000230B100270A860052
:1052500002308700403FA900413FAA002A08B2005F
:10526000270A8600023087000108B3002808B4002E
:105270002708063E8600023087000108B50027088F
:10528000043E8600023087000108B6002B30F20091
:105290000C30F300B4317424A9312000AD002B3060
:1052A000A4000030A5000C30A600B331FB23A931C7
:1052B00008000030FB000030FA000030F900003038
:1052C000F8007308720471047004031968296929CD
:1052D000A8290130FC0075290130F035F10DF20DDF
:1052E000F30D890B6D290130FC07F31F782979290B
:1052F0006C290130F835F90DFA0DFB0D890B7A296F
:1053000073087702031D8E2972087602031D8E2909
:1053100071087502031D8E2970087402031C9129FF
:1053200092299B297008F4027108F53B7208F63B3C
:105330007308F73B78140130F336F20CF10CF00CE3
:10534000890B9C290130FC02031DA729A829792972
:105350007B08F3007A08F2007908F1007808F00081
:105360000800F501F11FB529B629BD29F009F10999
:10537000F00A0319F10A0130F500F31FC029C12911
:10538000C829F209F309F20A0319F30A0130F506F4
:10539000F601F701700871040319CF29D029FD29FE
:1053A0000130F400DA290130F035F10D890BD429F0
:1053B0000130F407F11FDD29DE29D3290130F6354C
:1053C000F70D890BDF2971087302031DE9297008A5
:1053D0007202031CEC29ED29F2297008F20271080F
:1053E000F33B76140130F136F00C890BF3290130D0
:1053F000F402031DFC29FD29DE2975080319012A81
:10540000022A072AF609F709F60A0319F70A7708A4
:10541000F1007608F0000800740875040319112AD9
:10542000122A182A74087504031D172A182A1D2A1F
:105430007208B2315E22AA31672A740886007508A4
:1054400087004931160001040319272A282A482A0F
:1054500074088600750887004931403FF600413FD7
:10546000F70074088600750887004231403FF80055
:10547000413FF9007908803AFA007708803A7A02C9
:10548000031D442A760878020318472A482A672A07
:105490007408860075088700423174088400750816
:1054A0008500003FF600013FF700403F760784008B
:1054B000413F773D850072088000740886007508BA
:1054C000870042310130810741310318810A080009
:1054D0007008063E8600023087008101F21F712AA3
:1054E000722A782A7008063E86000230870001156D
:1054F0001430710203187D2A7E2A842A7008063E21
:105500008600023087000114700886000230870090
:1055100094300106031D8D2A8E2AAA2A7008043EA3
:10552000860002308700811B962A972AA32A7008DA
:10553000043E8600023087000108803A353E031C95
:10554000A22AA32AC42A7008063E860002308700D9
:105550008115C42A70088600023087009030010649
:105560000319B32AB42AC42A7008043E8600023004
:1055700087000108031DBD2ABE2AC42A7008063E02
:1055800086000230870081150800FC01FD017608C5
:10559000860001308700403FF800413FF90078085D
:1055A00084007908850012002A3A031DD82AD92AD6
:1055B0000B2B7608860001308700013081074131CE
:1055C0000318810A770886000130870001088400EB
:1055D0000130850002308107003FFC00013FFD00E3
:1055E000202B7D08F1007C08F0000A30F20000302A
:1055F000F300B4313624AA317B087007FC00003078
:10560000713DFD007608860001308700013081077A
:1056100041310318810A7608860001308700403F37
:10562000F800413FF90078088400790885000008F7
:10563000D03EFB000A307B02031C1F2B202BF12ADB
:105640007D08F7007C08F600080003102000600DBC
:10565000610DE7006708031D2E2B2F2B382B003020
:10566000E1000030E0000030DF000030DE00932B6E
:105670005E08E2005F08E3006008E4006108E500FE
:105680001F30E536E40CE30CE20C890B412B620879
:10569000E600E017FF30DE05FF30DF05FF30E005F4
:1056A0000030E1059630E702E71F572B582B6E2B91
:1056B0006708803A973E03185E2B5F2B602B2F2BD9
:1056C0000130E136E00CDF0CDE0C890B612B013080
:1056D000E707031D6C2B6D2B602B832B203067029B
:1056E000031C732B742B7E2B2F2B0130DE35DF0D2B
:1056F000E00DE10D890B762B0130E7026708031DF1
:10570000822B832B752B66080319872B882B932BF1
:10571000DE09DF09E009E109DE0A0319DF0A0319DE
:10572000E00A0319E10A08002300B31F982B992B04
:105730009F2B01302000B4000030B500A62B3308A9
:105740002000B500230032082000B40023003108F7
:105750002000B300230030082000B2004F30B70013
:105760000030B8002500EF01E02BFF302000B70724
:10577000FF30B83D2F080F39B6000A303602031843
:10578000C22BC32BC62B3030B607C82B5730B607F9
:105790003708A03E86000230870036088100FF30BF
:1057A000B407FF30B53DFF30B207FF30B33D2F0ED9
:1057B0000F39AF00300EF039AF04300E0F39B000A2
:1057C00020003808803AB10080303102031DEA2BF6
:1057D00002303702031CED2BEE2B022C20002F0889
:1057E0003004031DF42BF52BB52B3508803AB1009E
:1057F00080303102031DFE2B013034020318012CCE
:10580000022CB52B20002E08A6002D08A500370875
:10581000A03EA7003308A9003208A800B6313D26F3
:10582000AB31080023002F082000A50023002E081C
:105830002000A40023002D082000A30023002C0832
:105840002000A2007308A5007208A4007108A3003C
:105850007008A2002208F4002308F5002408F600CE
:105860002508F7001730F736F60CF50CF40C890B09
:10587000332CFF307405A00000307505A10020080E
:105880002104031D442C452C662C2208F400230817
:10589000F5002408F6002508F7000130F435F50D71
:1058A000F60DF70D890B4E2C7708760475047404F9
:1058B000031D5B2C5C2C612C0230F0000030F100E9
:1058C000902C0330F0000030F100902C200A2104CD
:1058D000031D6B2C6C2C8C2C2208F4002308F50083
:1058E0002408F6002508F7000930F435F50DF60D0B
:1058F000F70D890B752C7708760475047404031969
:10590000822C842C0130852C0030F800F9017808B5
:10591000F0007908F100902C0430F0000030F10024
:105920000800003020003A05C20000303B05C300EB
:1059300080303C05C4007F303D05C5004508440467
:1059400043044204031DA52CA62CAE2C0030BD0040
:105950000030BC000030BB000030BA0000303E0513
:10596000C20000303F05C30080304005C4007F30D6
:105970004105C5004508440443044204031DC12CED
:10598000C22CCA2C0030C1000030C0000030BF0063
:105990000030BE00BD1FCD2CCE2CE62C0030C20046
:1059A0000030C3000030C4008030C5003A08C20295
:1059B0003B08C33B3C08C43B3D08C53B4508BD0014
:1059C0004408BC004308BB004208BA00C11FE92CD0
:1059D000EA2C022D0030C2000030C3000030C400A9
:1059E0008030C5003E08C2023F08C33B4008C43BAC
:1059F0004108C53B4508C1004408C0004308BF003A
:105A00004208BE008030BD068030C10641083D021C
:105A1000031D142D40083C02031D142D3F083B02BA
:105A2000031D142D3E083A020318172D182D1A2DA8
:105A300003101B2D03140800F80078080319212D0A
:105A4000222D362DF31F252D262D362D7009FA0017
:105A50007109FB007209FC007309FD00FA0A0319C1
:105A6000FB0A0319FC0A0319FD0A3E2D7308FD0009
:105A70007208FC007108FB007008FA0073087204D9
:105A800071047004031D452D462D4F2D0030F30089
:105A90000030F2000030F1000030F000BF2D9630F1
:105AA000F9005B2D0130F9070130FD36FC0CFB0CD1
:105AB000FA0C890B552DFE307D05031D602D612DDF
:105AC000522D712D0130F9070130FA070030FB3DEE
:105AD000FC3DFD3D0130FD36FC0CFB0CFA0C890B46
